:020000040801F1
:100000000000012075190108511801085318010852
:100010005518010857180108591801080000000078
:1000200000000000000000000000000031B30108E3
:100030005B18010800000000C1B3010825B40108E5
:10004000C5190108C5190108C5190108C519010814
:10005000C5190108C5190108C51901085D1801086D
:10006000C5190108C5190108C51901086518010855
:10007000C5190108C5190108C5190108C5190108E4
:10008000C5190108711801087D1801080000000059
:10009000000000000000000000000000C519010879
:1000A000C519010889180108C51901089518010822
:1000B000C519010899180108A5180108B118010807
:1000C000BD180108C5190108C5190108C51901089D
:1000D000C5190108C5190108C5190108000000006B
:1000E000C5190108C5190108C5190108000000005B
:1000F000000000000000000000000000C519010819
:1001000000000000C5190108C5190108C51901083A
:1001100000000000000000000000000000000000DF
:10012000C9180108C5190108C5190108C519010830
:10013000C5190108000000000000000000000000D8
:10014000000000000000000000000000D5180108B9
:10015000C5190108C5190108C5190108C519010803
:10016000E1180108ED18010800000000000000007F
:10017000000000000000000000000000000000007F
:1001800000000000C5190108000000000000000088
:04019000C519010884
:1001A00010B5054C237833B9044B13B10448AFF3B1
:1001B00000800123237010BDDC030020000000003C
:1001C000B8FA010808B5034B1BB103490348AFF364
:1001D000008008BD00000000E0030020B8FA01081C
:1001E00010F8012B11F8013B012A28BF9A42F7D0E1
:1001F000D01A7047034613F8012B002AFBD1181AB6
:1002000001387047000000000000000000000000FE
:1002100001F0FF01102A2BDB10F0070F08D010F8B7
:10022000013B013A8B422DD010F0070F42B3F6D1BB
:10023000F0B441EA012141EA014122F007047FF0D4
:1002400000070023F0E80256083C85EA010586EA2B
:10025000010685FA47F5A3FA87F586FA47F6A5FA67
:1002600087F68EB9EED1F0BC01F0FF0102F0070273
:1002700032B110F8013B013A83EA010313B1F8D11E
:100280000020704701387047002D06BF35460338FF
:10029000073815F0010F07D1013015F4807F02BF38
:1002A000013015F4C03F0130F0BC0138704700BF89
:1002B0007BB972B90029BEBF00204FF0004106E0B3
:1002C00008BF00281CBF6FF000414FF0FF3000F066
:1002D000BDB9ADF1080C6DE904CE002909DB002B96
:1002E0001ADB00F04DF8DDF804E0DDE9022304B08C
:1002F0007047404261EB4101002B1BDB00F040F8EE
:10030000DDF804E0DDE9022304B0404261EB410185
:10031000524263EB43037047524263EB430300F0E6
:100320002FF8DDF804E0DDE9022304B0404261EB80
:1003300041017047524263EB430300F021F8DDF8BE
:1003400004E0DDE9022304B0524263EB430370474B
:1003500053B94AB9002908BF00281CBF4FF0FF312C
:100360004FF0FF3000F072B9ADF1080C6DE904CE2A
:1003700000F006F8DDF804E0DDE9022304B0704780
:100380002DE9F047089E04468846002B4BD18A424F
:10039000154667D9B2FA82F24AB1C2F1200701FAD2
:1003A00002F320FA07F7954047EA030894404FEA22
:1003B000154E230CB8FBFEF71FFA85FC0EFB1788C1
:1003C00043EA084307FB0CF1994209D9EB1807F1FE
:1003D000FF3080F01B81994240F21881023F2B448C
:1003E0005B1AA4B2B3FBFEF00EFB103344EA0344E5
:1003F00000FB0CFCA44509D92C1900F1FF3380F057
:100400000781A44540F2048102382C4440EA0740A9
:10041000A4EB0C0400271EB1D4400023C6E900431E
:100420003946BDE8F0878B4209D9002E00F0EB80F9
:100430000027C6E9000138463946BDE8F087B3FA1F
:1004400083F7002F47D18B4202D3824200F2FA8019
:10045000841A61EB030301209846002EE0D0C6E920
:100460000048DDE702B9FFDEB2FA82F2002A40F06E
:100470008F80491B4FEA154E1FFA85F80127B1FB03
:10048000FEFC230C0EFB1C1143EA014308FB0CF19C
:10049000994207D9EB180CF1FF3002D2994200F2D1
:1004A000CD808446591AA3B2B1FBFEF00EFB1014A6
:1004B00043EA044408FB00F8A04507D92C1900F1D1
:1004C000FF3302D2A04500F2B6801846A4EB080420
:1004D00040EA0C409FE7C7F1200CBB4022FA0CFE1B
:1004E0004EEA030E01FA07F420FA0CF521FA0CF398
:1004F0004FEA1E482543B3FBF8F92C0C08FB1933CF
:100500001FFA8EFA44EA034309FB0AF49C4202FAFA
:1005100007F200FA07F10BD91EEB030309F1FF30D4
:1005200080F087809C4240F28480A9F102097344E4
:100530001B1BADB2B3FBF8F008FB103345EA0344D4
:1005400000FB0AFAA24508D91EEB040400F1FF33B0
:100550006BD2A24569D90238744440EA0940A0FB35
:100560000289A4EB0A044C45C2464B4654D351D0F1
:10057000002E69D0B1EB0A0564EB030404FA0CFC0D
:10058000FD40FC404CEA0505C6E90054002747E75A
:10059000C2F1200320FA03F7954001FA02F021FA94
:1005A00003F34FEA154E3843010CB3FBFEF71FFA75
:1005B00085F80EFB173341EA034107FB08F38B4232
:1005C00004FA02F407D9691807F1FF3C2FD28B42D5
:1005D0002DD9023F2944CB1A81B2B3FBFEF00EFBAA
:1005E000103341EA034100FB08F38B4207D9691835
:1005F00000F1FF3C17D28B4215D902382944C91AA1
:1006000040EA07473BE73746304609E70746E7E653
:100610001846FBE64145ABD2B8EB020A69EB0E0285
:1006200001381346A4E76046E9E7184695E76746B0
:10063000D1E781467CE702382C4447E7ACF1020C55
:100640002B442FE7384608E73746E9E6704700BFF6
:10065000084B01221A70084B40F229121A80074BEE
:100660001B68DA6240F21B121A644BF282729A62C1
:10067000704700BFFA03002018040020D02F00208C
:1006800008B5FFF7E5FF044800F013FA0348BDE89A
:10069000084000F00EBA00BF34040020D00400204F
:1006A00008B5C82009F01EFA00F070FA012805D13B
:1006B000034B1870BDE8084005F076BF08BD00BFC9
:1006C000FB030020014803F054BF00BFD0250020E9
:1006D00008B5002000F068FA831040F6E440584363
:1006E0000013A0F5FA7080B208BD0000064B1B682D
:1006F000D86B196C5A6C9B6C084412FA80F013FA90
:1007000080F0400080B27047DC25002010B50C4C12
:1007100078B1FFF7EBFF237D226934F8131024F83A
:100720001300521A0133024403F0070322612375B8
:1007300010BD2069082390FBF3F080B2F8E700BFFA
:1007400000040020084B1B782BB1084B1888642349
:10075000B0FBF3F07047064B186841F2883300286D
:1007600008BF184680B2F2E7F11000208819002077
:10077000240B0020024B0A221A80024B187070478B
:10078000F8030020FC0300200F4908B50B789BB14B
:10079000FF284FF0000215D10A700C4A40F21B11DD
:1007A00011800B4A1268D16240F20D1111644FF6AC
:1007B000FF719162184608BDE528FBD8FFF748FF96
:1007C0000123F7E71346F5E7FA0300201804002099
:1007D000D02F0020037F012B03D10C21014805F00D
:1007E000C9B87047502700202DE9F04F0168434FEA
:1007F0000A68434C22F0010289B00A604FF0010BF5
:100800001122CDE9042B002206923E4A08AD904207
:100810000CBF4FF0400A4FF4807A45F814AD06BF84
:100820003C4680231023294681461FFA8AF620463B
:10083000009302F02FF95A463146204602F0FEF9A5
:10084000009B03932946384602F024F9BDF8008046
:100850005A464146384602F0F1F94FF0650B0197D0
:100860004146019802F0E4F90128074613D000221E
:100870003146204602F0E2F900BF00BF00BF00BFD2
:1008800001223146204602F0D9F9BBF1010BE7D134
:1008900009B0BDE8F08F1222CDE9042029460022DC
:1008A00020460692CDF80CA002F0F4F8009B134805
:1008B0000393294602F0EEF83A463146204602F00C
:1008C000BDF93A4641460D4802F0B8F9D9F8001092
:1008D0000A6842F400420A6000BFD9F800100A68B2
:1008E00022F400420A6000BFD9F800100A6842F002
:1008F00001020A60484602F087FBC9E70004024093
:1009000000000240B41A002001F08AB8202280F8CA
:100910003D200A4AD2F898108842034604D1D06C90
:1009200010B1002109F0F1BB054AD2F898108B42B2
:1009300002D1D06C0028F4D1704700BF34040020ED
:10094000D0040020D0F89800FFF74EBF00231A46CD
:100950001946C06C09F012BB08B53221C06C09F011
:10096000C9FC431E5842584108BD2DE9FF410446C9
:100970000E4617469846FFF7EFFF0546A8B14FF41D
:10098000FA730293BDF82830D4F89800CDE90083BB
:100990003A460123314602F0DDFD50B12046FFF713
:1009A000D1FF2046FFF7D2FF0025284604B0BDE85E
:1009B000F0812046FFF7CAFFF7E71FB50123009338
:1009C00003ABFFF7D2FF9DF80C0005B05DF804FB08
:1009D0002DE9FF4104460E4617469846FFF7BCFF37
:1009E0000546A8B14FF4FA730293BDF82830D4F845
:1009F0009800CDE900833A460123314602F01AFD02
:100A000050B12046FFF79EFF2046FFF79FFF0025CD
:100A1000284604B0BDE8F0812046FFF797FFF7E7CE
:100A20001FB504AC04F8013D012300932346FFF7F2
:100A3000CFFF04B010BD70B586B005460E46FFF777
:100A40008BFF044690B101234FF47A72CDE9013255
:100A500005AA009231460F22D5F8980002F07AFDDF
:100A6000B0FA80F428466409FFF770FF204606B00C
:100A700070BD2DE9F04106460F4698461446002504
:100A8000A8450DDD6378227839463046FFF7C8FF68
:100A900038B1A07808B1FFF737FF01350334EFE72D
:100AA0000120BDE8F08100231A461946006809F0CC
:100AB00065BA10B5C36C044643B900F1500101207A
:100AC00009F00EFBE0642046FFF740FF23684BB9B6
:100AD000211D012009F004FB20602046BDE81040E4
:100AE000FFF7E1BF10BD08B5036803B900BE4FF4BE
:100AF000FA71006809F0FEFB431E5842584108BDD8
:100B0000054B064AC3F898200022DA64044B0549D5
:100B1000C3F89810DA64704734040020B41A002037
:100B2000D0040020001A002007B5002301930B4BCE
:100B300083420FD10A4B186860B101A90AF03AFB51
:100B4000019B3BB1074B4FF080521A60BFF34F8FB0
:100B5000BFF36F8F03B05DF804FB00BFDC250020FE
:100B60005818002004ED00E070477047FFF7CEBE34
:100B7000FFF7CCBEFFF7CABEFFF7C8BEFFF7C6BE81
:100B8000FFF7C4BE05F078BD7047000008B500F05F
:100B90004DF9034B003018BF0120187008BD00BF8D
:100BA0006C0500200020704710B50023064C1A4643
:100BB000C118013334F82110102B02EB4102F7D198
:100BC000C2F38F0010BD00BF700500200246442113
:100BD0000148FFF7F2BE00BFD004002007B513465E
:100BE0000091024644210348FFF7BFFE03B05DF8C1
:100BF00004FB00BFD00400200B46024644210148FC
:100C0000FFF70EBFD004002037B505461548FFF7A3
:100C10006AFF28B335F8024F134B1248C4F302346D
:100C2000A400023464F07F021A710522009244216C
:100C30004322FFF7CDFE2B4600944322442109486E
:100C4000FFF7C6FE042300934322084B05484421C6
:100C5000FFF7BEFE034803B0BDE83040FFF723BFF7
:100C600003B030BDD004002000000020FFFB0108CD
:100C700010B504460F48FFF736FF00B900BE432009
:100C8000FFF7A4FF0221A21C4320FFF7A7FF618802
:100C9000C1F3023121B1221D89004320FFF79EFFDD
:100CA000054A04214320FFF799FF0248FFF7FBFEA6
:100CB000002010BDD0040020B005002010B504466F
:100CC0000AF050F8012809D1224607213C20FFF7FD
:100CD00085FF0AF047F8012806D110BD0548FFF747
:100CE00002FF0028F0D1F8E70248BDE81040FFF706
:100CF000DABE00BFD004002008B50AF033F801289E
:100D00000CD144210620FFF777FF04210720FFF7CD
:100D100073FF0AF027F8012806D108BD0548FFF740
:100D2000E2FE0028EDD1F8E70248BDE80840FFF7F1
:100D3000BABE00BFD004002007B502AA00230121DB
:100D400002F8013D0846FFF749FF9DF8070001380A
:100D5000C0B2FD288CBF0020012003B05DF804FB69
:100D600038B53148FFF7BFFE10B90024204638BD22
:100D700001210C20FFF740FF022008F0B3FEFFF72F
:100D8000DBFF04460028F0D00F210B20FFF734FFD3
:100D900000210A20FFF730FF00210E20FFF72CFF73
:100DA00000210F20FFF728FF0C210620FFF724FF6A
:100DB00007210920FFF720FF00210820FFF71CFF73
:100DC00004210720FFF718FF07210220FFF714FF77
:100DD0000A2008F087FE4020FFF7F8FE0B210546A9
:100DE0000220FFF709FF0A2008F07CFE4020FFF7F1
:100DF000EDFE05F0030500F0030085420DD9252125
:100E00000320FFF7F9FE07210220FFF7F5FE064851
:100E1000FFF749FEFFF770FFA8E726210320FFF741
:100E2000EBFE0B21F0E700BFD00400204421014875
:100E3000FFF701BED004002070470000034B0360A1
:100E4000034B0B6040231360704700BFB4060020C3
:100E5000B405002008B50DF0ADFC0DF0B1FB01208C
:100E600008F040FEFBE708B50DF0BCFA012008F0E1
:100E700039FEFBE708B50DF01DFC012008F032FE3D
:100E8000FBE708B50CF014FF012008F02BFEFBE790
:100E900030B5002495B02146142203A8CDE90A44B8
:100EA0000C940EF045F81E4B01941A6C42F08052DF
:100EB0001A641B6C1B4A03F080530193019B02943C
:100EC000136823F4404343F400431360136803F4AE
:100ED000404302930922029B4FF48033CDE908235B
:100EE00002250123CDE90D354FF480010623CDE91C
:100EF0000F13FC200423CDE91103072308A8139343
:100F000003F0F8FF0F23CDE9033529464FF4A05332
:100F100003A80594CDE9063304F0C0F915B030BD3F
:100F2000003802400070004080B50024A2B000F0FC
:100F30004BFDFFF7ADFF0DF0BBFCCDE91D44CA4DE5
:100F400002942B6BC948DFF8689343F080032B634E
:100F50002B6B03F080030293029B03942B6B43F0F3
:100F600001032B632B6B03F001030393039B049496
:100F70002B6B43F002032B632B6B03F002030493F0
:100F8000049BBB4B012602271AA9CDE91A731C96B4
:100F900001F080FD4FF402431AA9B4481C96CDE934
:100FA0001A3401F077FD4FF480731AA9AF481C94EE
:100FB000CDE91A3401F06EFD22460A21072001F026
:100FC000C5F9072001F0F6F900942B6B43F4800378
:100FD0002B632B6B03F480030093009B01942B6B1A
:100FE00043F400132B632B6BA24D03F40013224632
:100FF000052101930B20019B01F0A8F90B2001F0C2
:10100000D9F922460521112001F0A0F9112001F0A3
:10101000D1F922460521382001F098F9382001F055
:10102000C9F91022214613A80DF082FF2022214683
:101030001AA80DF07DFF904B2E61C5E900342846BB
:101040008E4BAB624FF004082E76EE6185F830606F
:101050006E61AC6085F82040EC62EC6000F0F4FC5E
:1010600013A92846CDE91376CDF8548000F04EFF41
:101070000823CDE91A361AA94FF480132846CDE982
:101080002043CDF878801C948DF87D408DF87C400D
:101090001D9401F083F81AA928461B9701F07EF8E9
:1010A00003231AA928461B9301F078F81AA92846A9
:1010B000CDF86C8001F072F87148724B04624FF405
:1010C0008046C0E90039C0E90464C0E90244C0E9CF
:1010D000064401F099FF6C486C4B0462C0E900398A
:1010E000C0E90464C0E90244C0E9064401F08CFF91
:1010F0001C22214613A8CDE90C440DF019FF21460E
:1011000020221AA8624E0DF013FF624AB4604FF617
:10111000FF73C6E90023304640F21B13C6E90334CF
:10112000C6E9054404F01AFB0CA930464FF06009EB
:10113000CDE90C4404F04CFC224613A93046CDE91D
:101140001574CDE91394CDE91784199404F04CFB80
:101150000C2240F20D1313A93046CDE9143404F0EB
:1011600043FB4FF400531AA930461F93CDE91A44AC
:10117000CDE91C441E94219404F064FC0C213046FB
:1011800004F0BEFB2146304604F0F2FB304604F08A
:10119000C8F941484149424E0623C0E9001364237F
:1011A000836003F0C5F91C2221461AA84FF0290AD2
:1011B000CDE913440DF0BCFE4FF08043C6E9003A80
:1011C00030466323C6E90334B460B46104F0C6FA60
:1011D00013A93046CDE9134404F0FAFB32230C2264
:1011E0001AA93046CDE91B34CDF868901E9404F05E
:1011F000FBFA304600F0AEFA1C2221461AA8294E0E
:10120000CDE913440DF094FE274BB460C6E9003AD3
:101210003046FF23C6E90334B46104F09FFA13A9F2
:101220003046CDE9134404F0D3FB42461AA93046B8
:101230001C97CDE91A941E9404F0D6FA304600F0BB
:1012400089FA0DF0B7FAFFF73DFAFFF719FA2846C9
:1012500000F0A0FC10221549284600F0FBFC2846AF
:1012600000F0E4FE284625E0003802400004024079
:1012700000001110DC250020002001400100000FBB
:10128000B41A002000540040001A0020005C004006
:10129000D02F002000000140D02500200030004069
:1012A00050270020902F00200004004070050020EF
:1012B000801A0600274D00F013FFFFF703FA0FCD49
:1012C00005AE0FC695E8070086E80700214605A889
:1012D00008F0F3FB204B05F10C0718600FCF0CAEA4
:1012E0000FC697E8070086E8070021460CA808F01B
:1012F000E4FB1A4B05F1280718600FCF13AE0FC699
:1013000097E8070086E80700214613A808F0D5FBF8
:10131000134B443518600FCD1AAE0FC695E8070081
:1013200086E8070021461AA808F0C7FB0D4B1E9A55
:1013300018600D4B1A800D4B099A1A800C4B109AAD
:101340001A800C4B179A1A80FFF7BCF908F0B0FB13
:10135000FEE700BFD0FA01081030002098190020E5
:10136000081B0020EC260020180700201C07002086
:101370001A0700201E0700200268144B9A4210B57D
:10138000044617D1124B1A88013A92B21A80114AB8
:101390001178114A1268C9B25163516B09B9012120
:1013A0005163526B0D480C2162B11B889BB24BB14B
:1013B00004F0A6FA22680A4B9A4206D1BDE8104012
:1013C00000F01CBB04F0D6FAF4E710BD00000140A9
:1013D000F8030020FC030020D02F0020502700201D
:1013E000000800407047000082B00C4B00210091C3
:1013F0005A6C42F480425A645A6C02F48042009261
:10140000009A01911A6C42F080521A641B6C03F02E
:1014100080530193019B02B0704700BF0038024027
:1014200070B5064688B01422002103A80DF080FD97
:1014300032682E4B9A4256D103F58C330025009525
:101440005A6C2B4842F480725A645A6C02F48072CF
:101450000092009A01951A6B42F001021A631A6B0E
:1014600002F001020192019A02951A6B42F0020207
:101470001A631B6B03F0020302930324029B03A96C
:101480000423CDE9033401F005FB012303A9194826
:101490000595CDE9033401F0FDFA174C174B4FF4D5
:1014A0008062C4E900354FF40063C4E904234FF4BB
:1014B00000514FF48073C4E9061320464FF44033C3
:1014C000C4E90255C4E9083500F098FF08B1FFF7F8
:1014D00089FFB463122000220F21A66300F036FFBB
:1014E000122000F067FF08B070BD00BF002001406F
:1014F00000000240000402400C1B00201064024067
:101500002DE9F04114228AB0064600210DEB0200BD
:101510000DF00EFD33685E4A93426BD15D4C0025A1
:101520000095236B43F002032363236B03F0020354
:101530000093009BC0201223CDE90503012703235C
:10154000CDE907735448042305A9099301F0A2FAD1
:101550000195236CDFF858C143F400132364236C16
:101560004E4C03F400130193019B4FF00073C4E948
:1015700000C320464FF48063C4E90255C4E9043532
:10158000C4E90655C4E9085500F038FF08B1FFF773
:1015900029FFB463424AA663424C4FF00073C4E98A
:1015A000002300234FF480624021C4E90423204635
:1015B0004FF48032C4E90213C4E90633C4E90823B6
:1015C00000F01CFF08B1FFF70DFF00220F2174632C
:1015D0001F20A66300F0BAFE1F2000F0EBFE2020C3
:1015E00000220F2100F0B2FE202000F0E3FE0AB03E
:1015F000BDE8F0812C4A9342F9D1264C2B480025B6
:101600000295236B43F001032363236B03F0010373
:101610000293029B0395236B43F002032363236B26
:1016200003F002030393039B4FF012084FF48073FF
:10163000CDE9053801270423032605A90993CDE93F
:10164000077601F027FA1023CDE9053805A909230B
:1016500011480993CDE9077601F01CFA0495236C33
:1016600043F400032364236C03F400032A460F2190
:1016700004934820049B00F069FE482000F09AFE85
:1016800049202A460F2100F061FE4920ADE700BF46
:10169000005400400038024000040240F0260020C0
:1016A000A0600240541A0020005C0040000002408C
:1016B000106002401FB50368234A93421ED10024E4
:1016C000224B01945A6C42F001025A645B6C03F0A5
:1016D000010322460F2101931920019B00F036FEE1
:1016E000192000F067FE1B2022460F2100F02EFE7D
:1016F0001B2004B0BDE8104000F05CBEB3F1804F89
:101700000DD100230293114B1A6C42F001021A64AE
:101710001B6C03F001030293029B04B010BD0C4A42
:101720009342FAD1094B00220392196C41F0020155
:1017300019641B6C03F0020303931D200F21039B0C
:1017400000F004FE1D20D4E70000014000380240F4
:101750000004004010B5044688B01422002103A8FC
:101760000DF0E6FB2368B3F1804F17D100230193FE
:10177000154B1A6B42F001021A631B6B03F0010355
:101780000193019B08210223CDE90313012303A93F
:101790000E48079301F07EF908B010BD0C4A934241
:1017A000FAD100230293084B1A6B42F001021A632C
:1017B0001B6B03F001030293029B80220223CDE9FD
:1017C00003230693E3E700BF003802400000024015
:1017D0000004004030B5014689B000221E2000F010
:1017E000B5FD1E2000F0E6FD0025154B02951A6C94
:1017F000144C42F004021A641B6C03F004030293BD
:1018000001A903A8029B03F0F9FD03F0E7FD0E4BCD
:10181000236040F2E733E36040000C4BB0FBF3F091
:101820000138606020462561A56003F07DFF20B986
:10183000204603F076FE09B030BD0120FBE700BF73
:1018400000380240143400200008004040420F00DD
:101850007047FEE7FEE7FEE7FEE77047022001F073
:10186000F3B90000014800F093BE00BFF02600204D
:10187000014800F08DBE00BF541A0020014800F05E
:1018800070BA00BFDC250020014803F05DBE00BF38
:10189000D02F0020FFF7F8BF014803F055BE00BF6E
:1018A000902F0020014803F04FBE00BF14340020E9
:1018B000014802F05FB900BFB41A0020014802F0ED
:1018C0009FBD00BFB41A0020014800F061BE00BFF8
:1018D0000C1B0020014802F0F9BE00BF1843002095
:1018E000014802F047B900BF001A0020014802F089
:1018F00087BD00BF001A00200120704708B50DF019
:10190000B9FA162303604FF0FF3008BD08B50DF09B
:10191000B1FA16230360FEE70B4B196810B50246B7
:1019200009B90A491960186809490A4C0244091B97
:101930008A4206D90DF09EFA0C2303604FF0FF3067
:1019400010BD1A60FCE700BF2007002028470020D8
:101950000000012000040000044BD3F8882042F46A
:101960007002C3F88820024A9A60704700ED00E0D8
:1019700000000108DFF834D0002103E00C4B5B5875
:10198000435004310B480C4B42189A42F6D30B4A91
:1019900002E0002342F8043B094B9A42F9D3FFF7D7
:1019A000DBFF0DF06DFAFFF7BFFA70470000012072
:1019B0009443020800000020DC030020DC03002028
:1019C00024470020FEE7000008B50B4B1A6842F4DC
:1019D00000721A601A6842F480621A601A6842F44F
:1019E00080721A60032000F09FFC0020FFF7F2FED7
:1019F000FFF7FAFC002008BD003C0240034A044BFC
:101A000011681B780B441360704700BF54340020EA
:101A10000C000020014B1868704700BF54340020B0
:101A200038B50446FFF7F6FF631C1CBF054B1B7857
:101A3000054618BFE418FFF7EDFF401BA042FAD39C
:101A400038BD00BF0C00002038B50446002800F067
:101A50009B80056C25B9FFF7E3FC656484F83C5076
:101A6000236CDB0600F18E80236C23F4885323F073
:101A7000020343F002032364444B5A6822F44032C9
:101A80005A605A6861680A435A60236821695A6833
:101A900022F480725A605A6842EA01225A605A68F7
:101AA000A16822F040725A605A680A435A609A68E4
:101AB000E16822F400629A609A680A439A603449A5
:101AC000A26A8A4252D0996821F07061996099683F
:101AD0000A439A609A68E16A22F040529A609A68D2
:101AE0000A439A609A68217E22F002029A609A68FC
:101AF00042EA41029A6094F82020002A3ED05A68B7
:101B0000616A42F400625A605A6822F460425A6084
:101B10005A68013942EA41325A60DA6AE16922F4CC
:101B20007002DA62DA6A013942EA0152DA629A68CC
:101B300094F8301022F400729A609A6842EA4122C6
:101B40009A609A68616922F480629A609A680020BB
:101B500042EA81229A606064236C23F0030343F01D
:101B600001032364002384F83C3038BD9A6822F0D6
:101B700070629A609A6822F04052B2E75A6822F482
:101B80000062C9E70120EDE70120EEE700230140F4
:101B90000100000F82B00023019390F83C30012B2C
:101BA0004ED0012380F83C3003689A68D10705D5F0
:101BB0009A68D20714D4002002B070479A6821496D
:101BC00042F001029A60204A1268B2FBF1F202EB85
:101BD00042020192019A002AEAD0019A013AF8E7FA
:101BE000026C22F4E06222F0010242F4807202648C
:101BF0005A68510541BF026C22F4405242F48052AF
:101C00000264026C12F480521CBF426C22F0060285
:101C10004264002280F83C206FF022021A600B4AD6
:101C20005268D20608D1986810F04050C3D19A6823
:101C300042F080429A60BFE7054A9342BBD1F2E787
:101C40000220B9E740420F000800002000230140B5
:101C50000020014037B513460022019290F83C2045
:101C6000012A044665D00568012280F83C20AA6854
:101C7000D20705D5AA68D00715D4002003B030BD1F
:101C8000AA6842F00102AA602B4A10682B4AB0FBF6
:101C9000F2F000EB40000190019A002AEAD0019A8C
:101CA000013A0192F8E7206C20F4E06020F0010096
:101CB00040F4807020646A68520541BF206C20F4B3
:101CC000405040F480502064226CA06B12F480528B
:101CD0001CBF626C22F006026264002284F83C2081
:101CE000174AC263174A0264174AC2646FF022029D
:101CF0002A606A6842F080626A60AA6842F4807270
:101D0000AA600A4605F14C0100F0F6FB0F4B5B6838
:101D100013F01F0F236808D1986810F04050ACD121
:101D20009A6842F080429A60A8E7094A9342A4D197
:101D3000F2E70220A2E700BF0800002040420F00A7
:101D4000A11E0108551D01088B1E0108002301403A
:101D50000020014008B5806BFEF707FF08BD704703
:101D6000704738B5036819685A688D0704462BD543
:101D7000900629D5226CD1065EBF226C42F4007217
:101D800022649A6812F0405F17D1227EAAB9DA6AFB
:101D900012F4700F02D09A6852050ED45A6822F0DD
:101DA00020025A60236C23F480732364236CDB04C9
:101DB0005EBF236C43F0010323642046FEF7D4FE8C
:101DC00023686FF012021A60236819685A684D0779
:101DD00032D5100630D5226CD1065EBF226C42F49B
:101DE000005222649A6812F4401F1ED19A6B12F4BA
:101DF000401F02D09A68520517D45A68550514D46A
:101E00009A6812F0405F10D1227E72B95A6822F0AF
:101E100080025A60236C23F480532364236CD8051A
:101E20005EBF236C43F0010323642046FEF77CFE73
:101E300023686FF00C021A60236819685A68C90792
:101E40000FD555060DD51B68D8070AD5236C43F46A
:101E5000803323642046FFF782FF23686FF001027E
:101E60001A60236819685A6889060DD552010BD586
:101E7000626C6FF0200542F00202626420461D6031
:101E8000FFF76EFF23681D6038BD806B08B54023E7
:101E90000364436C43F004034364FFF761FF08BD30
:101EA000836B1A6C12F0500F10B51A6C23D142F4E8
:101EB00000721A641A68916811F0405F17D1197E98
:101EC000A9B9D16A11F4700F02D0916848050ED4F7
:101ED000516821F0200151601A6C22F480721A645A
:101EE0001A6CD1045EBF1A6C42F001021A641846E3
:101EF000FEF73AFE10BDD20603D51846FFF730FFB5
:101F0000F8E79B6BBDE81040DB6C1847F7B5002382
:101F1000019390F83C30012B7ED00D688E68012330
:101F2000092D80F83C30ACB2036829D904EB440297
:101F3000DF681E3A4FF0070C0CFA02FC27EA0C0788
:101F4000DF60DF6806FA02F23A43DA604968062980
:101F500001EB810224D8596B053A1F26964021EAED
:101F600006015963596B04FA02F20A435A632B4A79
:101F7000934231D0002380F83C30184603B0F0BDC6
:101F80001F6905EB45024FF0070C0CFA02FC27EA2B
:101F90000C071F611F6906FA02F23A431A61D5E77E
:101FA0000C294FF01F010BD81E6B233A914026EAF3
:101FB00001011963196B04FA02F20A431A63D6E7A6
:101FC000DE6A413A914026EA0101D962D96A04FAEF
:101FD00002F20A43DA62CAE7122D04D1104A5368AA
:101FE00043F480035360A5F11003012BC2D80C4ABF
:101FF0005368102D43F400035360BBD1094B0A4AC8
:102000001B68B3FBF2F20A2353430193019B002B9D
:10201000B0D0019B013BF8E70220AFE70020014070
:10202000002301400800002040420F0082B000233E
:10203000019390F83C30012B47D0012380F83C30CD
:1020400003689A68D10705D59A68D20714D400208E
:1020500002B070479A681E4942F001029A601D4A18
:102060001268B2FBF1F202EB42020192019A002ADD
:10207000EAD0019A013AF8E7026C22F4405222F0C9
:10208000010242F480520264026C12F4807208BFB2
:102090004264002280F83C206FF004021A600E4A6D
:1020A000526812F01F0F9A6858680AD112F4401F44
:1020B000CDD110F48060CAD19A6842F480029A604F
:1020C000C6E706498B42C2D1F0E70220C0E700BF55
:1020D00040420F0008000020002301400020014082
:1020E00082B00023019390F83C30012B4BD00123A8
:1020F00080F83C3003689A68D10705D59A68D20702
:1021000014D4002002B070479A68204942F00102BE
:102110009A601F4A1268B2FBF1F202EB420201928E
:10212000019A002AEAD0019A013AF8E7026C22F4F7
:10213000405222F0010242F480520264026C12F416
:10214000807208BF4264002280F83C206FF00402D5
:102150001A605A6842F080025A600E4A526812F0C1
:102160001F0F9A6858680AD112F4401FC9D110F4A1
:102170008060C6D19A6842F480029A60C2E706493C
:102180008B42BED1F0E70220BCE700BF40420F0007
:1021900008000020002301400020014090F83C305E
:1021A000012BF0B500F0B5800C688A680123092C7A
:1021B00080F83C30A6B2036876D906EB4605DF68A6
:1021C0001E3D4FF0070C0CFA05FC27EA0C07DF60F8
:1021D000DF6802FA05F53D43DD609A6BD1F810C067
:1021E00022F440129A639D6B0CF1FF3245EA0255CE
:1021F0009D634D689F6BEA1CA2EB0C02D2B202EB0E
:1022000082024FF01F0C0CFA02FC27EA0C079F63B6
:102210009F6B06FA02F23A439A633F4E8A69B242D2
:1022200052D09E6826F470269E609E6832439A6063
:102230009A68CE6922F440129A609A6832439A6092
:102240004A7D002A48D05A6842F480625A600A7D6A
:10225000002A45D05A6842F480525A60022DCA685A
:102260002E4941D0032D46D0012D4BD15D69294027
:10227000596159690A435A61294A93420FD1122C74
:1022800005D1D2F8043343F48003C2F80433103C80
:10229000012C04D8234A536843F4000353600023FD
:1022A00080F83C301846F0BD1F6904EB44054FF040
:1022B000070C0CFA05FC27EA0C071F611F6902FADC
:1022C00005F53D431D6188E79A6822F470229A6003
:1022D0009A6822F44012B2E75A6822F48062B5E7A5
:1022E0005A6822F48052B8E79D692940996199693A
:1022F0000A439A61C0E7DD692940D961D9690A4377
:10230000DA61B9E71D6A29401962196A0A431A623B
:10231000B2E70220C7E700BF01000F0000F0FFFF97
:102320000020014000230140074AD36823F4E06302
:102330001B041B0C43F0BF63000243F4003300F4A2
:10234000E0600343D360704700ED00E0174B70B5C9
:10235000DC68C4F30224C4F10705042D04F104036E
:1023600028BF04254FF0FF36062B06FA05F38CBF75
:10237000033C002421EA0303A34006FA04F422EA02
:102380000404002843EA0403A8BF00F160404FEAB8
:102390000313BCBF00F00F00054ADBB2AABF00F573
:1023A0006140135480F8003370BD00BF00ED00E0C1
:1023B00014ED00E0002808DB4209012300F01F00B3
:1023C00003FA00F0014B43F82200704700E100E0FF
:1023D0000368DAB223F47F7323F003031821103A61
:1023E000B2FBF1F20449032A88BF0433895C836598
:1023F000C165806D704700BF3BFC010870B50446A5
:10240000FFF708FB0546002C71D0002384F8343018
:102410002268022384F83530136823F00103136027
:1024200021680B68D8073CD40B68324DA0691D4069
:10243000D4E901231343E268134322691343626919
:102440001343E26903431343226A1343626A042A73
:1024500043EA050302BFD4E90B5635432B430B6017
:102460004B69042A23F0070343EA02030BD1A26A53
:10247000E56A13433DB1F8B9012A2DD001D3022AF0
:1024800001D1EA012BD44B612046FFF7A1FFE26D99
:102490003F239340836000200123606584F835303A
:1024A00009E0FFF7B7FA401B0528B9D92023636577
:1024B000032084F8350070BDB0F5005F13D1032A06
:1024C000E1D801A050F822F0DF240108832401089C
:1024D000DF240108D9240108B5F1C07FD3D14023FE
:1024E00063650120E5E7022AF9D9032AC8E701203C
:1024F000E1E700BF3F8010F070B590F83440012C48
:1025000032D0012480F8344090F83540866D012C9B
:102510004FF000054FF0020424D180F835400468E4
:102520004565256825F48025256063608368402B18
:102530000EBFA260A160E260C26D08BFE1603F23F0
:102540009340B360236843F016032360036C1BB110
:10255000236843F008032360236843F001032360EA
:10256000002070BD80F834500220FAE790F8353032
:10257000022B03D0802343650120704702680523A6
:1025800080F83530136823F0010313600020704792
:10259000F7B5002301935C4B856D1F68C36D2E68F2
:1025A00008229A40324204460CD00168086840076D
:1025B00008D5086820F004000860AA60626D42F047
:1025C0000102626501229A40324208D021684969BD
:1025D000090641BFAA60626D42F0020262650422F0
:1025E0009A40324208D021680968880741BFAA6032
:1025F000626D42F00402626510229A40324210D0AD
:102600002368196809070CD5AA601A68500337D5E2
:102610001B68190301D4236C00E0A36C0BB12046A6
:102620009847E16D20228A4032423AD023681868E8
:10263000C60636D5AA6094F83520052A1A6827D12F
:1026400022F016021A605A6922F080025A61226C46
:102650000AB9A26C1AB11A6822F008021A603F2364
:102660008B40AB60002384F83430012384F835308C
:10267000236D002B45D0204603B0BDE8F04018473D
:102680001A68D2055EBF1A6822F008021A60C2E713
:10269000500327D51B68190331D4636C0BB1204656
:1026A0009847636D6BB3636DDA0719D5052322680C
:1026B00084F83530136823F0010313604FF4165388
:1026C000B7FBF3F7019B0133BB42019302D81368B8
:1026D000DB07F7D4002384F83430012384F8353045
:1026E000E36CC6E71A6812F4807208D1196821F009
:1026F00010011960012384F8342084F83530E36B2D
:10270000CCE703B0F0BD00BF0800002090F8350012
:102710007047406D70470000094910B50C6924F4FA
:1027200040740C610C6944F440740C610C6944F011
:1027300001040C610260BFF36F8F436010BD00BFE6
:10274000003C0240074B1A6922F440721A611A6970
:1027500042F400721A611A6942F001021A610160C2
:10276000704700BF003C0240074B1A6922F44072D8
:102770001A611A6942F480721A611A6942F0010200
:102780001A610180704700BF003C0240204BDA68AC
:10279000D00606D51F49CA6942F01002CA6110224C
:1027A000DA60DA68910606D51A49CA6942F0080269
:1027B000CA612022DA60164BDA68520606D515493E
:1027C000CA6942F00402CA614022DA60DA6810067F
:1027D00006D51049CA6942F00202CA618022DA6055
:1027E0000B4BDA68D10507D50A49CA6942F00102E4
:1027F000CA614FF48072DA60DA68920706D505493B
:10280000CA6942F02002CA610222DA60704700BF42
:10281000003C024058340020064B1A69002ABFBF12
:10282000054A5A6002F188325A60BABF1869C00F6F
:1028300000207047003C024023016745034A1369AA
:1028400043F0004313610020704700BF003C02408A
:10285000F8B5124B124C00220546DA61FFF7DAF8A0
:1028600026460746E368DA030CD4E368DB0744BF77
:102870000123E360F06810F4F97007D0FFF786FFDA
:10288000012003E0691CEDD00DB90320F8BDFFF76E
:10289000C1F8C01BA842E5D9F7E700BF58340020B3
:1028A000003C02402DE9F0411F4D98462B7E012B44
:1028B00007460E46144635D001234CF250302B7695
:1028C000FFF7C6FFB0B9CFB9184B1A6922F44072AE
:1028D0001A611A691A611A69E4B242F001021A61B6
:1028E00034704CF25030FFF7B3FF104A136923F0F5
:1028F0000103136100232B76BDE8F081012F04D181
:10290000A1B23046FFF730FFEBE7022F04D121469A
:102910003046FFF717FFE4E7224643463046FFF70D
:10292000FBFEDEE70220E7E758340020003C0240CF
:10293000074B1A6922F440721A611A6942F00402C4
:102940001A611A6942F4803242EA00201861704725
:10295000003C024039B101291CD002290CBF4FF4C0
:1029600000714FF440710D4B1A6922F440721A61E4
:102970001A69114319611A6922F0F8021A611A6979
:1029800042F0020242EAC00018611A6942F4803241
:102990001A6170474FF48071E5E700BF003C0240C8
:1029A000144B1A6891050FD51A6822F400721A6048
:1029B0001A6842F400621A601A6822F400621A600F
:1029C0001A6842F400721A600A4B1A6852050FD551
:1029D0001A6822F480621A601A6842F480521A60FF
:1029E0001A6822F480521A601A6842F480621A60EF
:1029F000704700BF003C02402DE9F843234E337E70
:102A0000012B044688463FD001234CF250303376E8
:102A1000FFF71EFF0546A8B94FF0FF33C8F8003096
:102A20002368012B13D1207CFFF782FF4CF250303A
:102A3000FFF70EFF164A136923F0040305461361DE
:102A4000FFF7AEFF002333762846BDE8F883A7687A
:102A5000DFF83C90D4E902231344BB42F0D9217C37
:102A60003846FFF777FF4CF25030FFF7F1FED9F808
:102A7000103023F0FA03C9F8103018B1C8F800700C
:102A80000546DDE70137E5E70225DDE7583400209C
:102A9000003C02402DE9F04F85B00B68DFF88C81D7
:102AA000604A01934FF001090023019D09FA03F4E4
:102AB0002540AC4240F0A6804C6824F0100C4FEA50
:102AC000430E03260CF1FF3706FA0EF6012F6FEACC
:102AD000060611D8876807EA060ACF6807FA0EF7D4
:102AE00047EA0A078760476827EA050AC4F3001720
:102AF0009F4047EA0A074760C76807EA060A8F68E7
:102B000007FA0EF747EA0A07BCF1020FC76016D1B1
:102B10004FEAD30A00EB8A0A03F0070BDAF82070B9
:102B20004FEA8B0B4FF00F0C0CFA0BFC27EA0C0C46
:102B30000F6907FA0BF747EA0C07CAF82070076815
:102B40003E4004F0030707FA0EFE4EEA0606066052
:102B5000E60057D54FF0000BCDF80CB0D8F8447014
:102B6000314E47F48047C8F84470D8F8447007F4F1
:102B700080470397039F23F0030707F1804707F57A
:102B80009C3703F0030ED7F808A04FEA8E0E4FF0E3
:102B90000F0C0CFA0EFCB0422AEA0C0C39D006F5E8
:102BA0008066B04237D006F58066B04235D006F573
:102BB0008066B04233D006F58066B04214BF072667
:102BC000042606FA0EF646EA0C06BE601668EF43C7
:102BD00014F4803F0CBF3E402E431660566814F438
:102BE000003F0CBF3E402E435660966814F4801F91
:102BF0000CBF3E402E439660D668A40254BF3E40B0
:102C00002E43D6600133102B7FF44FAF05B0BDE8E3
:102C1000F08F5E46D5E70126D3E70226D1E70326EB
:102C2000CFE700BF003C01400000024000380240F6
:102C30000369194214BF0120002070470AB1816165
:102C400070470904FBE7000008B5044B59690142CD
:102C500002D05861FDF796FF08BD00BF003C01405F
:102C600001684B6913F480634FF0000210D06FF4D9
:102C700080634B612023026380F83D3080F83E2062
:102C8000036C80F83C2043F0040303640120704788
:102C9000184670472DE9F0410446164698468FB213
:102CA0002568686937EA000017D06B695A0516D5A0
:102CB0002B6843F400732B606FF480636B612022F8
:102CC0000023236384F83D2084F83E30226C42F0D8
:102CD0000402226484F83C300120BDE8F081731CBA
:102CE000DFD0FEF797FEA0EB0800B04201D8002E1F
:102CF000D6D100232022236384F83D2084F83E307F
:102D0000226C42F02002E4E770B504460D461646F8
:102D100023685B695B0701D5002070BD2046FFF783
:102D20009FFFA8B96A1CF3D0FEF774FE801BA8426F
:102D300001D8002DECD100232022236384F83D200C
:102D400084F83E30226C84F83C3042F02002226449
:102D50000120E2E770B504460D4616462068436937
:102D600013F0400301D0002010E04269D2060ED5D6
:102D70006FF0100242612022236384F83D2084F822
:102D80003E30226C226484F83C30012070BDFEF796
:102D900041FE801BA84201D8002DDFD10023202254
:102DA000236384F83D2084F83E30226C42F02002F8
:102DB000E8E72DE9F843089E044690461F464FEA8F
:102DC00011498DB22168B9F1010F0CBF4B698B69B4
:102DD00035EA03030CBF01230023984501D00020EE
:102DE00016E07B1CEFD0FEF715FE801BB84201D821
:102DF000002FE7D100232022236384F83D2084F8AC
:102E00003E30226C84F83C3042F0200222640120E3
:102E1000BDE8F88370B504460D46164623685B6925
:102E20001B0601D5002070BD2046FFF719FFA8B989
:102E30006A1CF3D0FEF7EEFD801BA84201D8002DDE
:102E4000ECD100232022236384F83D2084F83E3017
:102E5000226C84F83C3042F0200222640120E2E738
:102E60002DE9FF41154602680B9E9846136843F40E
:102E7000807313600F460A9B009600224FF00111E9
:102E80000446FFF796FF236838B11B68DB0502D5BF
:102E90004FF40073236403200AE007F0FE071F616C
:102EA0000A9A194933462046FFF7F4FE18B101206B
:102EB00004B0BDE8F081236803905A6903929B69CE
:102EC000039332460A99039B2046FFF7A3FF40B1C4
:102ED000236C042B01BF2268136843F40073136052
:102EE000E5E7B8F1010F236802D1EDB21D61DFE71C
:102EF0002A0A1A610A9932462046FFF78BFF0028FA
:102F0000E6D12368F1E700BF020001002DE9FF418F
:102F1000984603680B9D16461A6842F480621A6050
:102F20001A6842F480721A600F460A9B00950022CC
:102F30004FF001110446FFF73CFF236848B11B68BE
:102F4000DB0502D54FF400732364032004B0BDE811
:102F5000F081FFB207F0FE021A612A490A9A2B4655
:102F60002046FFF797FE08B10120EFE723680390A2
:102F70005A6903929B6903932A460A99039B204648
:102F8000FFF748FF40B1236C042B01BF2268136890
:102F900043F400731360E7E7B8F1010F236825D10C
:102FA000F6B21E612A460A992046FFF733FF024611
:102FB0000028E8D121680B6843F480730B60204639
:102FC0000A9B00954FF00111FFF7F3FE23680028DC
:102FD000B5D147F001071F610A9A0A492B462046DE
:102FE000FFF758FE003018BF0120AFE7320A1A6120
:102FF0000A992A462046FFF70DFF0028C3D123680F
:10300000CEE700BF0200010070B5044608B90120F8
:1030100070BD90F83D3003F0FF021BB980F83C20F2
:10302000FEF76EFA242384F83D3023681A6822F0F4
:1030300001021A601A6842F400421A601A6822F407
:1030400000421A6002F0CAF96368414A93424DD8BF
:10305000404A9042DBD922683F495568B0FBF1F104
:1030600025F03F050D435560156A25F03F050131F8
:1030700029431162D169364D21F44F41AB4221F011
:10308000FF0100F1FF3048D85B00B0FBF3F0431CB8
:10309000C3F30B03042B38BF04230B43D361D4E9E0
:1030A00007301168034321F0C0010B43136091689E
:1030B000D4E9030321F40341034321F0FF010B434F
:1030C0009360D4E90530D168034321F0FF010B433D
:1030D000D360136843F001031360002020232064B1
:1030E00084F83D30206384F83E0091E71B4A90420B
:1030F0008DD92268184E5568B0FBF6F625F03F05CD
:1031000035435560156A4FF49671714325F03F05BC
:103110004FF47A76B1FBF6F1A9E7A56855B903EB50
:103120004303B0FBF3F0431CC3F30B036BB143F455
:103130000043B2E719256B43B0FBF3F0431CC3F324
:103140000B0313B143F44043A7E70123A5E700BFF6
:10315000A08601007F841E0040420F00FF083D0052
:103160002DE9FF4104461F460D469046FEF752FCEE
:1031700094F83D30202B064604D00225284604B0A2
:10318000BDE8F0810090192301225B492046FFF73A
:1031900010FE0028F1D194F83C30012BEDD0012332
:1031A00084F83C3023681A68D2075EBF1A6842F080
:1031B00001021A601A6822F400621A60212284F85F
:1031C0003D20102284F83E20002222646785628D13
:1031D00022854A4AE262E26AC4F82480082A04D0BE
:1031E000012A02D012F5803F04D11A6842F480729D
:1031F0001A6002E0226B122AF7D0002200960A9B86
:103200004FF001112046FFF7D4FD226838B1136852
:10321000DB0544BF4FF4007323640125AEE7236947
:10322000B3F5804F21D105F0FE05156133460A9AAA
:1032300033492046FFF72EFD05460028EDD12368CF
:1032400003905A6903929B690393039B238DF3B9FF
:1032500021680A6842F400720A60202284F83D2046
:1032600084F83C3084F83E3088E7EB1103F0060325
:1032700043F0F003136123490A9A33462046FFF7CF
:1032800009FD0028C9D12368EDB21D61CEE73246A1
:103290000A992046FFF7BEFD40B1236C042BBCD138
:1032A0002268136843F400731360B6E7636A20680A
:1032B0001A4612F8011B01616262628D013A92B2F4
:1032C0006285228D4769511E89B27F0721850AD503
:1032D00049B15978016102336362638D013B9BB24E
:1032E000023A6385228532460A992046FFF70CFD93
:1032F0000028ABD0D1E700BF020010000000FFFFA4
:10330000020001000800010073B50E4611460022BC
:10331000019290F83D20202A044602D0022002B0FB
:1033200070BD404A46F2A8101268B2FBF0F01922B4
:1033300042430192019A013A0192019A6AB920230B
:10334000226384F83D3084F83E20236C84F83C20CE
:1033500043F0200323640120E1E722689069850798
:10336000E8D494F83C000128D8D0012084F83C002F
:103370001068C0075EBF106840F001001060106860
:1033800020F400601060212084F83D00002510200A
:1033900084F83E0025646385608D616283B22248B3
:1033A000E0622385666463B3606B204EC663204E83
:1033B000C664C0E91055856405651032FFF79CF8B6
:1033C00098B923681A6842F480621A601A6842F455
:1033D00080721A605A6884F83C0042F440725A6065
:1033E0005A6842F400625A6099E7202384F83D301D
:1033F00084F83E50236C84F83C5043F0100323645F
:10340000A9E7116841F480611160116841F480718D
:103410001160516884F83C3041F4E0615160184615
:103420007DE700BF080000200000FFFF5B380108B7
:10343000173801082DE9F743044699460F46904690
:103440000C9EFEF7E7FA94F83D30202B054603D09A
:10345000022003B0BDE8F0830090192301223B490C
:103460002046FFF7A6FC0028F2D194F83C30012B4F
:10347000EED0012384F83C3023681A68D1075EBF80
:103480001A6842F001021A601A6822F400621A6097
:10349000212384F83D30402384F83E300023236408
:1034A0000A9B6362BDF82C306385638D2385284BAE
:1034B000E362CDE900654B46424639462046FFF7B8
:1034C000CFFC00282AD00120C3E7FFF7A3FC40B1BE
:1034D000236C042B01BF2268136843F4007313604C
:1034E000F1E7636A27681A4612F8011B39616262C4
:1034F000628D218D013A92B262857A69481E80B24E
:10350000520720850AD548B15A783A61023363627E
:10351000638D013B02399BB221856385238D2A4649
:1035200031462046002BD0D1FFF7EEFB0028CFD14B
:103530002268136843F400731360202384F83D303D
:1035400084F83C0084F83E0083E700BF02001000CE
:103550000000FFFF2DE9F043044687B099460D4671
:103560009046109FFEF756FA94F83D30202B064601
:1035700004D00225284607B0BDE8F0830090192347
:10358000012277492046FFF714FC0028F1D194F876
:103590003C30012BEDD0012384F83C3023681A68BD
:1035A000D0075EBF1A6842F001021A601A6822F45E
:1035B00000621A60222384F83D30402384F83E30B4
:1035C000002323640E9B6362BDF83C306385638DEA
:1035D0002385644BE3622946CDE900764B4642469B
:1035E0002046FFF793FC054608B10125C2E7228D6E
:1035F000236892B902905A6902929A690292029AD9
:103600001A6842F400721A60202384F83D300023C7
:1036100084F83E3084F83C30ACE7012A2CD11A689B
:1036200022F480621A6003905A6903929A690392A5
:10363000039A1A6842F400721A60DFF82C81238D15
:10364000002BE1D0032B6ED8012B2DD13246394609
:103650002046FFF77FFB0028C7D123681A69636AF9
:103660001A70636A01336362238D013B2385638D86
:10367000013B9BB26385E2E7022A0ED11A6822F46D
:1036800080621A601A6842F400621A6004905A69F3
:1036900004929B690493049BCFE705905A690592B5
:1036A0009B690593059BC8E7022B00963B464FF0AC
:1036B00000024146204619D1FFF77BFB002894D138
:1036C00023681A6842F400721A601A69636A1A70F1
:1036D000626A531C6362238D013B2385638D013B2A
:1036E0009BB2638523681B695370BAE7FFF761FBE0
:1036F000024600287FF479AF2368196821F48061BD
:1037000019601969636A1970636A0096013363620C
:10371000238D013B2385638D013B9BB2638541462D
:103720003B462046C8E7324639462046FFF712FBA3
:1037300000287FF45AAF23681A69636A1A70626AB4
:10374000531C6362238D013B2385638D013B9BB238
:1037500063852368596949077FF571AFC3E700BFE7
:10376000020010000000FFFF0400010070477047D6
:103770007047704790F83D2008B5036DD2B283B909
:10378000C36C0268012B836C05D1DBB21361036D3E
:103790000233036508BDC3F307231361036D0133CF
:1037A000F7E7036D012B03D1836C0268DBB2F4E70A
:1037B000036D022BEED1222A05D10268136843F46F
:1037C00080731360E6E7438D9BB263B1212A0AD16F
:1037D000436A026813F8011B11614362438D013B88
:1037E0009BB24385D6E7438D9BB2002BD2D1212AD1
:1037F000D0D10268516821F4E0615160116841F450
:10380000007111602022036380F83D2080F83E3073
:10381000FDF7B0F9BEE710B5846B636B0BB1002206
:10382000DA63A36B0BB10022DA63FEF772FF0228A2
:1038300012D02268136823F48063136000232022CF
:10384000638584F83D2084F83E30236C43F01003F8
:1038500023642046FDF790F910BD70B5846B236892
:1038600094F83D2094F83E00E16A5D6825F44075C7
:103870005D60656BD2B2C0B20DB10026EE63A56B80
:103880000DB10026EE6302F02105212D05D002F0D6
:103890002205222D23D1202821D1596821F400614D
:1038A0005960292A4FF0000363850DD1212323633A
:1038B000282384F83D302046FFF758FF22685368DC
:1038C00043F44073536070BD2A2AF7D12223236347
:1038D000282384F83D302046FFF749FFEEE794F8AF
:1038E0003E20002AEFD0628D92B2012A02BF1A68F0
:1038F00022F480621A605A6811F5803F22F4407207
:103900005A6006D0082904D0B1F12A4F01D02029ED
:1039100003D11A6842F400721A605A6822F4805285
:103920005A605A6822F400625A6000236385236C4F
:103930001BB12046FDF720F9C5E7202284F83D2081
:1039400094F83E2084F83E30402A04D12363204678
:10395000FDF716F9B7E7122323632046FDF706F9B2
:10396000B1E7000037B50023806B019390F83D204C
:103970002B4BD1B21B6846F2A812B3FBF2F2232301
:10398000534301930368019A42BB026C42F0200248
:103990000264456B0DB10022EA63846B0CB1002216
:1039A000E2631A6822F480621A600022428505B13F
:1039B0002A6504B122651A6822F001021A6090F8A3
:1039C0003D20602A11D1202380F83D30002380F86B
:1039D0003E300364FDF7D2F803B030BD019A013ADE
:1039E00001921A689205CED4D3E701F02802282A62
:1039F0000ED1196841F001011960196841F4806124
:103A000019600023036380F83D20FDF7B5F8E3E774
:103A1000202380F83D30002380F83E30F5E700BFDA
:103A20000800002090F83D2090F83E100368C9B2CD
:103A3000102910B5D2B2044601D0402905D1222A5E
:103A400002BF196821F40061196002F028012829D9
:103A50003DD10022226384F83D105A6812F40062BE
:103A60005DD05A68606B22F400625A6090F835307D
:103A7000012B3E4B39D00365FEF778FD50B122682B
:103A8000606B136823F001031360202384F83D303A
:103A9000036D9847236C19071FBF2268536823F4EE
:103AA000E063536094F83D30226C5207DBB20DD5D1
:103AB000282B0BD12E4BE3622022002323632046C8
:103AC00084F83D2084F83E30FFF753FE10BD59685E
:103AD00011F4006106D1602A1EBF202284F83D2027
:103AE00084F83E1000222263B7E7A06B0365FEF75F
:103AF0003DFD0028CED023685A69510605D51A69C4
:103B0000636A1A70636A013363622268A06B136888
:103B100023F001031360202384F83D30B8E794F8C4
:103B20003D10602915D1202184F83D1022645A6986
:103B3000520605D51A69636A1A70636A01336362B3
:103B40002268136823F0010313602046FDF716F87E
:103B5000A0E75A69500605D51A69636A1A70636A44
:103B6000013363622046FDF707F893E765390108E2
:103B70000000FFFF036870B55A68C66A90F83E50AF
:103B80000446EDB290F83D00102D8CB0C0B202D0CA
:103B9000402D40F0D6829869596911F0010F07D184
:103BA000B6F52A0F02D0B6F12A4F50D10CB070BD35
:103BB00096054CD5E26AB2F52A0F0CD10122E262D9
:103BC00094F83E20402A11D1226D52B9626C02F065
:103BD000FE021A61EAE7E26AB2F12A4FF0D1082246
:103BE000EDE7626C42F00102D2B2F2E72269B2F56F
:103BF000804F19D194F83D20212A626C16BF42F003
:103C0000010202F0FE02D2B21A61626B0AB1D26BFB
:103C10002AB9A26B002AC9D0D26B002AC6D05A6832
:103C200042F400625A60C1E7226D32B9626CD2116F
:103C300002F0060242F0F002CBE7226D012AB5D174
:103C4000626CD21102F0060242F0F102C1E70E07E7
:103C50000ED596050CD5626CD2B21A61626B12B9A0
:103C6000A16B0029A2D0D26B002AD8D1A26BD3E7D6
:103C70008E0740F1DD80960540F1DA8094F83E1021
:103C8000E26A256B94F83D002228C9B240F0C88052
:103C9000206D40B9402906D100905A6900929B6975
:103CA0000093009B82E7216D89B92069B0F5404FF0
:103CB0000DD101915A6901929A690192019A1A688B
:103CC00042F480721A60236D013323656EE7618DC3
:103CD00089B251B902915A6902929A690292029A82
:103CE0001A6842F400721A6019E0618D89B20129E4
:103CF00049D112F5803F1BD11A6822F480621A6004
:103D00005A6812F400620CD01A6822F480621A60B9
:103D1000002203925A6903929B690393039B002339
:103D2000D3E704925A6904929A690492049AD7E7F5
:103D3000082A1CD0202A1AD0122D0DD1012A16D102
:103D40001A6822F480621A60002205925A6905926C
:103D50009B690593059BE2E7102AF1D8974921FA60
:103D600002F2D507ECD51A6842F48062EBE71A68D4
:103D700022F480621A60002206925A6906929A69B9
:103D80000692069AACE7618D89B202292AD1102ADF
:103D900003D88A49D140C80720D4196821F480612A
:103DA0001960196841F400611960596809050DD559
:103DB00012F5803F06D0511E1F2907D8804ACA40FD
:103DC000D20703D55A6842F480525A600022079203
:103DD0005A6907929B690793079BA0E7196841F40A
:103DE0008061E1E7196841F48061196059680E0546
:103DF0000ED512F5803F07D0013A1F2A08D8704926
:103E000021FA02F2D50703D55A6842F480525A606B
:103E1000002208925A6908929B690893089B7EE7E2
:103E2000002209925A6909929B690993099BBDE690
:103E300010F0040F586800F0988000053FF5B6AE0A
:103E40000E06C1F3800055D5510553D5002854D135
:103E500094F83D20258D94F83E10E06AD2B2C9B2A4
:103E60007DBB212A2FD1082814D0202812D010F58C
:103E7000803F0FD05A6822F4E0625A601123236316
:103E8000002384F83E30202384F83D302046FCF7A0
:103E90006FFE8BE65A6822F4E0625A601A6842F4B8
:103EA00000721A6000232022236384F83D2094F8D6
:103EB0003E2084F83E30402A2046E8D1FCF75AFEE6
:103EC00074E6212A05D040297FF470AE222A7FF4BF
:103ED0006DAE628D92B21AB95A6822F48062A1E680
:103EE00094F83E20402A16D120460CB0BDE8704020
:103EF000FFF740BC00283FF459AE92057FF556AE5F
:103F0000102DF1D1E16A94F83D20212A7FF44EAEC4
:103F1000628D92B24AB1626A12F8011B1961626243
:103F2000638D013B9BB2638540E608290DD02029B3
:103F30000BD011F5803F08D0596821F4E061596039
:103F40001123236384F83E209DE75A6822F4E0623F
:103F50005A601A6842F400721A6000232022236318
:103F600084F83D2084F83E3090E706053FF51EAE0C
:103F70004D06C1F380007AD5510578D5002879D156
:103F800094F83D20222A7FF411AE628D92B2032A6A
:103F900018D91A69636A1A70636A01336362638DA0
:103FA000013B9BB26385638D9BB2032B7FF4FEAD17
:103FB0002268536823F480635360F7E5140001001E
:103FC00081800080E16A02293FF4F0AD012A3FF6CA
:103FD000EDAD734A0A90126846F2A811B2FBF1F2F5
:103FE00002EB82020A920A9A013A0A920A99D1B91C
:103FF000226C42F0200222645A6822F4E0625A6085
:104000001A69636A1A70636A01336362638D013BE4
:104010009BB26385202384F83D30204684F83E100F
:10402000FCF7AAFDC2E51A6812F40072DBD1196828
:1040300021F480611960596821F4E06159601969BF
:10404000636A1970636A01336362638D013B9BB2DB
:104050006385202384F83D3094F83E3084F83E2078
:10406000402B68D122632046FCF78AFD9EE500289C
:104070003FF49CAD92057FF599ADE26A608D616A6F
:1040800080B2042809D15A6822F480625A601B6900
:104090000B70636A0133636242E7608D80B203286C
:1040A0000CD15868042A20F480605860EFD0022AAE
:1040B000EDD01A6822F480621A60E8E7608D80B261
:1040C0000228E4D1012A01D0102A28D11A6822F44A
:1040D00080621A601B690B70626A531C6362638D95
:1040E000013B9BB2638523681B695370636A226836
:1040F00001336362638D013B9BB26385536823F494
:1041000040735360202384F83D3094F83E30402BB8
:104110004FF0000384F83E300DD12363A3E7042A57
:1041200001D0022A03D11A6842F48062D1E71A68EA
:1041300042F40072CDE7122323632046FCF716FDFC
:1041400034E5216C11B3596900258E072AD59605EF
:1041500028D5226C02B19D6994F83D2002F0280216
:10416000282A16D15A6822F480625A606FEA9501B3
:104170002B064FF0000301F0010154BFA289228BEE
:1041800084F83C302046FFF7F3FA0FE59D69596942
:10419000DBE76FF002025A61002384F83C3005E54A
:1041A00008000020CE0640F1B180950540F1AE80B8
:1041B00094F83D505A6822F4E0625A6000220B9253
:1041C0005A690B921A6842F001021A600B9A1A6837
:1041D00022F480621A605A681205EDB220D505F00B
:1041E000F702222A4AD1A06B0268526892B2628515
:1041F000628D92B21AB1226C42F0040222645A68B3
:1042000022F400625A60FEF781FA012808D0A06B00
:10421000794B0365FEF7AAF910B1A06B036D9847BF
:10422000638D9BB213B323685A69560709D51A697F
:10423000636A1A70636A01336362638D013B9BB2E8
:10424000638523685A69500609D51A69636A1A702A
:10425000636A01336362638D013B9BB26385638D47
:104260009BB21BB1236C43F004032364236C13B390
:1042700020460CB0BDE87040FFF7D4BB606B02680D
:10428000526892B26285628D92B21AB1226C42F08B
:10429000040222645A6822F400625A60FEF736FA79
:1042A0000128BDD0606B544B0365FEF75FF9002811
:1042B000B6D0606BB2E72A2D06D12363282384F899
:1042C0003D302046FFF753FA94F83D30282B0CD1AF
:1042D0004A4BE362202200232363204684F83D20DA
:1042E00084F83E30FFF745FA60E4236B222B02D0BE
:1042F000222D7FF45BAC00232022236384F83D2031
:1043000084F83E302046FFF732FA4FE400F0F70021
:104310002128C1F3800535D1090627D5560525D5B5
:104320003DBB94F83D10628D92B2C9B2002A3FF4B1
:104330003DAC626A12F8015B1D616262628D013AF6
:1043400092B26285628D92B2002A7FF42FAC292945
:104350007FF42CAC5A6822F480625A6028232063D0
:1043600084F83D302046FFF701FA1FE4002D3FF4AA
:104370001DAC95057FF51AAC628D92B2002A7FF4D0
:10438000CAAD13E4480627D5510525D53DBB94F8A1
:104390003D20618D89B2D2B200293FF407AC196982
:1043A000636A1970636A01336362638D013B9BB278
:1043B0006385638D9BB2002B7FF4F8AB2A2A7FF4D0
:1043C000F5AB2268536823F4806353602223236390
:1043D000282384F83D3095E7002D3FF4E7AB9205A4
:1043E0007FF5E4AB628D92B2002A3FF4DFAB1A692D
:1043F000636A1A704DE600BF653901080000FFFFCF
:10440000F8B503685F695E6890F83E20C7F3002541
:104410000446D2B235B1C6F300251DB16FF48071E8
:1044200059610125B80506D5F10542BF6FF4007149
:1044300045F002055961780536D5F10534D5608D12
:1044400094F83D10D4F830C0202A80B2C9B25BD1B4
:10445000002859D101F0F700212804D0282953D190
:10446000BCF1210F50D194F83D20E16A0829D2B265
:1044700001D020292AD1282A28D12C4AE2625A6860
:1044800022F4E0625A606FF480625A611A6822F482
:1044900080621A60002320222363204684F83D2096
:1044A00084F83E30FFF765F93A053BD5F30539D579
:1044B00023686FF4006245F008055A61236C1D43C0
:1044C00025642046BDE8F840FFF7ACBA212A17D191
:1044D0001649E1622263202284F83D20002284F8FC
:1044E0003E205A6822F4E0625A606FF480625A619A
:1044F0001A6822F480621A602046FFF737F9D3E782
:104500006FF480625A61CFE76FF48061102A5961BD
:1045100045F0040501D0402AC6D11A6842F4007261
:104520001A60C1E7002DC9D1F8BD00BF0000FFFF30
:1045300038B50446D8B103684CF6CC421A6045F24F
:1045400055521A6042685A6082689A60FDF762FAB2
:1045500005462368D86818B94AF6AA221A6038BDF9
:10456000FDF758FA401B3028F3D90320F7E7012064
:10457000F5E703684AF6AA221A6000207047F0B5F2
:1045800004468BB060B390F8BD33056803F0FF02BA
:104590001BB980F8BC230AF035FA032384F8BD3335
:1045A000EB6B254613F4807355F8100B08BF23619D
:1045B00001F042FB0FCD6E460FC60FCD0FC695E83A
:1045C000030086E803002546271D97E80E0055F8EE
:1045D000100B01F077FA064620B1022384F8BD33B0
:1045E000012550E00146206801F02CFB3046D4F84C
:1045F00004C01C264FF0010E0146C2B2944500F1E2
:1046000001001CD800231C261946D8B2844503F1AA
:10461000010322D80FCD6E460FC60FCD0FC695E809
:10462000030086E8030097E80E00206801F04CFBC9
:104630000123054600B3022284F8BD23D0E706FB20
:104640000243C3E9111183F83DE083F83C20A3F84D
:10465000422083F83F101965CFE706FB004282F83D
:10466000FD1182F8FC0182F8FF11C2F80412C2F8B1
:104670000812C2F81012C8E784F8380084F8BD3375
:10468000206801F057FE28460BB0F0BD90F8BC330F
:10469000012B10B5044616D00123006884F8BC3302
:1046A000A36A012B06D1A369012B1EBF836B43F4C0
:1046B0008033836301F0BAFA206801F02DFE0020F8
:1046C00084F8BC0310BD0220FCE700002DE9F04F88
:1046D000056887B00446284601F069FE029000286C
:1046E00040F02181206801F033FE002800F01B819A
:1046F000206801F02DFE820748BF2268206842BF73
:10470000536903F00203536101F022FEC3062AD568
:104710002268936923F0100393612E6AC6F3434322
:10472000022B06F00F0840F0018147F6F0731E429D
:1047300014D01C2707FB0847C6F30A163246D7F8E1
:104740000812284601F076FDD7F808323344C7F83E
:104750000832D7F814321E44C7F8146222689369ED
:1047600043F010039361206801F0F2FD070300F1AC
:10477000EC80206801F0ECFD46030BD5206801F0C9
:10478000F3FD26468246002705F51069BAF1000FB1
:1047900040F08981206801F0DBFD002815DAD5F8AA
:1047A000043823F00103C5F8043894F8F433012BDE
:1047B00040F01482002184F8F413204600F099FBA5
:1047C0002268536903F000435361206801F0C0FD83
:1047D00001050BD5D5F80838DA0702D520460AF0CE
:1047E00081F92268536903F400635361206801F082
:1047F000AFFDC30435D505F500667368206823F066
:1048000001037360102101F035FA606805F510634B
:104810004FF67F31029A904240F0E481F36943F011
:104820000113F361236B002B00F0F881D6F884307C
:1048300043F00B03C6F88430736C43F00B037364CE
:10484000D5F80038217C206823F4FE63C5F80038D1
:1048500004F5717201F0C0FD2268536903F48053BE
:104860005361206801F074FD870416D5206801F0BB
:10487000A2FD206801F0E2FAE060256800F0A8FDE2
:10488000227B0146284601F05DF920460AF017F91F
:104890002268536903F400535361206801F058FD06
:1048A000060707D520460AF006F92268536903F087
:1048B00008035361206801F04BFDC50208D50021B3
:1048C00020460AF02FF92268536903F480135361DC
:1048D000206801F03DFD800208D5002120460AF045
:1048E0001DF92268536903F400135361206801F035
:1048F0002FFD410007D520460AF018F922685369B8
:1049000003F080435361206801F022FD42070AD57D
:1049100023685D686B0702D520460AF00BF9226810
:1049200053682B43536007B0BDE8F08F062B7FF42C
:1049300015AF082204F5717128461C2701F07AFC96
:1049400007FB0847C6F30A1603E72068DFF8E4927E
:10495000DFF8E4B201F000FD00268046B8F1000F58
:104960003FF407AF18F0010F61D05FFA86FA5146A5
:10497000206801F001FD0746F8071CD5730105F515
:1049800030621A4420680121916000F5306221698B
:10499000D0F840C0134401299A686DD1110706D59B
:1049A000CC4508D9100406D54FF4004202E0910628
:1049B00041D520229A60380720D5730105F5306271
:1049C0001A44082191602268D2F840A002F53062B2
:1049D0001344CA459A6804D9110444BF4FF40042F5
:1049E0009A6020460AF050F8CA4507D92169012982
:1049F00004D104F57172206801F0EEFCFA0641BFA3
:104A000005F5306303EB461310229A60BB0641BFE5
:104A100005F5306303EB461320229A60B80441BFCA
:104A200005F5306303EB46134FF400529A600136EC
:104A30004FEA580892E712F0280FBCD1CC4501D9B3
:104A40001204B1D41C2202FB06421B69D2F80412E4
:104A5000C3F31203CB1AC2F81432D2F80832194445
:104A6000C2F8081286B9D4F810326BB904F5717225
:104A7000012101F0B1FC07E0DC450AD1110493D417
:104A8000920601D520229A60514620460AF002F88B
:104A900091E7002EF8D1D4F81032002BF4D104F5B0
:104AA00071723146E5E71AF0010F74D05FFA87FBA7
:104AB0005946206801F069FC10F0010F804620D0B3
:104AC000D5F834382169012007F00F0200FA02F20C
:104AD00023EA0203C5F8343809EB47138142986092
:104AE0000BD1D6E911231344B36437B9236D23B92D
:104AF00004F57172206801F06FFC5946204609F0F8
:104B0000D2FF18F0080F1EBF09EB471308229A6066
:104B100018F0100F1EBF09EB471310229A6018F00F
:104B2000400F1EBF09EB471340229A6018F0020F96
:104B30001EBF09EB471302229A6018F0800F2AD09B
:104B4000D6E914329A4226D89B1A726C21680391D6
:104B5000934228BF134603339B08049301F5106367
:104B600003EB47130593059B0498996989B2814229
:104B7000D6E9143214D293420DD8039B07F00F02EA
:104B800003F5006B0121D3F8343801FA02F223EA6D
:104B90000203CBF8343001374FEA5A0A1C36F5E5E8
:104BA0009342EAD9002BE8D0A3EB0208736C039878
:104BB000984528BF984608F103039B080493237C7B
:104BC00000935A461FFA88F3B16C01F047FAB36CB0
:104BD0004344B364736D43447365C4E7204609F0EE
:104BE00099FFEDE599601A6822F400121A601A68BC
:104BF00042F000621A60C3F80812D3F8002222F4CF
:104C00000012C3F80022D3F8002242F00062C3F879
:104C10000022029A013202922033FBE5736943F4C9
:104C2000005343F02B037361336943F00B0333618B
:104C300006E600BF0A30544F0A31544F90F8BC23A7
:104C4000012A10B504460BD0012280F8BC2384F859
:104C50003810006801F050FB002084F8BC0310BD40
:104C60000220FCE770B501F00F05044611F0800F3B
:104C7000C5EBC5004FEA80004FF01C061FD006FBB5
:104C8000054600F13C010120214486F83D008A6080
:104C90004A780D70CB7002B1CD80022B04BF002387
:104CA0000B7194F8BC33012B12D0012384F8BC3370
:104CB000206801F0CEF8002084F8BC0370BD06FB2C
:104CC000054600F5FE710020214486F8FD01DEE76F
:104CD0000220F3E710B5044601F00F00C0EBC0035B
:104CE00011F0800F4FEA83034FF01C0216D002FB35
:104CF000004203F13C010123214482F83D30087059
:104D000094F8BC33012B12D0012384F8BC33206803
:104D100001F0DEF8002084F8BC0310BD02FB004265
:104D200003F5FE710023214482F8FD31E7E70220FC
:104D3000F3E738B501F00F051C2404FB050104FB63
:104D4000050401F5FE71C4F810320023C4F80822EE
:104D5000C4F8143284F8FD3184F8FC51036900680A
:104D6000012B08BFC4F80C22DAB21DB901F002F918
:104D7000002038BD01F086F9FAE71C2301F00F018D
:104D800003FB0101D1F81402704738B501F00F059B
:104D90001C2404FB050104FB05043C3123650023AE
:104DA00063650123A26484F83D3084F83C500369B4
:104DB0000068012B08BFE264DAB21DB901F0DAF82D
:104DC000002038BD01F05EF9FAE738B5436801F01C
:104DD0000F059D4204462ED811F0800F4FF01C02A3
:104DE0001FD002FB050102FB050301223C3381F8C1
:104DF0003D2001229A701D7094F8BC1391421CD082
:104E000084F8BC231946206801F022FA2DB904F574
:104E10007172217C206801F0DFFA002084F8BC0365
:104E200038BD02FB010302FB0101002203F5FE7302
:104E300081F8FD21DDE70120F2E70220F0E738B537
:104E4000436801F00F029A4204462AD8C2EBC2031B
:104E500011F0800F4FEA83034FF01C0018D000FBC5
:104E6000024003F13C010123214480F83D3000253C
:104E70008D700A7094F8BC33012B14D0012384F890
:104E8000BC33206801F00FFA84F8BC53284638BDC3
:104E900000FB024003F5FE710023214480F8FD3140
:104EA000E5E70120F3E70220F1E7006870B512049E
:104EB000446A19B922438262002070BD836A4D1E84
:104EC00004EB134400235E1CDBB29D4205D83F3146
:104ED00000EB810022434260EEE7403300EB8303A6
:104EE0005B6804EB13443346EDE703680020596226
:104EF000704770472DE9F341044608B901203FE0AF
:104F00000368DD0710D4236898075AD423681A076A
:104F100000F19C8023685B0700F1BA80A06900283B
:104F200040F01B8100202BE0A74B9A6802F00C0296
:104F3000042A07D09A6802F00C02082A0AD15B689A
:104F4000590207D5A04B1B689A03DCD56368002B78
:104F5000D9D1D3E763689C4DB3F5803F13D12B685B
:104F600043F480332B60FCF755FD974D06462B68C4
:104F70009B03C8D4FCF74EFD801B6428F7D903209F
:104F800002B0BDE8F081B3F5A02F04D12B6843F443
:104F900080232B60E3E72A6822F480322A602A68A3
:104FA00022F480222A60002BDDD1FCF733FD064677
:104FB0002B689F03A7D5FCF72DFD801B6428F7D92C
:104FC000DDE7814B9A6812F00C0F07D09A6802F067
:104FD0000C02082A11D15B685E020ED47A4B1A6863
:104FE000950702D5E268012A88D11A68216922F062
:104FF000F80242EAC1021A6088E7E268734BB2B174
:1050000001221A60FCF706FD6F4D06462B689807D3
:1050100007D52B68226923F0F80343EAC2032B600B
:1050200074E7FCF7F7FC801B0228EFD9A7E71A60AA
:10503000FCF7F0FC644D06462B6899077FF566AFD8
:10504000FCF7E8FC801B0228F6D998E76269604B00
:105050007AB101221A60FCF7DDFC5B4D06466B6FEE
:105060009F073FF557AFFCF7D5FC801B0228F6D908
:1050700085E71A60FCF7CEFC534D06466B6F980728
:105080007FF548AFFCF7C6FC801B0228F6D976E70F
:105090004D4B1A6C12F0805228D101921A6C42F0DA
:1050A00080521A641B6C03F080530193019B01260C
:1050B000484D2B68D9051BD5A368434D012B27D13B
:1050C0002B6F43F001032B67FCF7A4FC3E4D074612
:1050D00041F288382B6F9B0739D5002E3FF41EAF65
:1050E000394A136C23F08053136417E70026DFE777
:1050F0002B6843F480732B60FCF78CFC07462B680D
:10510000DA05D9D4FCF786FCC01B0228F7D936E7AC
:10511000052B04D12B6F43F004032B67D0E72A6FD4
:1051200022F001022A672A6F22F004022A67002B6C
:10513000CAD1FCF76FFC41F2883807462B6F9807FD
:10514000CBD5FCF767FCC01B4045F7D917E7FCF748
:1051500061FCC01B4045BDD911E71B4DAB6803F096
:105160000C03082B47D01C4E00230228336035D196
:10517000FCF750FC07462B6899011ED4D4E907328E
:105180001343626A43EA8213E26A43EA0263A26A51
:105190000D4C5208013A43EA02436B60012333602D
:1051A000FCF738FC054623689A013FF5BBAEFCF7D7
:1051B00031FC401B0228F6D9E1E6FCF72BFCC01BB2
:1051C0000228D8D9DBE600BF003802400000474281
:1051D000800E47420070004060004742FCF71AFC16
:1051E00004462B689B017FF59DAEFCF713FC001B6A
:1051F0000228F6D9C3E601283FF4C2AE6868E36925
:1052000000F480029A427FF479AE226A00F03F03F4
:1052100093427FF473AE626A47F6C07303409342D1
:105220007FF46CAEA26A00F4403393427FF466AE22
:10523000E36A00F07060C01A18BF0120A0E600BF4A
:10524000134908B58B6803F00C03042B03D0082B1B
:1052500003D0104800E0104808BD4A684B68496810
:1052600013F4800314BF0C480A48C1F3881118BF17
:10527000002302F03F02A1FB0001FBF769F8044B99
:105280005B68C3F3014301335B00B0FBF3F0E3E77A
:10529000003802400024F40000127A002DE9F041A9
:1052A0000D46044610B90120BDE8F081434B1A6851
:1052B00002F00F028A4228D321688F072DD4C80735
:1052C00040D43E4B1A6802F00F02AA4265D8226809
:1052D00051076BD4130707D5394A2169936823F422
:1052E000604343EAC1039360FFF7AAFF344B354A9A
:1052F0009B68C3F30313D35CD840334B1860334B24
:105300001868FCF767FA0020CEE7CAB21A701B686B
:1053100003F00F038B42C6D1CEE7294B11F0040FE7
:105320001EBF9A6842F4E0529A600E0742BF9A6824
:1053300042F460429A609A68A06822F0F002024348
:105340009A60BCE762681E4B012A1CD11B6813F4EB
:10535000003FA8D01A4EB36823F003031343B36091
:10536000FCF758FB41F288380746B368626803F0DF
:105370000C03B3EB820FA4D0FCF74CFBC01B4045E1
:10538000F3D9032090E7911E01291B6802D813F07E
:10539000007FDEE713F0020FDBE7EAB21A701B684A
:1053A00003F00F03AB427FF47EAF90E70449E0685F
:1053B0008B6823F4E05303438B608BE7003C02408F
:1053C0000038024023FC01080800002010000020E3
:1053D000014B1868704700BF08000020044B054AC5
:1053E0009B68C3F38223D35C034A1068D84070479C
:1053F0000038024033FC0108080000200F2303603E
:105400000B4B9A6802F0030242609A6802F0F002C5
:1054100082609A6802F4E052C2609B68DB0803F481
:10542000E0530361034B1B6803F00F030B607047ED
:1054300000380240003C0240036A23F0010303628B
:10544000036A70B5446882690D6822F073022A43CA
:105450008D6823F002032B430A4DA8420BD1CD687F
:1054600023F008032B43D1E9055624F44074354357
:1054700023F004032C43446082614A684263036260
:1054800070BD00BF00000140036A23F48073036213
:10549000036A70B54468C2690D6822F073022A433A
:1054A0008D6823F4007343EA05230B4DA8420DD108
:1054B000CD6823F4006343EA0523D1E9055624F4BB
:1054C0004054354323F4806344EA05144460C261C8
:1054D0004A68C263036270BD00000140036A23F49E
:1054E00080530362036A30B54468C2690D6822F4D0
:1054F000E64242EA05228D6823F4005343EA05336D
:10550000064DA84202BF4D6924F4804444EA851444
:105510004460C2614A680264036230BD0000014019
:1055200070470368DA6842F00102DA609A6802F0B4
:105530000702062A1EBF1A6842F001021A60002004
:10554000704770477047704703681A69910710B534
:1055500004460ED5DA6892070BD56FF002021A6185
:105560009B6901229B07027777D0FFF7EBFF0023AF
:10557000237723681A69500710D5DA6851070DD5CB
:105580006FF004021A619B69022213F4407F2277B4
:10559000204668D0FFF7D6FF0023237723681A69D7
:1055A00012070FD5DA6810070CD56FF008021A61E0
:1055B000DB6904229907227720465AD0FFF7C2FF01
:1055C0000023237723681A69D20610D5DA68D0063B
:1055D0000DD56FF010021A61DB69082213F4407FC9
:1055E000227720464BD0FFF7ADFF002323772368B7
:1055F0001A69D10708D5DA68D20705D56FF001021C
:105600001A612046FBF7B8FE23681A69100608D510
:10561000DA68110605D56FF080021A61204600F0A5
:1056200038FA23681A69520608D5DA68500605D593
:105630006FF040021A612046FFF785FF23681A6960
:10564000910622D5DA6892061FD56FF02002204617
:105650001A61BDE8104000F01BBAFFF772FF204648
:10566000FBF7B8F883E7FFF76CFF2046FBF7B2F8CB
:1056700092E7FFF766FF2046FBF7ACF8A0E7FFF7DD
:1056800060FF2046FBF7A6F8AFE710BD244A036889
:1056900090420ED0B0F1804F0BD0A2F57C429042E8
:1056A00007D002F58062904203D002F580629042FA
:1056B00015D14A6823F070031343194A904219D058
:1056C000B0F1804F16D0A2F57C42904212D002F584
:1056D000806290420ED002F5806290420AD0114A58
:1056E000904207D002F58062904203D002F58062BA
:1056F000904203D1CA6823F4407313434A6923F0EC
:105700008003134303608B68C3620B688362044B9E
:10571000984204BF0B69036301234361704700BFD4
:10572000000001400040014010B50446A0B190F8CF
:105730003D3003F0FF021BB980F83C20FFF7F0FE7C
:10574000022384F83D302068211DFFF79FFF0123CD
:1057500084F83D30002010BD0120FCE710B5044660
:10576000A0B190F83D3003F0FF021BB980F83C2057
:10577000FBF7A0FF022384F83D302068211DFFF7CE
:1057800085FF012384F83D30002010BD0120FCE797
:10579000036A23F010030362036A70B544688269E8
:1057A0000D6822F4E64242EA05228D6823F02003C8
:1057B00043EA05130B4DA8420DD1CD6823F08003B9
:1057C00043EA0513D1E9055624F44064354323F038
:1057D000400344EA8504446082614A68826303624C
:1057E00070BD00BF0000014038B590F83C30012B7F
:1057F00004464FF0020025D0012384F83C3084F8A1
:105800003D000C2A18D8DFE802F0071717171E17FB
:1058100017172F17171740002068FFF70DFE236892
:1058200009699A6942F008029A619A6922F00402B1
:105830009A619A690A439A610123002084F83D30F5
:1058400084F83C0038BD2068FFF7A2FF236809698F
:105850009A6942F400629A619A6922F480629A61BC
:105860009A6942EA0122E6E72068FFF70DFE236805
:105870000969DA6942F00802DA61DA6922F00402A1
:10588000DA61DA690A43DA61D6E72068FFF726FEB3
:1058900023680969DA6942F40062DA61DA6922F49C
:1058A0008062DA61DA6942EA0122ECE7036A01F018
:1058B0001F0110B501248C4023EA04030362036A2C
:1058C0008A401A43026210BD10B5044601220068E6
:1058D000FFF7ECFF2368094A934202BF5A6C42F477
:1058E00000425A649A6802F00702062A1EBF1A682C
:1058F00042F001021A60002010BD00BF000001400C
:10590000FFF7E2BF10B5044600680C290CD8DFE8A9
:1059100001F0070B0B0B210B0B0B250B0B0B2900BD
:10592000C36843F00203C3600122FFF7BFFF23688F
:105930000E4A934202BF5A6C42F400425A649A687B
:1059400002F00702062A1EBF1A6842F001021A601E
:10595000002010BDC36843F00403E4E7C36843F0CC
:105960000803E0E7C36843F01003DCE700000140F0
:10597000FFF7C8BF10B5044600220068FFF796FF86
:105980002368124A93420DD1196A41F21112114251
:1059900008D1196A40F24442114202BF5A6C22F403
:1059A00000425A64196A41F21112114208D1196A6F
:1059B00040F24442114202BF1A6822F001021A600A
:1059C000012384F83D30002010BD00BF00000140DD
:1059D00090F83C30012B30B54FF002032DD080F809
:1059E0003D3003680D685C6824F0700401222C438C
:1059F00080F83C209A685C60114CA34212D0B3F14D
:105A0000804F0FD0A4F57C44A3420BD004F58064F2
:105A1000A34207D004F58064A34203D004F59A346E
:105A2000A34204D1496822F080020A439A6001230C
:105A300080F83D30002380F83C30184630BD00BF70
:105A40000000014090F83C30012B1FD0CB688A68E1
:105A500023F4407313434A6823F4806313430A68B2
:105A600023F4006313430A6923F4805313434A6900
:105A700023F400531343CA6923F480431343026899
:105A80005364002380F83C3018467047022070476A
:105A9000704770470A4B013B0FD00269002AFADABF
:105AA0000369074A43F001030361013A05D0036922
:105AB00013F00103F9D1184670470320704700BF67
:105AC000410D030084B038B505AD85E80E000A9B92
:105AD000012B044625D1836B23F480338363C36891
