:020000040801F1
:1000000000000120091C0108491A01084B1A0108C7
:100010004D1A01084F1A0108511A0108000000008A
:1000200000000000000000000000000001CF0108F7
:10003000531A010800000000A1CF010805D00108F3
:10004000591C0108591C0108591C0108591C0108B8
:10005000591C0108591C0108591C0108551A0108AE
:10006000591C0108591C0108591C0108611A010892
:10007000591C0108591C0108591C0108591C010888
:10008000591C0108711A0108811A010800000000BA
:10009000000000000000000000000000591C0108E2
:1000A000591C0108911A0108591C0108A11A0108DC
:1000B000591C0108B11A0108C11A0108D11A010816
:1000C000E11A0108591C0108591C0108591C0108B2
:1000D000591C0108591C0108591C010800000000A6
:1000E000591C0108591C0108591C01080000000096
:1000F000000000000000000000000000591C010882
:1001000000000000591C0108591C0108591C010875
:1001100000000000000000000000000000000000DF
:10012000F11A0108591C0108591C0108591C010841
:10013000591C010800000000000000000000000041
:10014000000000000000000000000000011B01088A
:10015000591C0108591C0108591C0108591C0108A7
:10016000111B0108211B0108000000000000000015
:10017000000000000000000000000000000000007F
:1001800000000000591C01080000000000000000F1
:04019000591C0108ED
:1001A00010B5054C237833B9044B13B10448AFF3B1
:1001B00000800123237010BD6C02002000000000AD
:1001C0004C62020808B5034B1BB103490348AFF367
:1001D000008008BD00000000700200204C62020890
:1001E00010F8012B11F8013B012A28BF9A42F7D0E1
:1001F000D01A7047034613F8012B002AFBD1181AB6
:1002000001387047000000000000000000000000FE
:1002100001F0FF01102A2BDB10F0070F08D010F8B7
:10022000013B013A8B422DD010F0070F42B3F6D1BB
:10023000F0B441EA012141EA014122F007047FF0D4
:1002400000070023F0E80256083C85EA010586EA2B
:10025000010685FA47F5A3FA87F586FA47F6A5FA67
:1002600087F68EB9EED1F0BC01F0FF0102F0070273
:1002700032B110F8013B013A83EA010313B1F8D11E
:100280000020704701387047002D06BF35460338FF
:10029000073815F0010F07D1013015F4807F02BF38
:1002A000013015F4C03F0130F0BC0138704700BF89
:1002B0007BB972B90029BEBF00204FF0004106E0B3
:1002C00008BF00281CBF6FF000414FF0FF3000F066
:1002D000B9B9ADF1080C6DE904CE002909DB002B9A
:1002E0001ADB00F04DF8DDF804E0DDE9022304B08C
:1002F0007047404261EB4101002B1BDB00F040F8EE
:10030000DDF804E0DDE9022304B0404261EB410185
:10031000524263EB43037047524263EB430300F0E6
:100320002FF8DDF804E0DDE9022304B0404261EB80
:1003300041017047524263EB430300F021F8DDF8BE
:1003400004E0DDE9022304B0524263EB430370474B
:1003500053B94AB9002908BF00281CBF4FF0FF312C
:100360004FF0FF3000F06EB9ADF1080C6DE904CE2E
:1003700000F006F8DDF804E0DDE9022304B0704780
:100380002DE9F047089D04468C46002B40F0838001
:100390008A42174647D9B2FA82F242B1C2F120002E
:1003A00024FA00F09140974040EA010C94404FEA53
:1003B0001748230CBCFBF8F61FFA87FE08FB16C192
:1003C00043EA014306FB0EF1994209D9FB1806F1F5
:1003D000FF3080F01981994240F21681023E3B4481
:1003E0005B1AA4B2B3FBF8F008FB103344EA0344F1
:1003F00000FB0EFEA64509D93C1900F1FF3380F041
:100400000581A64540F2028102383C4440EA06409C
:10041000A4EB0E0400261DB1D4400023C5E900431F
:100420003146BDE8F08702B9FFDEB2FA82F2002A57
:1004300050D1CB1B4FEA174E1FFA87F80126B3FBAA
:10044000FEFC210C0EFB1C3341EA034108FB0CF3BC
:100450008B4207D979180CF1FF3002D28B4200F29F
:10046000E9808446C91AA3B2B1FBFEF00EFB10115D
:1004700043EA014408FB00F8A04507D93C1900F104
:10048000FF3302D2A04500F2D9801846A4EB08043D
:1004900040EA0C40BFE78B4209D9002D00F0B18043
:1004A0000026C5E9000130463146BDE8F087B3FAC1
:1004B00083F6002E4AD18B4202D3824200F2B880EA
:1004C000841A61EB030101208C46002DA8D0C5E9F8
:1004D000004CA5E7C2F1200320FA03F6974001FA89
:1004E00002F04FEA174ED9403043030CB1FBFEF641
:1004F0001FFA87F80EFB161143EA014306FB08F1C9
:10050000994204FA02F409D9FB1806F1FF3C80F085
:100510008D80994240F28A80023E3B445B1A81B250
:10052000B3FBFEF00EFB103341EA034100FB08F37E
:100530008B4207D9791800F1FF3C73D28B4271D9F5
:1005400002383944CB1A40EA064678E7C6F1200C57
:1005500003FA06F422FA0CF31C4320FA0CF701FA12
:1005600006F34FEA144E21FA0CF11F433B0CB1FB8A
:10057000FEF91FFA84F80EFB191143EA014109FB49
:1005800008FA8A4502FA06F200FA06F308D9611859
:1005900009F1FF3048D28A4546D9A9F10209214420
:1005A000A1EB0A01BFB2B1FBFEF00EFB101147EA4E
:1005B000014700FB08F8B84507D9E71900F1FF31FA
:1005C0002ED2B8452CD90238274440EA0940A7EB7F
:1005D0000807A0FB02894F45C64649461AD317D0E3
:1005E0005DB1B3EB0E0267EB010707FA0CFCF240BA
:1005F0004CEA0202F740C5E9002700263146BDE873
:10060000F0872E4628460BE70646E9E61846FDE643
:100610004345E5D2B8EB020E69EB04010138DFE790
:100620000846D2E760468DE78146B9E7664675E73A
:1006300030464AE7ACF1020C394413E702383C4437
:1006400024E700BF704700BF084B01221A7040F238
:100650002912074B1A80074B1B68DA6240F21B1203
:100660001A644BF282729A62704700BF8A020020BD
:10067000B0020020F42F0020084B00221A7040F234
:100680001B12074B1A80074B1B68DA6240F20D12EF
:100690001A644FF6FF729A62704700BF8A02002008
:1006A000B0020020F42F002008B5C8200AF0FBFE9D
:1006B00000F0E4FA012800D008BD034B01221A70B3
:1006C00007F070F8F8E700BF8B02002008B5024879
:1006D00004F092FD08BD00BFF425002008B50020FD
:1006E00000F0DAFA034600280BDB9B1040F6E440EA
:1006F00000FB03F0002806DB0013A0F5FA7080B2BF
:1007000008BDC31CF1E700F6FF70F5E70C4B1A6853
:10071000D16B0C4B1980116C5980516C9980926C83
:10072000DA800023184605E0064A32F81320104408
:1007300080B20133032BF7DD400080B2704700BF69
:1007400000260020A802002030B9104B18690028AC
:1007500019DBC0F3CF00704710B5FFF7D7FF0B4A86
:10076000137D32F813401169091B0144116122F80D
:1007700013000133594203F0070301F0070158BF8A
:100780004B42137510BD0730E3E700BF9002002015
:100790000A4B1B7843B90A4B186860B180B2094B09
:1007A000A3FB003040097047074B1888054BA3FB9B
:1007B00000304009704741F28830F0E7900F002088
:1007C000C00900201F85EB51AC190020024B1422F8
:1007D0001A80024B18707047880200208C0200209B
:1007E00010B5094B1C780CB1FF2806D044B9E52898
:1007F00007D8FFF729FF012403E0FFF73DFF00E0E2
:100800000024204610BD00BF8A02002008B5037FE7
:10081000012B00D008BD0C21014806F08FF8F9E744
:10082000742700202DE9F04786B0804602681368DF
:1008300023F0010313601123029301230393002388
:1008400004933C4B984238D03B4D4FF010094FF485
:10085000807ACDF804A001A9284602F037FC1FFADF
:100860008AF601223146284602F00BFDCDF80490AD
:10087000324C01A9204602F029FC1FFA89F7012217
:100880003946204602F0FDFC002439462B4802F090
:10089000F1FC012817D000223146284602F0F1FC75
:1008A00000BF00BF00BF00BF01223146284602F052
:1008B000E8FC0134642CE8DD39E0204D4FF080097C
:1008C0004FF0400AC5E7122302930124039400234A
:1008D0000493CDF804A001A9284602F0F7FBCDF857
:1008E0000490DFF8589001A9484602F0EFFB224639
:1008F0003146284602F0C5FC22463946484602F0F9
:10090000C0FCD8F80020136843F40043136000BF14
:10091000D8F80020136823F40043136000BFD8F810
:100920000020136823431360404603F023F906B008
:10093000BDE8F087D81A0020000002400004024001
:1009400008B5FFF781FE08BD08B5FFF7F9FF0348BA
:1009500000F018F9024800F015F908BDCC0200209B
:100960006803002008B501F0A5F908BD012800D0F2
:1009700070474FF6FF739942FAD1064B064AC3F807
:1009800098200022DA64054B0549C3F89810DA6410
:10099000EEE700BFCC020020D81A00206803002038
:1009A000241A002008B5202380F83D300D4BD3F8E1
:1009B0009830984205D00C4BD3F89830984209D023
:1009C00008BD084BDB6C002BF5D0002118460BF05E
:1009D000D0F8F5E7044BD86C0028F1D000210BF0DB
:1009E000C8F8EDE7CC0200206803002008B5D0F875
:1009F0009800FFF717FF08BD08B500231A461946EF
:100A0000C06C0AF0DBFF08BD08B53221C06C0BF0EA
:100A1000B7F9012814BF0020012008BD2DE9F041DD
:100A200084B00446884617461D46FFF7EDFF06468C
:100A300018B9304604B0BDE8F0814FF4FA73029360
:100A4000BDF828300193009501233A464146D4F879
:100A5000980003F091FB18B92046FFF7CDFFE8E7B7
:100A60002046FFF7C3FF2046FFF7C6FF0026E0E75A
:100A700000B585B00123009303ABFFF7CFFF9DF8CE
:100A80000C0005B05DF804FB2DE9F04184B004468C
:100A9000884617461D46FFF7B7FF064618B9304689
:100AA00004B0BDE8F0814FF4FA730293BDF828302A
:100AB0000193009501233A464146D4F8980003F08B
:100AC000A9FA18B92046FFF797FFE8E72046FFF795
:100AD0008DFF2046FFF790FF0026E0E700B585B0C8
:100AE0008DF80F30012300930DF10F03FFF7CCFFBA
:100AF00005B05DF804FB70B586B006460D46FFF7FD
:100B000083FF044610B9204606B070BD4FF47A73D7
:100B100002930123019305AA00920F222946D6F8D9
:100B2000980003F029FBB0FA80F464093046FFF71F
:100B300063FFE8E72DE9F047824689461746984665
:100B4000002402E0FFF70EFF0134A0450EDD04EBA8
:100B500044057E1973787A5D49465046FFF7BEFF1B
:100B6000034620B1B0780028EED0EBE70123184609
:100B7000BDE8F08708B500231A46194600680AF058
:100B80001DFF08BD10B50446C36C13B1236853B1F3
:100B900010BD00F1500101200AF0DCFFE0642046A6
:100BA000FFF72AFFF2E7211D01200AF0D3FF2060A2
:100BB0002046FFF7DFFFEBE708B503684BB14FF4C2
:100BC000FA7100680BF0DCF8012814BF0020012046
:100BD00008BD00BEF3E708B54FF6FF710120FFF72F
:100BE000C5FE08BD08B54FF6FF710020FFF7BEFE39
:100BF00008BD000000B583B0002301930C4B834275
:100C000002D003B05DF804FB0A4B18680028F8D046
:100C100001A90CF0B7F8019B002BF2D0064B4FF066
:100C200080521A60BFF34F8FBFF36F8FE9E700BFA9
:100C3000002600207C18002004ED00E0704770477B
:100C400008B5FFF7AFFE08BD08B5FFF7ABFE08BD5E
:100C500008B5FFF7A7FE08BD08B5FFF7A3FE08BD5E
:100C600008B5FFF79FFE08BD08B5FFF79BFE08BD5E
:100C700008B506F00BFE08BD7047000008B500F08F
:100C80005FF9003818BF0120014B187008BD00BF84
:100C9000040400200020704700231A460F2B0FD8B1
:100CA00010B4C418084931F8241002EB4102013392
:100CB000DBB20F2BF5D9C2F38F005DF8044B704700
:100CC000C3F38F00704700BF0804002000B583B055
:100CD00013460091024644210248FFF7D5FE03B0B7
:100CE0005DF804FB6803002008B502464421024871
:100CF000FFF7BEFE08BD00BF6803002000B583B04B
:100D000013460091024644210248FFF787FE03B0D4
:100D10005DF804FB6803002008B502460B46442139
:100D20000148FFF7DBFE08BD6803002038B5044624
:100D30001048FFF741FF00B938BD34F8025FC5F332
:100D40000235AD00023565F07F030B4A13710521B2
:100D50004320FFF7BBFF224629464320FFF7B6FF9B
:100D6000064A04214320FFF7B1FF0248FFF702FFC4
:100D7000E2E700BF6803002000000020E8630208EB
:100D800010B504461148FFF717FF00B900BE432015
:100D9000FFF7AAFFA21C02214320FFF7AFFF6388E1
:100DA000C3F3023113F4E04F09D1094A042143206F
:100DB000FFF7A4FF0548FFF7DDFE002010BD221D50
:100DC00089004320FFF79AFFEFE700BF6803002088
:100DD0004804002010B504460BF06EFD012803D036
:100DE0000848FFF7E9FE40B1224607213C20FFF703
:100DF00085FF0BF061FD012800D110BD0148FFF710
:100E0000B9FEFAE76803002008B50BF055FD01288C
:100E100003D00A48FFF7D0FE58B144210620FFF75F
:100E20007BFF04210720FFF777FF0BF045FD01282A
:100E300000D108BD0148FFF79DFEFAE768030020D6
:100E400000B583B000238DF807300DF107020121B2
:100E50000846FFF753FF9DF80730013BDBB2FD2B3F
:100E600003D8012003B05DF804FB0020FAE700007E
:100E700038B53248FFF7A0FE044608B9204638BD11
:100E800001210C20FFF748FF02200AF00CFBFFF7BE
:100E9000D7FF04460028F1D00F210B20FFF73CFFBD
:100EA00000210A20FFF738FF00210E20FFF734FF52
:100EB00000210F20FFF730FF0C210620FFF72CFF49
:100EC00007210920FFF728FF00210820FFF724FF52
:100ED00004210720FFF720FF07210220FFF71CFF56
:100EE0000A200AF0E0FA4020FFF7FEFE00F00305BA
:100EF0000B210220FFF710FF0A200AF0D4FA40204D
:100F0000FFF7F2FE00F0030085420DD925210320F2
:100F1000FFF702FF07210220FFF7FEFE0748FFF759
:100F200029FEFFF771FFA9E726210320FFF7F4FE52
:100F30000B210220FFF7F0FEF0E700BF680300205E
:100F400008B544210148FFF7D6FD08BD680300201D
:100F500070470000034B0360034B0B60402313609A
:100F6000704700BF4C0500204C04002070B588B0CD
:100F70000024069407940094224B1A6B42F08002DE
:100F80001A631A6B02F080020092009A01941A6BA5
:100F900042F001021A631A6B02F001020192019AF7
:100FA00002941A6B42F002021A631B6B03F00203F5
:100FB0000293029B02230393134B0493012605968D
:100FC000124D03A9284602F081F84FF4024303931F
:100FD0000494059603A9284602F078F84FF480732C
:100FE00003930494059403A9284602F06FF822465F
:100FF0000A21072001F01EFC072001F04FFC08B079
:1010000070BD00BF00380240000011100004024013
:1010100010B582B000240094164B1A6B42F4800283
:101020001A631A6B02F480020092009A01941A6B00
:1010300042F400121A631B6B03F400130193019B2B
:10104000224605210B2001F0F5FB0B2001F026FCC8
:1010500022460521112001F0EDFB112001F01EFCBC
:1010600022460521382001F0E5FB382001F016FC6E
:1010700002B010BD003802402DE9F0418CB00025CF
:10108000089509950A950B9520222946684613F084
:101090000DFE234C234B23606560A560012626616D
:1010A000267684F82050E5621F4BA362E560E66176
:1010B00084F830606661204600F0AAFE4FF0020816
:1010C000CDF82080099604270A9708A9204601F048
:1010D000D9F8082300930196049702954FF48013E2
:1010E000079306958DF815508DF8145003956946B1
:1010F000204601F087FACDF804806946204601F0C9
:1011000081FA032301936946204601F07BFA019797
:101110006946204601F076FA0CB0BDE8F08100BFC8
:1011200000260020002001400100000F08B50948FA
:10113000094B0360094B436000238360C3604FF495
:101140008042026143618361C361036202F012FD68
:1011500008BD00BFD81A002000540040801A0600C5
:1011600008B50948094B0360094B436000238360BD
:10117000C3604FF48042026143618361C3610362D3
:1011800002F0F8FC08BD00BF241A0020005C0040FB
:10119000801A060030B593B000241094119409947D
:1011A0000A940B940C940D940E940F9420222146D3
:1011B00001A813F07BFD254D254B2B604FF6FF73E7
:1011C0006B60AC6040F21B13EB604FF400732B615B
:1011D0006C61AC61284605F0C7FA1094119410A90F
:1011E000284605F01BFC602309930A9402230B9305
:1011F0000C9404230D930E940F94224609A92846BB
:1012000005F0FEFA40F20D130A930B940C2209A983
:10121000284605F0F5FA0194029403940494059489
:101220004FF400530693089401A9284605F032FCB8
:101230000C21284605F064FB2146284605F0AEFB4C
:10124000284605F058F913B030BD00BFF42F002038
:101250000000014008B50548054B036006234360C4
:101260006423836003F0A3FF08BD00BFF4250020C2
:101270000030004030B58BB00024089409940194EC
:10128000029403940494059406940794114D4FF02E
:1012900080432B6029236B60AC606323EB602C617F
:1012A000AC61284605F060FA0894099408A928461C
:1012B00005F0B4FB60230193322302930394059459
:1012C0000C2201A9284605F09BFA284600F034FBC1
:1012D0000BB030BD7427002030B58BB000240894CB
:1012E0000994019402940394049405940694079439
:1012F000114D124B2B6029236B60AC60FF23EB6018
:101300002C61AC61284605F02FFA0894099408A9CD
:10131000284605F083FB6023019302940223039384
:10132000059404220DEB0201284605F069FA2846CF
:1013300000F002FB0BB030BDB42F002000040040D1
:1013400008B513F03DF812F017FF01200AF0ABF8D2
:10135000FBE708B512F0EAFD01200AF0A4F8FBE76C
:1013600008B512F0ADFF01200AF09DF8FBE708B5C3
:1013700012F066FA01200AF096F8FBE730B595B056
:101380003022002108A813F091FC00240394049457
:1013900005940694079401941D4B1A6C42F08052F8
:1013A0001A641B6C03F080530193019B0294194A49
:1013B000136823F4404343F400431360136803F4B9
:1013C00040430293029B092308934FF4803309930F
:1013D00001230D9302250E954FF480030F930623EE
:1013E0001093FC231193042312930723139308A84B
:1013F00004F0BCFC0F230393049505944FF4A05311
:1014000006930793294603A804F00CFF15B030BDDE
:10141000003802400070004000B59DB000F01EFC96
:10142000FFF7ACFFFFF7A2FDFFF7F2FDFFF724FE89
:10143000FFF77CFEFFF794FEFFF7ACFEFFF70AFF15
:10144000FFF718FFFFF748FF12F0BAFFFFF73EF96A
:10145000FFF77AFA2E4C204600F006FD10222D49A7
:10146000204600F07DFD204600F0D4FF204601F02C
:101470004BF8FFF72BF9284C15AD26460FCE0FC5BC
:1014800096E8070085E80700002115A809F0F4FF99
:10149000224B18600EAD04F11C060FCE0FC596E866
:1014A000070085E8070000210EA809F0E5FF1C4BA6
:1014B000186007AD04F138060FCE0FC596E8070097
:1014C00085E80700002107A809F0D6FF154B186032
:1014D0006D4654340FCC0FC594E8070085E807002B
:1014E0000021684609F0C8FF0F4B1860049A0F4BA3
:1014F0001A80199A0E4B1A80129A0E4B1A800B9A68
:101500000D4B1A80FFF7E2F809F0B1FFFEE700BFCC
:101510000026002008040020646202083430002005
:10152000BC1900202C1B002010270020B005002033
:10153000B4050020B2050020B605002010B5044611
:101540000268154B9A4204D02268144B9A4220D06C
:1015500010BD134A13889BB2013B9BB21380114B01
:101560001A78D2B2104B1B685A635A6B0AB901221F
:101570005A635B6B1BB10A4B1B889BB223B90C21CE
:101580000A4805F0DBF9DFE70C21084805F0B8F957
:10159000DAE700F07DFBDBE70000014000080040D7
:1015A000880200208C020020F42F002074270020E5
:1015B0007047000082B0002100910B4B5A6C42F43E
:1015C00080425A645A6C02F480420092009A01915F
:1015D0001A6C42F080521A641B6C03F08053019322
:1015E000019B02B0704700BF0038024070B588B060
:1015F000002303930493059306930793026803F172
:10160000804303F590339A4201D008B070BD044680
:101610000025009503F58C335A6C42F480725A64AD
:101620005A6C02F480720092009A01951A6B42F093
:1016300001021A631A6B02F001020192019A0295EB
:101640001A6B42F002021A631B6B03F0020302934F
:10165000029B0423039303260496059503A91948C6
:1016600001F034FD012303930496059503A9164860
:1016700001F02CFD1548164B036045608560C56080
:101680004FF4806303614FF4006343614FF40053F0
:1016900083614FF48073C3614FF44033036245624A
:1016A00001F08AF958B9094BA3639C6300220F210A
:1016B000122001F0BFF8122001F0F0F8A5E7FFF7C3
:1016C00077FFF0E70000024000040240301B0020DA
:1016D000106402402DE9F0418AB00023059306937F
:1016E0000793089309930368614A934205D0614ABE
:1016F00093426ED00AB0BDE8F08104460025009503
:101700005D4E336B43F002033363336B03F002032C
:101710000093009BC0230593122306930123079394
:10172000032308930423099305A9544801F0CEFC30
:101730000195336C43F400133364336C03F40013EA
:101740000193019B4E484F4B03604FF00073436081
:101750008560C5604FF48063036145618561C56143
:101760000562456201F028F968BB454BA3639C63A1
:101770004548464B03604FF000734360402383604D
:101780000023C3604FF48062026143618361C361DF
:101790004FF480320262436201F00EF9B0B93A4B65
:1017A00063639C6300220F211F2001F043F81F2078
:1017B00001F074F800220F21202001F03BF82020D6
:1017C00001F06CF896E7FFF7F3FECEE7FFF7F0FEC7
:1017D000E5E700250295284C236B43F001032363C2
:1017E000236B03F001030293029B0395236B43F0E9
:1017F00002032363236B03F002030393039B4FF461
:10180000807305934FF01208CDF8188001270797D1
:10181000032608960423099305A91D4801F056FCE8
:1018200010230593CDF8188007970896092309938C
:1018300005A9124801F04AFC0495236C43F4000307
:101840002364236C03F400030493049B2A460F21B2
:10185000482000F0EFFF482001F020F82A460F2131
:10186000492000F0E7FF492001F018F842E700BFE7
:1018700000540040005C0040003802400004024078
:101880001427002010600240781A0020A060024057
:101890000000024010B584B00368244A934207D088
:1018A000B3F1804F21D0224A93422BD004B010BD17
:1018B000002401941F4B5A6C42F001025A645B6C85
:1018C00003F001030193019B22460F21192000F030
:1018D000B1FF192000F0E2FF22460F211B2000F08B
:1018E000A9FF1B2000F0DAFFE0E700230293114B71
:1018F0001A6C42F001021A641B6C03F0010302939C
:10190000029BD3E7002203920A4B196C41F00201BB
:1019100019641B6C03F002030393039B0F211D202A
:1019200000F088FF1D2000F0B9FFBFE70000014074
:10193000000400400038024000B589B00023039342
:1019400004930593069307930368B3F1804F05D082
:101950001B4A93421BD009B05DF804FB002301939E
:10196000184A116B41F001011163126B02F0010280
:101970000192019A0822039202220492059306938F
:101980000123079303A9104801F0A0FBE3E700211E
:1019900002910C4B1A6B42F001021A631B6B03F0AD
:1019A00001030293029B8023039302230493059176
:1019B0000693079303A9044801F088FBCBE700BF17
:1019C00000040040003802400000024010B588B01A
:1019D000014600221E2000F02DFF1E2000F05EFFB9
:1019E00000240194144B1A6C42F004021A641B6C1C
:1019F00003F004030193019B02A903A804F0D8FC9F
:101A000004F0C6FC43000D48A0FB03239B0C013BE4
:101A10000B480C4A026040F2E732C2604360046146
:101A2000846004F087FE10B1012008B010BD0448A6
:101A300004F061FDF9E700BF0038024083DE1B437C
:101A400038340020000800407047FEE7FEE7FEE75C
:101A5000FEE7704708B5022001F01AFC08BD00003F
:101A600008B5024801F056F808BD00BF1427002051
:101A700008B5024801F04EF808BD00BF781A0020F2
:101A800008B5024800F013FB08BD00BF0026002087
:101A900008B5024804F043FD08BD00BFF42F002044
:101AA00008B5024804F03BFD08BD00BFF42F00203C
:101AB00008B5024804F033FD08BD00BFB42F002074
:101AC00008B5024804F02BFD08BD00BF38340020E3
:101AD00008B5024803F03CFA08BD00BFD81A002040
:101AE00008B5024803F001FB08BD00BFD81A00206A
:101AF00008B5024801F00EF808BD00BF301B0020F9
:101B000008B5024803F040FD08BD00BF3C4300207B
:101B100008B5024803F01CFA08BD00BF241A0020D3
:101B200008B5024803F0E1FA08BD00BF241A0020FE
:101B30000120704708B513F057F8162303604FF0E3
:101B4000FF3008BD08B54FF0FF31FFF7F3FFFEE7A8
:101B500070B50C4616460025B54207DAAFF3008093
:101B6000214601F8010B01350C46F5E7304670BD02
:101B700070B50C4616460025B54205DA14F8010B7F
:101B8000AFF300800135F7E7304670BD4FF0FF300E
:101B900070474FF400534B6000207047012070479E
:101BA0000020704710B503460C4A0D490D480068E7
:101BB00040B10C4800680344521A934206D8094ABF
:101BC000136010BD0748084C0460F2E713F00CF8EE
:101BD0000C2303604FF0FF30F3E700BF000001204B
:101BE00000040000B805002058470020044BD3F83B
:101BF000882042F47002C3F88820024A9A60704735
:101C000000ED00E000000108DFF834D0002103E01F
:101C10000C4B5B58435004310B480C4B42189A4212
:101C2000F6D30B4A02E0002342F8043B094B9A42E8
:101C3000F9D3FFF7DBFF12F0DDFFFFF7EDFB704795
:101C400000000120E0B10208000000206C0200202A
:101C50006C02002054470020FEE7000008B50B4B43
:101C60001A6842F400721A601A6842F480621A60BC
:101C70001A6842F480721A60032000F0C9FD002047
:101C8000FFF7A4FEFFF796FC002008BD003C0240D1
:101C9000034A1168034B1B780B441360704700BF65
:101CA000783400200C000020014B1868704700BFFA
:101CB0007834002038B50446FFF7F6FF0546B4F146
:101CC000FF3F02D0044B1B781C44FFF7EDFF401B85
:101CD000A042FAD338BD00BF0C0000204A4B5A681E
:101CE00022F440325A605A6841680A435A600268D6
:101CF000536823F48073536002685368016943EAB0
:101D0000012353600268536823F0407353600268F4
:101D1000536881680B4353600268936823F400633F
:101D2000936002689368C1680B439360826A374B83
:101D30009A4257D00268936823F0706393600268F8
:101D40009368816A0B4393600268936823F0405361
:101D5000936002689368C16A0B439360026893685A
:101D600023F00203936002689368017E43EA410313
:101D7000936090F82030002B3FD00268536843F402
:101D8000006353600268536823F460435360016842
:101D90004B68426A013A43EA42334B600268D36AB5
:101DA00023F47003D3620168CB6AC269013A43EA43
:101DB0000253CB620268936823F400739360026855
:101DC000936890F8301043EA412393600268936867
:101DD00023F48063936002689368416943EA812336
:101DE000936070470268936823F0706393600268A1
:101DF000936823F040539360B0E70268536823F47C
:101E000000635360CAE700BF002301400100000FD8
:101E100038B310B50446036C43B1236C13F0100FB4
:101E20000BD00120002384F83C3010BDFFF7DEFB0F
:101E30000023636484F83C30EFE7236C23F4885379
:101E400023F0020343F0020323642046FFF746FF1A
:101E500000206064236C23F0030343F00103236438
:101E6000E0E701207047000082B00023019390F862
:101E70003C30012B63D0012380F83C3003689A6822
:101E800012F0010F13D19A6842F001029A60304BB0
:101E90001B68304AA2FB03239B0C03EB4303019313
:101EA00002E0019B013B0193019B002BF9D10268E9
:101EB000936813F0010F44D0036C23F4E06323F024
:101EC000010343F480730364536813F4806F05D0F7
:101ED000036C23F4405343F480530364036C13F402
:101EE000805F19D0436C23F006034364002380F81D
:101EF0003C306FF022031360174B5B6813F01F0F29
:101F00000DD103689A6812F0405F1DD19A6842F0C3
:101F100080429A60002015E000234364E6E70368EE
:101F20000E4A934201D000200CE09A6812F0405F04
:101F30000CD19A6842F080429A60002002E00220B0
:101F400000E0002002B070470020FBE70020F9E726
:101F50000800002083DE1B430023014000200140D5
:101F600030B583B013460022019290F83C20012A3C
:101F70007FD00546012280F83C200268906810F06E
:101F8000010F13D1906840F0010090603D4A106845
:101F90003D4AA2FB0020800C00EB4000019002E0D3
:101FA000019C013C019401980028F9D12A689068AD
:101FB00010F0010F5FD0286C20F4E06020F00100E9
:101FC00040F480702864526812F4806F05D02A6C47
:101FD00022F4405242F480522A642A6C12F4805F48
:101FE00034D06A6C22F006026A64002285F83C2034
:101FF000AA6B2648D063AA6B25481064AA6B2548B3
:10200000D0642A686FF0220010602868426842F0AD
:10201000806242602868826842F480728260286828
:102020000A4600F14C01A86B00F02CFD1A4B5B68CE
:1020300013F01F0F0DD12B689A6812F0405F1DD16D
:102040009A6842F080429A60002015E000226A649B
:10205000CBE72B68114A934201D000200CE09A682C
:1020600012F0405F0CD19A6842F080429A600020E2
:1020700002E0022000E0002003B030BD0020FBE7BA
:102080000020F9E70800002083DE1B43132201082B
:10209000A1200108FD21010800230140002001408A
:1020A00008B5806BFEF7CBFD08BD7047704738B5AB
:1020B000044602681168536811F0020F2FD003F034
:1020C000200363B3036C13F0100F03D1036C43F4CC
:1020D00000730364936813F0405F19D1237EBBB98A
:1020E000D36A13F4700F03D0936813F4806F0FD189
:1020F000536823F020035360236C23F4807323641C
:10210000236C13F4805F03D1236C43F00103236439
:102110002046FEF793FD23686FF012021A602368D1
:1021200019685A6802F0800211F0040F36D0002AB4
:1021300034D0226C12F0100F03D1226C42F4005202
:1021400022649A6812F4401F21D19A6B12F4401F46
:1021500003D09A6812F4806F19D15A6812F4806F14
:1021600015D19A6812F0405F11D1227E7AB95A686F
:1021700022F080025A60236C23F480532364236C82
:1021800013F4807F03D1236C43F0010323642046C2
:10219000FEF730FD23686FF00C021A6022681168A8
:1021A000536803F0400311F0010F04D01BB1136812
:1021B00013F0010F09D122681168536803F080639E
:1021C00011F0200F00D063B938BD236C43F4803385
:1021D00023642046FFF769FF23686FF001021A604D
:1021E000E9E7636C43F0020363646FF02005156058
:1021F0002046FFF75BFF23681D60E5E708B5806BAD
:1022000040230364436C43F004034364FFF74EFF31
:1022100008BD08B50346806B026C12F0500F25D143
:10222000036C43F40073036403689A6812F0405F20
:1022300019D1027EBAB9DA6A12F4700F03D09A6823
:1022400012F4806F0FD15A6822F020025A60036C9A
:1022500023F480730364036C13F4805F03D1036C75
:1022600043F001030364FEF7E9FC08BD026C12F0C1
:10227000100F04D1826BD26C18469047F5E7FFF738
:1022800015FFF2E730B482B00023019390F83C30A0
:10229000012B00F0B780012380F83C300B68092B3C
:1022A0003ED90568EA689BB203EB43031E3B072453
:1022B00004FA03F322EA0303EB600568EA688C681A
:1022C0000B8803EB43031E3B04FA03F31343EB6059
:1022D0004B68062B3AD805686A6B03EB8303053B12
:1022E0001F2404FA03F322EA03036B6305686A6B95
:1022F0004B6803EB8303053B0C8804FA03F3134399
:102300006B630268404B9A4250D002683E4B9A423F
:1023100055D0002380F83C30184602B030BC7047DE
:1023200005682A699BB203EB4303072404FA03F30D
:1023300022EA03032B6105682A698C680B8803EB8A
:10234000430304FA03F313432B61C1E70C2B16D8A4
:1023500005682A6B03EB8303233B1F2404FA03F372
:1023600022EA03032B6305682A6B4B6803EB8303A4
:10237000233B0C8804FA03F313432B63C1E705687E
:10238000EA6A03EB8303413B1F2404FA03F322EAC6
:102390000303EB620568EA6A4B6803EB8303413B86
:1023A0000C8804FA03F31343EB62AAE70B68122BC1
:1023B000ABD1164A536843F480035360A5E70B681A
:1023C000103B012BA5D8114A536843F40003536016
:1023D0000B68102B9DD10E4B1B6802F1467202F563
:1023E0002E3202F28332A2FB03239B0C03EB830306
:1023F0005B00019302E0019B013B0193019B002BD9
:10240000F9D186E7022088E700200140002301403F
:102410000800002082B00023019390F83C30012B8B
:102420005CD0012380F83C3003689A6812F0010FF9
:1024300013D19A6842F001029A602F4B1B682F4A11
:10244000A2FB03239B0C03EB4303019302E0019BDC
:10245000013B0193019B002BF9D10268936813F0B3
:10246000010F3DD0036C23F4405323F0010343F4E8
:1024700080530364036C13F4807F01D10023436411
:10248000002380F83C306FF0040313601C4B5B6842
:1024900013F01F0F0ED102689168536803F4806334
:1024A00011F4401F1FD103BB936843F48003936072
:1024B000002016E003689A6802F44012596801F49B
:1024C00080611048834201D000200AE07AB981B9C6
:1024D0009A6842F480029A60002002E0022000E044
:1024E000002002B070470020FBE70020F9E7002041
:1024F000F7E70020F5E700BF0800002083DE1B435C
:10250000002301400020014082B00023019390F895
:102510003C30012B61D0012380F83C3003689A687D
:1025200012F0010F13D19A6842F001029A60314B08
:102530001B68314AA2FB03239B0C03EB430301936B
:1025400002E0019B013B0193019B002BF9D1026842
:10255000936813F0010F42D0036C23F4405323F02F
:10256000010343F480530364036C13F4807F01D1AF
:1025700000234364002380F83C306FF004031360B1
:102580000268536843F0800353601C4B5B6813F090
:102590001F0F0ED102689168536803F4806311F431
:1025A000401F1FD103BB936843F480039360002056
:1025B00016E003689A6802F44012596801F48061D9
:1025C0000F48834201D000200AE07AB981B99A68A5
:1025D00042F480029A60002002E0022000E0002025
:1025E00002B070470020FBE70020F9E70020F7E782
:1025F0000020F5E70800002083DE1B430023014094
:102600000020014090F83C30012B00F0F98030B4FC
:10261000012380F83C300B68092B7DD90568EA68F6
:102620009BB203EB43031E3B072404FA03F322EAA5
:102630000303EB600568EA688C680B8803EB4303CF
:102640001E3B04FA03F31343EB600268936B23F41D
:10265000401393630468A36B0A69013A43EA025387
:10266000A3630568AA6B4B680C691B1BDBB20333C1
:10267000DBB203EB83031F2404FA03F322EA030310
:10268000AB630568AA6B4B680C691B1BDBB2033399
:10269000DBB203EB83030C8804FA03F31343AB634D
:1026A0008A69584B9A424DD00268936823F470238C
:1026B0009360026893688C6923439360026893680F
:1026C00023F44013936002689368CC6923439360BA
:1026D0004B7D002B41D00268536843F48063536004
:1026E0000B7D002B3FD00268536843F48053536046
:1026F0004B68022B57D0032B62D0012B39D00268D4
:10270000136A23F47F6323F00F0313620268136AD2
:10271000CC682343136238E005682A699BB203EB57
:102720004303072404FA03F322EA03032B61056839
:102730002A698C680B8803EB430304FA03F3134301
:102740002B6182E70268936823F470239360026828
:10275000936823F440139360BAE70268536823F444
:1027600080635360BCE70268536823F4805353606E
:10277000BEE70268536923F47F6323F00F035361BC
:1027800002685369CC682343536102681E4B9A4226
:1027900023D002681C4B9A4228D0002380F83C309A
:1027A000184630BC70470268936923F47F6323F0B6
:1027B0000F03936102689369CC6823439361E4E754
:1027C0000268D36923F47F6323F00F03D3610268A7
:1027D000D369CC682343D361D7E70B68122BD8D1D8
:1027E0000A4A536843F480035360D2E70B68103BF6
:1027F000012BD2D8054A536843F400035360CCE759
:102800000220704701000F0000200140002301401A
:10281000074AD36823F4E0631B041B0C000200F496
:10282000E060034343F0BF6343F40033D360704779
:1028300000ED00E030B4174BDB68C3F30223C3F1B3
:102840000704042C28BF04241D1D062D18D9033BA2
:102850004FF0FF3505FA04F421EA0401994005FA26
:1028600003F322EA0303194300280BDB0901C9B271
:1028700000F1604000F5614080F8001330BC704703
:102880000023E5E700F00F000901C9B2024B19541B
:10289000F4E700BF00ED00E014ED00E0002807DBE6
:1028A00000F01F02400901239340024A42F8203001
:1028B000704700BF00E100E030B405682C6824F4E4
:1028C00080242C60046863608368402B05D0036813
:1028D00099600368DA6030BC704703689A600368E7
:1028E000D960F8E710B40368D9B210390C4AA2FBDA
:1028F000014212090B4CA25CC2655F2909D923F47D
:102900007F7323F0030304338365806D5DF8044B0C
:10291000704723F47F7323F003038365F5E700BF5B
:10292000ABAAAAAA24640208836A826992B9012B1D
:102930000AD0022B02D00BB100207047C36A13F0FB
:10294000807F28D100207047C36AB3F1C07F24D0B4
:1029500000207047B2F5005F09D0022B25D9032B68
:1029600025D1C36A13F0807F23D100207047032B49
:1029700003D8DFE803F01404140A00207047C36A88
:1029800013F0807F0DD100207047C36AB3F1C07F80
:1029900009D00020704701207047012070470120B6
:1029A00070470120704701207047012070470020C8
:1029B000704701207047000070B50446FFF774F9B6
:1029C000002C5BD00546002384F83430022384F8C1
:1029D00035302268136823F00103136023681A68F6
:1029E00012F0010F0AD0FFF75FF9431B052BF5D951
:1029F00020236365032084F8350070BD1A682048E1
:102A000010406168A2680A43E1680A4321690A43E9
:102A100061690A43A1690A43E1690A43216A0A43D9
:102A20000243616A04291ED01A602668756925F080
:102A30000705636A1D43042B07D1A36A1D43E36A9C
:102A40001BB12046FFF770FF90B975612046FFF774
:102A500049FFE26D3F2393408360002060650123BE
:102A600084F83530C9E7E16A206B01430A43DBE7AC
:102A700040236365012084F83500BEE70120BCE7F0
:102A80003F8010F038B50446856D90F83400012879
:102A90002BD0012084F8340094F83500C0B201280E
:102AA00004D0002384F83430022038BD022084F89A
:102AB0003500002060652046FFF7FEFEE26D3F23F3
:102AC0009340AB602268136843F016031360236CD5
:102AD00023B12268136843F0080313602268136867
:102AE00043F0010313600020DFE70220DDE790F8E8
:102AF0003530DBB2022B03D08023436501207047C1
:102B0000052380F835300268136823F00103136051
:102B100000207047F0B583B0044600230193724B48
:102B20001D68724BA3FB0535AD0A876D3E68C26D0B
:102B300008239340334210D003681A6812F0040F40
:102B40000BD01A6822F004021A60C26D0823934069
:102B5000BB60436D43F001034365E26D0123934085
:102B6000334209D02268526912F0800F04D0BB6052
:102B7000636D43F002036365E26D042393403342C7
:102B800009D02268126812F0020F04D0BB60636D96
:102B900043F004036365E26D10239340334224D075
:102BA0002268126812F0080F1FD0BB6023681A68F1
:102BB00012F4802F0DD01B6813F4002F04D1236C66
:102BC0009BB12046984710E0A36C73B1204698470C
:102BD0000BE01A6812F4807F03D11A6822F0080211
:102BE0001A60236C0BB120469847E26D2023934076
:102BF000334255D02268126812F0100F50D0BB60DB
:102C000094F83530DBB2052B0ED023681A6812F425
:102C1000802F33D01B6813F4002F2AD1636C002B54
:102C20003ED0204698473BE02268136823F0160305
:102C300013602268536923F080035361236CA3B1AE
:102C40002268136823F008031360E26D3F2393406A
:102C5000BB60002384F83430012384F83530236DC1
:102C6000002B3FD0204698473CE0A36C002BE7D1D7
:102C7000EBE7E36BA3B12046984711E01A6812F422
:102C8000807F09D11A6822F010021A60002384F8AC
:102C90003430012384F83530E36B0BB1204698477C
:102CA000636DFBB1636D13F0010F17D0052384F83A
:102CB00035302268136823F001031360019B013350
:102CC0000193AB4204D823681B6813F0010FF5D1C0
:102CD000002384F83430012384F83530E36C0BB1E1
:102CE0002046984703B0F0BD08000020B5814E1B78
:102CF00090F835007047406D7047000010B40A49E5
:102D00000C6924F440740C610C6944F440740C6147
:102D10000C6944F001040C610260BFF36F8F4360E3
:102D20005DF8044B704700BF003C0240074B1A6936
:102D300022F440721A611A6942F400721A611A6927
:102D400042F001021A610160704700BF003C02407E
:102D5000074B1A6922F440721A611A6942F48072B0
:102D60001A611A6942F001021A610180704700BFBE
:102D7000003C0240064B1A6922F440721A611A693B
:102D80001A611A6942F001021A610170704700BFAE
:102D9000003C0240274BDB6813F0100F07D0264A97
:102DA000D36943F01003D361224B1022DA60214B28
:102DB000DB6813F0200F07D01F4AD36943F00803E4
:102DC000D3611C4B2022DA601A4BDB6813F0400FF2
:102DD00007D0194AD36943F00403D361154B40224D
:102DE000DA60144BDB6813F0800F07D0124AD36906
:102DF00043F00203D3610F4B8022DA600D4BDB6896
:102E000013F4807F08D00C4AD36943F00103D361E7
:102E1000084B4FF48072DA60064BDB6813F0020F48
:102E200007D0054AD36943F02003D361014B022246
:102E3000DA607047003C02407C340020094B1B697B
:102E4000002B01DB00207047064B074A5A6002F155
:102E500088325A601B69002B01DB0020704701207B
:102E6000704700BF003C024023016745034A1369D5
:102E700043F0004313610020704700BF003C024054
:102E800038B50446144B0022DA61FEF70DFF054603
:102E9000124BDB6813F4803F0AD0B4F1FF3FF7D048
:102EA00024B1FEF701FF401BA042F1D903200DE041
:102EB0000A4BDB6813F0010F02D0084B0122DA60E5
:102EC000064BDB6813F4F97F01D1002038BDFFF712
:102ED00061FF0120FAE700BF7C340020003C024083
:102EE000F8B516461B4A127E012A30D004460D461C
:102EF0001F46184B01221A764CF25030FFF7C0FFE4
:102F000090B9ACB1012C18D0022C1BD032463B46F4
:102F10002846FFF7F3FE4CF25030FFF7B1FF0E4AA0
:102F2000136923F0010313610A4B00221A76F8BDDE
:102F3000F1B22846FFF71EFFEDE7B1B22846FFF7D2
:102F400007FFE8E731462846FFF7F0FEE3E70220F7
:102F5000EDE700BF7C340020003C0240074B1969BC
:102F600021F440711961196941F0040119611A696C
:102F700042EA002242F480321A617047003C02406B
:102F800010B449B1012921D0022902D04FF4407474
:102F900003E04FF4007400E000240E4B196921F4A3
:102FA000407119611A6922431A611A6922F0F80204
:102FB0001A611A6942EAC00040F0020018611A69F9
:102FC00042F480321A615DF8044B70474FF480740C
:102FD000E3E700BF003C0240164B1B6813F4007F80
:102FE00010D0144B1A6822F400721A601A6842F466
:102FF00000621A601A6822F400621A601A6842F4C9
:1030000000721A600B4B1B6813F4806F10D0094BD1
:103010001A6822F480621A601A6842F480521A60B8
:103020001A6822F480521A601A6842F480621A60A8
:10303000704700BF003C0240F8B5224B1B7E012BBD
:103040003ED004460E461F4B01221A764CF25030F9
:10305000FFF716FF074670BB4FF0FF33336023685E
:10306000012B16D0A568E368A2681344AB4220D9AF
:10307000217C2846FFF784FF4CF25030FFF700FF19
:10308000114A136923F0FA031361074680B9013529
:10309000E9E76168207CFFF761FF4CF25030FFF7F1
:1030A000EFFE0746084A136923F00403136100E0AA
:1030B0003560FFF791FF034B00221A763846F8BDC2
:1030C0000227FBE77C340020003C024000230F2B4A
:1030D00000F2C780F0B583B039E0042200E000229E
:1030E000B2403A4302345F4E46F824205E4A1468E8
:1030F000EA4324EA05064F6817F4803F01D045EA09
:103100000406594C2660646802EA04064F6817F406
:10311000003F01D045EA0406534C6660A46802EA09
:1031200004064F6817F4801F01D045EA04064E4C90
:10313000A660E46822404E6816F4001F01D045EAFC
:103140000402494CE26001330F2B00F28880012217
:103150009A400C6804EA020532EA0404F3D14C6890
:10316000661E012E03D9112C01D0122C12D18668B3
:103170005F000324BC4026EA0406CC68BC4034430C
:103180008460466826EA02064C68C4F300129A403E
:1031900032434260C7685E000324B440E24327EA3A
:1031A00004078C68B4403C43C4604C68022C01D0D6
:1031B000122C13D1DF08083750F827E003F007047A
:1031C0004FEA840C0F2404FA0CF42EEA040E0C6966
:1031D00004FA0CF444EA0E0440F827400468144052
:1031E0004A6802F00302B240224302604A6812F0C9
:1031F000805FA8D0002201921C4A546C44F48044A1
:103200005464526C02F480420192019A9C08A61CFC
:10321000144A52F8267003F0030296000F22B240BF
:1032200027EA0207124A90423FF459AF02F5806242
:1032300090420ED002F5806290420CD002F580627E
:1032400090420AD002F5806290423FF446AF0722D6
:1032500046E7012244E7022242E7032240E703B0A7
:10326000F0BD704700380140003C0140003802408A
:10327000000002400369194201D00120704700207C
:1032800070470AB18161704709048161704700008D
:1032900008B5054B5B69034200D108BD024B58617C
:1032A000FDF7E6FCF9E700BF003C014090F83E3036
:1032B000DBB2402B10D00369B3F5804F1BD0036DF8
:1032C000002B39D1436CC3F3C813026803F0060323
:1032D00043F0F00313617047036D2BB9436C026830
:1032E00003F0FE0313617047436C026843F001036F
:1032F000DBB21361704790F83D30DBB2212B0FD069
:10330000436C026843F00103DBB21361436B6BB1A2
:10331000DB6B5BB10268536843F400635360704732
:10332000436C026803F0FE031361EFE7836B33B174
:10333000DB6B002BEED102E0036D012B00D0704758
:10334000436CC3F3C813026803F0060343F0F103B0
:103350001361F4E7436C0268DBB21361436B3BB16A
:10336000DB6B4BB10268536843F4006353607047F2
:10337000826B002AF4D1FAE7836BDB6B002BF1D16F
:10338000F5E710B48BB090F83E30DAB2C16A046B46
:1033900090F83D30DBB2222B0BD000230993036859
:1033A0005A6909929B690993099B0BB05DF8044B1C
:1033B0007047036D0BB9402A17D0036D1BB9036921
:1033C000B3F5404F19D0438D9BB2002B25D102930A
:1033D00003685A6902929A690292029A1A6842F440
:1033E00000721A6000230365DFE7009303685A69DF
:1033F00000929B690093009BD7E700230193036829
:103400005A6901929A690192019A1A6842F480728B
:103410001A60036D01330365C7E7438D9BB2012B2F
:1034200025D0438D9BB2022B7BD00268136843F4F6
:103430008063136003685A6812F4006F0ED011F5B0
:10344000803F07D0012905D0082903D0102901D0D9
:10345000202903D15A6842F480525A60002308930D
:1034600003685A6908929B690893089BBAE711F5AB
:10347000803F11D0082934D0202932D0122C2ED0F0
:10348000042940D002293ED010293CD0026813689C
:1034900023F4806313603BE00268136823F48063C5
:1034A000136003685A6812F4006F0CD01A6822F493
:1034B00080621A600023039303685A6903929B6930
:1034C0000393039B8EE7002204925A6904929A693F
:1034D0000492049A1A6842F400721A6082E7012981
:1034E000CED00268136823F4806313600023069330
:1034F00003685A6906929A690692069A1A6842F413
:1035000000721A606EE70268136843F48063136008
:103510000023059303685A6905929B690593059BEF
:1035200060E704290ED002290CD010290AD00268C5
:10353000136823F4806313600268136843F4006324
:10354000136004E00268136843F480631360036847
:103550005A6812F4006F0ED011F5803F07D0012990
:1035600005D0082903D0102901D0202903D15A6899
:1035700042F480525A600023079303685A69079205
:103580009B690793079B2DE7438D9BB25BB1426A12
:10359000036812781A61436A01334362438D9BB218
:1035A000013B9BB243857047438D9BB25BB103687F
:1035B0001A69436A1A70436A01334362438D9BB2AE
:1035C000013B9BB24385704782B0002301930E4BB1
:1035D0001B68DB080D4AA2FB03231B0A03EB8303D2
:1035E0000193019B013B0193019B33B103681B686D
:1035F00013F4007FF5D1002004E0036C43F02003B6
:103600000364012002B070470800002089B5F81457
:1036100003685A6912F4806F01D1002070476FF47B
:1036200080625A6100230363202280F83D2080F8E5
:103630003E30026C42F00402026480F83C3001200B
:103640007047C36AB3F52A0F04D0C36AB3F12A4F97
:1036500003D070470123C36270470823C362F8E7B1
:103660002DE9F04107460D4690461E4622E0FEF742
:103670001BFB069BC01AB04200D8DEB900233B6397
:10368000202287F83D2087F83E303A6C42F0200235
:103690003A6487F83C3001201AE03B689C6925EACF
:1036A0000404A4B2B4FA84F46409A0450FD1B6F1BD
:1036B000FF3FDCD1C5F30743012BEED13B685C69CA
:1036C00025EA0404A4B2B4FA84F46409EDE7002006
:1036D000BDE8F0812DE9F04105460E4617469846B3
:1036E0003DE01A6842F400721A602B686FF4806241
:1036F0005A6100232B63202285F83D2085F83E3057
:103700002A6C42F004022A6485F83C30012034E03F
:10371000FEF7CAFAA0EB0800B84200D8FFB90023B0
:103720002B63202285F83D2085F83E302A6C42F03C
:1037300020022A6485F83C3001201EE02B689C6939
:1037400026EA0404A4B2003C18BF0124A4B12B68EB
:103750005A6912F4806FC4D1B7F1FF3FD8D1C6F3D4
:103760000743012BEAD12B685C6926EA0404A4B262
:10377000003C18BF0124E9E70020BDE8F08100000B
:10378000F0B583B004460D4616461F46C36A082BA3
:103790000DD0012B0BD013F5803F08D0036B122BFB
:1037A0000AD10268136843F48073136004E022684E
:1037B000136843F4807313600097334600224FF080
:1037C00001112046FFF74CFF80B92369B3F5804F04
:1037D00016D1236805F0FE051D613B4632461349AC
:1037E0002046FFF777FFF8B903B0F0BD23681B68E8
:1037F00013F4807F02D04FF4007323640320F3E7B7
:10380000EB11226803F0060343F0F00313613B461B
:10381000324607492046FFF75DFF18B92368EDB22D
:103820001D61DAE70120DFE70120DDE7020001008A
:103830000800010070B504460D46164623685B6912
:1038400013F0800F1CD12046FFF7E2FED0B9B5F18E
:10385000FF3FF3D0FEF728FA801BA84201D8002DC5
:10386000ECD100232363202284F83D2084F83E30ED
:10387000226C42F02002226484F83C30012000E0F7
:10388000002070BD0120FCE72DE9F04385B004461F
:103890000D4691461F46DDF830800D9E036819687D
:1038A00041F4807119600096434600224FF00111E7
:1038B000FFF7D6FE60B9236805F0FE051D613346AB
:1038C000424626492046FFF705FF68B1012008E07F
:1038D00023681B6813F4807F02D04FF400732364C5
:1038E000032005B0BDE8F0830023039323685A69E1
:1038F00003929B690393039B324641462046FFF7A0
:1039000099FF30B9012F0FD123685FFA89F61E6144
:10391000E7E7236C042B01D00120E2E7226813685B
:1039200043F400731360F7E723684FEA19221A6122
:10393000324641462046FFF77DFF20B923685FFAF3
:1039400089F61E61CDE7236C042B01D00120C8E766
:103950002268136843F400731360F7E70200010064
:103960002DE9F04784B004460D46164699460C9F53
:10397000DDF834800268136843F4806313600368E1
:10398000196841F480711960CDF800803B4600222F
:103990004FF00111FFF764FE70B95FFA85FA2368F2
:1039A00005F0FE051D6143463A4641492046FFF7B2
:1039B00091FE68B1012008E023681B6813F4807F42
:1039C00002D04FF400732364032004B0BDE8F087F5
:1039D0000023039323685A6903929B690393039B13
:1039E000424639462046FFF725FF80B9B9F1010F5D
:1039F00018D12368F6B21E61424639462046FFF7C9
:103A000019FF68B3236C042B24D00120DDE7236C5D
:103A1000042B01D00120D8E72268136843F4007317
:103A20001360F7E72368320A1A6142463946204696
:103A3000FFF700FF18B92368F6B21E61DCE7236CBC
:103A4000042B01D00120C0E72268136843F40073FF
:103A50001360F7E72268136843F400731360D4E738
:103A60002268136843F480731360CDF800803B46EE
:103A700000224FF001112046FFF7F2FD68B92268DD
:103A80004AF00103136143463A4609492046FFF7CD
:103A900021FE002899D0012097E723681B6813F4C2
:103AA000807F02D04FF40073236403208DE700BFB2
:103AB0000200010070B504460D46164623685B6996
:103AC00013F0040F1CD12046FFF7A2FDD0B9B5F1C9
:103AD000FF3FF3D0FEF7E8F8801BA84201D8002D85
:103AE000ECD100232363202284F83D2084F83E306B
:103AF000226C42F02002226484F83C30012000E075
:103B0000002070BD0120FCE770B505460C46164646
:103B10002B68596911F0400F29D1596911F0100F24
:103B200015D1FEF7C1F8801BA04201D8002CEFD1BF
:103B300000232B63202285F83D2085F83E302A6C37
:103B400042F020022A6485F83C30012070BD6FF0FD
:103B500010025A6100232B63202285F83D2085F84E
:103B60003E302A6C2A6485F83C300120EEE70020C4
:103B7000ECE70000002800F0CC80F8B5044690F88F
:103B80003D30002B77D0242384F83D302268136821
:103B900023F0010313602268136843F400431360A9
:103BA0002268136823F40043136002F0F1FB62689B
:103BB0005A4B9A4264D85A4B98428CBF0023012337
:103BC000002B40F0A880574DA5FB0035AF0C2668B0
:103BD000716821F03F0141EA9541716021680B6AEB
:103BE00023F03F0365684D4A95424FD87A1C134332
:103BF0000B622568E96921F44F4121F0FF016368F8
:103C0000464A93424CD801385B00B0FBF3F00130D8
:103C100040F6FC73184278D0C0F30B030B43EB6102
:103C200021680B6823F0C003E269206A0243134352
:103C30000B6021688B6823F4034323F0FF032269A0
:103C4000E068024313438B602168CB6823F0FF03D5
:103C50006269A06902431343CB602268136843F092
:103C60000103136000202064202384F83D3020638A
:103C700084F83E00F8BD80F83C30FDF72BFD82E76C
:103C8000294B98428CBF0023012399E74FF4967289
:103C900002FB07F2254DA5FB025292090132A6E76D
:103CA000A268BAB9461E03EB4307B6FBF7F6013626
:103CB000C6F30B06B6FA86F6760946BBC2B9421EB3
:103CC00003EB4303B2FBF3F20132C2F30B0242F403
:103CD0000043A3E7461E03EB830707EB8707B6FB0A
:103CE000F7F60136C6F30B06B6FA86F67609E4E770
:103CF000421E03EB830303EB8303B2FBF3F20132B7
:103D0000C2F30B0242F4404388E7042386E7012311
:103D100084E7012070470120ACE700BFA0860100C6
:103D20007F841E0083DE1B43FF083D00D34D6210DD
:103D30002DE9F04385B004460F46914698460C9E07
:103D4000FDF7B2FF054694F83D00C0B2202804D02C
:103D50000227384605B0BDE8F083009519230122FB
:103D60004F492046FFF77CFC002840F0928094F8F1
:103D70003C30012B00F08F80012384F83C30236815
:103D80001A6812F0010F03D11A6842F001021A609A
:103D90002268136823F400631360212384F83D3004
:103DA000102384F83E3000232364C4F82490A4F840
:103DB0002A80638D23853B4BE3622B46324639468E
:103DC0002046FFF7DDFC0746002866D10023039359
:103DD00023685A6903929B690393039B11E0236C48
:103DE000042B01D00127B4E72268136843F4007361
:103DF0001360F7E72A4631462046FFF75BFE0028AE
:103E00002ED1238D002B36D02A4631462046FFF78F
:103E100011FD0028E3D1626A236812781A61616A91
:103E20004B1C6362638D9BB2013B9BB26385238D08
:103E3000013B9BB223852268506910F0040FD9D052
:103E4000002BD7D04B781361636A01336362638DB3
:103E50009BB2013B9BB26385238D013B2385C9E760
:103E6000236C042B01D0012773E72268136843F405
:103E700000731360F7E72268136843F4007313605C
:103E8000202384F83D30002384F83E3084F83C3011
:103E90005FE702275DE702275BE7012759E700BFDD
:103EA000020010000000FFFF30B583B0054600207F
:103EB000019095F83D00C0B2202840F09C80504809
:103EC0000068C0084F4CA4FB0040000A00EB8000D3
:103ED00000EB80000190019C013C019401980028B6
:103EE0003ED02868846914F0020FF4D195F83C4064
:103EF000012C00F08380012485F83C40046814F014
:103F0000010F03D1046844F0010404602C682068A8
:103F100020F400602060212085F83D00102085F805
:103F20003E00002028646A626B856B8D9BB22B85F6
:103F3000354AEA62696413BB2A68136843F48063F4
:103F400013602A68136843F480731360002385F8B4
:103F50003C302A68536843F4E063536000204BE030
:103F600000232B63202285F83D2085F83E302A6C03
:103F700042F020022A6485F83C3001203CE06B6B63
:103F8000224ADA636B6B224ADA646A6B10646A6BEA
:103F900050646A6B90646A6B10652A682B8D1032CE
:103FA000696A686BFEF76EFDB8B92A68136843F456
:103FB000806313602A68136843F4807313600023DE
:103FC00085F83C302A68536843F4407353602A688C
:103FD000536843F400635360C0E7202385F83D3005
:103FE000002285F83E202B6C43F010032B6485F8EB
:103FF0003C20012000E0022003B030BD0220FBE79E
:104000000800002089B5F8140000FFFF5B49010893
:10401000154901082DE9F04383B004460F46904648
:1040200099460C9EFDF740FE054694F83D00C0B24F
:10403000202803D0022003B0BDE8F08300951923A7
:1040400001224B492046FFF70BFB002840F08980F6
:1040500094F83C30012B00F08680012384F83C303A
:1040600023681A6812F0010F03D11A6842F00102A6
:104070001A602268136823F400631360212384F814
:104080003D30402384F83E30002323640A9B636262
:10409000BDF82C306385638D2385364BE362019533
:1040A00000964B46424639462046FFF7EDFB002876
:1040B0005BD1238D002B35D02A4631462046FFF7B1
:1040C000B9FB20BB626A236812781A61616A4B1CD3
:1040D0006362228D013A92B22285638D9BB2013BCD
:1040E0009BB263852368586910F0040FE1D0002A61
:1040F000DFD04A781A61636A01336362238D013B22
:104100002385638D9BB2013B9BB26385D1E7236C12
:10411000042B01D001208EE72268136843F400735A
:104120001360F7E72A4631462046FFF7C3FC50B13B
:10413000236C042B01D001207DE72268136843F42F
:1041400000731360F7E72268136843F40073136089
:10415000202384F83D30002384F83E3084F83C303E
:1041600069E7022067E7022065E7012063E700BFF7
:10417000020010000000FFFF2DE9F04387B0044665
:104180000F4690469946109EFDF78EFD054694F821
:104190003D00C0B2202804D00227384607B0BDE851
:1041A000F0830095192301229D492046FFF758FA14
:1041B000002840F0448194F83C30012B00F041810C
:1041C000012384F83C3023681A6812F0010F03D1F0
:1041D0001A6842F001021A602268136823F400632F
:1041E0001360222384F83D30402384F83E300023BE
:1041F00023640E9B6362BDF83C306385638D238529
:10420000884BE362019500964B464246394620466C
:10421000FFF7A6FB0746002840F01581238D5BB908
:10422000029323685A6902929A690292029A1A6862
:1042300042F400721A6098E0012B0AD0022B1AD0C7
:104240000023059323685A6905929B690593059B92
:104250008BE02268136823F48063136000230393C8
:1042600023685A6903929A690392039A1A6842F47E
:1042700000721A6079E02268136823F48063136087
:104280002268136843F400631360002304932368D7
:104290005A6904929B690493049B66E02A4631465E
:1042A0002046FFF731FC002840F0CF8023681A69D0
:1042B000636A1A70636A01336362238D013B23854D
:1042C000638D9BB2013B9BB263854EE00095334604
:1042D000002255492046FFF7C3F9002840F0B78077
:1042E0002268136843F40073136023681A69636AD1
:1042F0001A70626A531C6362238D013B2385638DB0
:104300009BB2013B9BB2638523681B695370636A50
:1043100001336362238D013B2385638D9BB2013B97
:104320009BB2638521E02268136843F40073136035
:1043300023681A69636A1A70626A531C6362238D68
:10434000013B2385638D9BB2013B9BB26385236850
:104350001B695370636A01336362238D013B2385BC
:10436000638D9BB2013B9BB26385238D002B5DD097
:10437000032B2BD8012B91D0022BA7D000953346CD
:10438000002229492046FFF76BF9002861D12268F5
:10439000136823F48063136023681A69636A1A70D0
:1043A000636A01336362238D013B2385638D9BB276
:1043B000013B9BB263850095334600221A49204693
:1043C000FFF74EF90028AED00127E6E62A4631462F
:1043D0002046FFF799FB00283DD123681A69636ADC
:1043E0001A70626A531C6362238D013B2385638DBF
:1043F0009BB2013B9BB263852368596911F0040F9E
:10440000B3D01B695370636A01336362238D013B30
:104410002385638D9BB2013B9BB26385A5E700BFFB
:10442000020010000000FFFF04000100202384F8B8
:104430003D30002384F83E3084F83C30ADE602275E
:10444000ABE60227A9E60127A7E60127A5E6012793
:10445000A3E60127A1E601279FE600BF08B5C26ACF
:1044600090F83D30DBB2212B00D008BD438D9BB2CC
:1044700063B1426A036812781A61436A0133436286
:10448000438D9BB2013B9BB24385EEE7082A04D0E3
:10449000202A02D012F5803F13D10268536823F41A
:1044A000E06353600268136843F4007313600023F1
:1044B0000363202280F83D2080F83E30FCF7C4FBE7
:1044C000D3E70268536823F4E06353601123036366
:1044D000002380F83E30202380F83D30FCF7B4FB09
:1044E000C3E7704708B590F83D30DAB2438D9BB210
:1044F00083B1416A036809781961436A01334362F1
:10450000438D9BB2013B9BB24385438D9BB20BB95C
:10451000292A00D008BD0268536823F480635360E1
:1045200021230363282380F83D30FFF7DAFFF1E70A
:10453000704708B590F83D30DAB2438D9BB283B135
:1045400003681969436A1970436A01334362438DF2
:104550009BB2013B9BB24385438D9BB20BB92A2A88
:1045600000D008BD0268536823F48063536022239F
:104570000363282380F83D30FFF7DAFFF1E7704747
:1045800008B590F83D3003F02803282B07D00368C6
:104590006FF002025A61002380F83C3008BD0268C7
:1045A000536823F48063536011F0040F0BD0002391
:1045B00011F0800F09D18289002180F83C10194642
:1045C000FFF7DDFFEAE70123F2E7028BF4E770472C
:1045D00008B590F83D30DBB2C26A082A01D0202A23
:1045E00001D1282B06D0212B1ED003686FF48062E6
:1045F0005A6108BD1A4BC3620268536823F4E06332
:10460000536003686FF480625A610268136823F490
:104610008063136000230363202280F83D2080F82C
:104620003E30FFF7D4FFE4E70D4BC3622123036361
:10463000202380F83D30002380F83E300268536824
:1046400023F4E063536003686FF480625A61026888
:10465000136823F480631360FFF743FFC9E700BFCB
:104660000000FFFF08B590F83D30026D9AB9C36CA9
:10467000012B08D0836CC3F3072302681361036D19
:104680000133036508BD836C0268DBB21361036DFF
:1046900002330365F6E7DBB2026D012A23D0026D17
:1046A000022AEFD1222B26D0428D92B20AB1212BC1
:1046B00027D0428D92B2002AE4D1212BE2D10268A8
:1046C000536823F4E06353600268136843F4007393
:1046D000136000230363202280F83D2080F83E30E1
:1046E000FCF7B6FACEE7836C0268DBB21361036DA8
:1046F00001330365C6E70268136843F480731360EF
:10470000C0E7426A036812781A61436A0133436260
:10471000438D9BB2013B9BB24385B3E710B590F844
:104720003D30DBB290F83E20D2B2C46A018D09B9A7
:10473000212B04D0212B3BD0402A37D010BD082C90
:1047400004D0202C02D014F5803F19D102685368A0
:1047500023F4E06353600268136843F4007313604A
:1047600000230363202380F83D3090F83E30DBB215
:10477000402B15D0002380F83E30FCF765FADDE7CA
:104780000268536823F4E06353601123036300233A
:1047900080F83E30202380F83D30FCF755FACDE715
:1047A000002380F83E30FCF753FAC7E7222BC5D12F
:1047B000438D9BB22BB90268536823F48063536026
:1047C000BCE790F83E30DBB2402B0CD0426A036865
:1047D00012781A61436A01334362438D9BB2013BF5
:1047E0009BB24385AAE7FFF73DFFA7E708B5C26A7A
:1047F000438D9BB2042B14D0438D9BB2032B22D04C
:10480000438D9BB2022B39D003681A69436A1A7030
:10481000436A01334362438D9BB2013B9BB24385A4
:1048200010E00268536823F48063536003681A69D8
:10483000436A1A70436A01334362438D9BB2013B62
:104840009BB2438508BD01684B6823F480634B60CD
:10485000042A06D0022A04D00268136823F4806375
:10486000136003681A69436A1A70436A013343622A
:10487000438D9BB2013B9BB24385E3E7012A0BD0FA
:10488000102A09D0042A38D0022A36D002681368C8
:1048900043F40073136004E00268136823F4806338
:1048A000136003681A69436A1A70426A531C4362B0
:1048B000438D9BB2013B9BB2438503681B695370D8
:1048C000436A01334362438D9BB2013B9BB24385F4
:1048D0000268536823F440735360202380F83D300E
:1048E00090F83E30DBB2402B0DD0002380F83E30F4
:1048F00012230363FCF7A4F9A4E70268136843F4E6
:1049000080631360CDE7002380F83E300363FCF73B
:10491000ABF997E710B5846B636B0BB10022DA63D8
:10492000A36B0BB10022DA63FEF7E5F9022800D190
:1049300010BD2268136823F480631360002363852D
:10494000202284F83D2084F83E30236C43F010038D
:1049500023642046FCF780F9EAE738B5846B94F8C5
:104960003D30DBB294F83E20D1B2E56A206842685F
:1049700022F440724260626B0AB10020D063A26BE5
:104980000AB10020D06303F02102212A41D003F0B4
:104990002202222A3BD094F83E30002B49D0638D6E
:1049A0009BB2012B58D02268536823F440735360A4
:1049B00015F5803F06D0082D04D0B5F12A4F01D05F
:1049C000202D04D12268136843F400731360226819
:1049D000536823F4805353602268536823F40063C0
:1049E000536000236385236C002B3BD1202384F884
:1049F0003D3094F83E30DBB2402B37D0002384F8B2
:104A00003E30122323632046FCF71AF911E02029D7
:104A1000C1D121684A6822F400624A60002262859E
:104A2000292B07D02A2B0ED02268536843F44073F9
:104A3000536038BD21232363282384F83D3020466A
:104A4000FFF74FFDF0E722232363282384F83D304E
:104A50002046FFF76DFDE7E72268136823F48063C3
:104A60001360A0E72046FCF7F7F8E2E7002384F89C
:104A70003E3023632046FCF7F7F8DAE790F83D3044
:104A8000DBB2222B00D0704710B50446438D9BB299
:104A9000032B16D903681A69436A1A70436A0133F3
:104AA0004362438D9BB2013B9BB24385438D9BB2D6
:104AB000032B00D010BD0268536823F48063536059
:104AC000F8E7C26A022AF5D0012BF3D8FEF77CFD85
:104AD00000282ED12268136823F4806313602268B3
:104AE000536823F4E063536023681A69636A1A7099
:104AF000636A01336362638D9BB2013B9BB2638542
:104B0000202384F83D3094F83E30DBB2402B08D0AF
:104B1000002384F83E30122323632046FCF790F8EC
:104B2000C8E7002384F83E3023632046FCF79CF856
:104B3000C0E72268536823F4E063536023681A696E
:104B4000636A1A70636A01336362638D9BB2013BCF
:104B50009BB26385202384F83D30002384F83E30E7
:104B60002046FCF779F8A5E700B583B00023019350
:104B7000806B90F83D20D2B2324B1B68DB08324983
:104B8000A1FB03131B0A03EB8303C3EBC3030193D2
:104B9000019B43B1019B013B019303681B6813F424
:104BA000007FF5D103E0036C43F020030364436B03
:104BB0000BB10021D963836B0BB10021D96301686C
:104BC0000B6823F480630B6000234385436B0BB1B8
:104BD00000211965836B0BB10021196501680B6811
:104BE00023F001030B6090F83D30DBB2602B0ED058
:104BF00002F02802282A14D0202380F83D30002318
:104C000080F83E30FCF728F803B05DF804FB202361
:104C100080F83D30002380F83E300364FCF720F834
:104C2000F2E70268136843F0010313600268136837
:104C300043F48063136000230363282380F83D302E
:104C4000E0E700BF0800002089B5F81410B504465D
:104C500090F83D30DBB290F83E20D2B2102A36D028
:104C6000402A34D003F02802282A38D0226852681B
:104C700012F4006F07D1602B05D0202384F83D305B
:104C8000002384F83E300023236323685A6812F41B
:104C9000006F48D05A6822F400625A60626B92F842
:104CA0003530DBB2012B20D0444B1365606BFDF730
:104CB0001EFF002849D02268136823F00103136007
:104CC000202384F83D30606B036D98473DE0222B34
:104CD000C8D121680A6822F400620A60C2E7002392
:104CE0002363282384F83D30CFE7A36B334A1A654A
:104CF000A06BFDF7FCFE40B323685A6912F0400F29
:104D000005D01A69636A1A70636A013363622268A4
:104D1000136823F001031360202384F83D30A06B57
:104D2000036D984711E094F83D20D2B2602A1FD05D
:104D30005A6912F0400F05D01A69636A1A70636AE3
:104D4000013363622046FBF787FF236C13F00F0FDC
:104D500004D02268536823F4E063536094F83D3034
:104D6000DBB2226C12F0040F01D0282B18D010BD3A
:104D7000202284F83D20002222645A6912F0400F5C
:104D800005D01A69636A1A70636A01336362226824
:104D9000136823F0010313602046FBF761FFD4E79B
:104DA000074BE36200232363202284F83D2084F82C
:104DB0003E302046FFF70BFCD9E700BF694B0108E6
:104DC0000000FFFF30B583B0044690F83D50EDB2CF
:104DD0000268536823F4E06353600023019303687F
:104DE0005A6901921A6842F001021A60019B026836
:104DF000136823F48063136003685A6812F4006F29
:104E000038D0222D21D02A2D1FD0426B1268526833
:104E100092B24285428D92B21AB1026C42F0040203
:104E200002645A6822F400625A60606BFDF760FF0A
:104E300001281FD0636B444A1A65606BFDF757FE6B
:104E4000C0B1606B036D984714E0A26B12685268A2
:104E500092B26285628D92B21AB1226C42F0040263
:104E600022645A6822F400625A60A06BFDF740FF8A
:104E7000012842D1638D9BB233B323685A6912F083
:104E8000040F0AD01A69636A1A70636A0133636295
:104E9000638D9BB2013B9BB2638523685A6912F014
:104EA000400F0AD01A69636A1A70636A0133636239
:104EB000638D9BB2013B9BB26385638D9BB21BB13B
:104EC000236C43F004032364236C13BB2A2D25D0E9
:104ED00094F83D30DBB2282B29D0236B222B01D054
:104EE000222D19D100232363202284F83D2084F849
:104EF0003E302046FFF71CFB0EE0A36B124A1A65FA
:104F0000A06BFDF7F4FD0028B4D0A06B036D9847AB
:104F1000B0E72046FFF79AFE03B030BD00232363BD
:104F2000282384F83D302046FFF702FBD0E7074BEB
:104F3000E36200232363202284F83D2084F83E307E
:104F40002046FFF744FBE7E7694B01080000FFFF3D
:104F5000F8B5044602685568C66A90F83E30DBB280
:104F600090F83D10102B14D0C8B2402B11D0236CF8
:104F7000002B77D05369002113F0020F75D015F480
:104F8000007F72D0236C03B191692046FFF7F8FAD5
:104F9000F8BD9769516911F0010005D1B6F52A0FE6
:104FA000F6D0B6F12A4FF3D010B115F4007F27D117
:104FB00011F0080F02D015F4007F28D111F0020F74
:104FC00002D015F4007F26D117F0040F2FD05268BD
:104FD00012F4006FDCD111F0800F05D015F4806F52
:104FE00002D011F0040F1AD011F0040FD0D015F434
:104FF000007FCDD0102B16D02046FFF733FBC7E73C
:105000002046FEF71EFB2046FEF750F9C0E720467B
:10501000FEF7A0F9BCE72046FEF7B3F9B8E7204653
:10502000FFF77CFBB4E72046FFF718FAB0E75368B8
:1050300013F4006FACD111F0400F05D015F4806F60
:1050400002D011F0040F09D011F0040FA0D015F414
:10505000007F9DD02046FFF7C9FB99E72046FFF768
:105060000DFD95E79169536986E713F0100F02D0A3
:1050700015F4007F18D121281AD0292818D013F050
:10508000400F05D015F4806F02D013F0040F28D024
:1050900013F0040F3FF47CAF15F4007F3FF478AFBA
:1050A0002046FEF781FA73E72046FFF78BFE6FE795
:1050B00013F0800F05D015F4806F02D013F0040FA9
:1050C0000BD013F0040F3FF463AF15F4007F3FF4EF
:1050D0005FAF2046FEF758FA5AE72046FFF702FA7C
:1050E00056E72046FFF725FA52E7F8B5044603686D
:1050F0005D695F6890F83E20D2B215F4807F07D0DA
:1051000017F4807F3CD06FF480715961012600E074
:10511000002615F4007F08D017F4807F05D046F0F4
:10512000020623686FF40071596115F4806F19D07D
:1051300017F4807F16D0638D99B294F83D30DBB2BE
:10514000206B202A1ED023686FF48061596146F0DD
:105150000406102A01D0402A04D12268136843F4BF
:105160000073136015F4006F08D017F4807F05D02A
:1051700046F0080623686FF400625A6186B9F8BDEC
:105180000026C6E70029DED1212B05D0292B03D02C
:10519000282BD8D12128D6D12046FFF719FAE1E7EC
:1051A000236C1E4326642046FFF750FDE7E708B353
:1051B00038B5044603684CF6CC421A60036845F2E1
:1051C00055521A60036842685A60036882689A60A0
:1051D000FCF76AFD05462368DA6832B1FCF764FD26
:1051E000401B3028F7D9032003E04AF6AA221A60B0
:1051F000002038BD0120704703684AF6AA221A60D1
:10520000002070472DE9F04782B0D0F80080C1EB54
:10521000C10300EB83035A6D1B6D9A4255D80746B4
:105220000C46C1469B1AC1EBC10200EB8202526CD4
:105230009A4200D31A4602F1030A4FEA9A0A15E08D
:1052400006F1030A4FEA9A0AC4EBC40507EB850589
:10525000A96C3B7C0093B3B2E2B2404601F092FFEE
:10526000AB6C3344AB646B6D1E446E6509EB441349
:1052700003F510639B699BB2534512D3C4EBC40280
:1052800007EB8202516D136D99420AD24BB15B1A42
:10529000C4EBC40207EB8202566C9E42D0D31E467A
:1052A000CEE7C4EBC40007EB80073A6D7B6D9A42F2
:1052B0000FD804F00F040123A340D8F8344824EA9F
:1052C0000304C8F83448002000E0012002B0BDE823
:1052D000F0870020FAE7F0B58BB0002800F08C8052
:1052E0000546046890F8BD332BB3032385F8BD331E
:1052F000E36B13F4807F01D100232B61286801F058
:10530000D1FC2C4654F8107B6E460FCC0FC60FCC48
:105310000FC694E8030086E803002B1D0ECB384629
:1053200001F002FC044658B1022385F8BD33012484
:1053300020460BB0F0BD80F8BC330FF051F9D4E734
:105340000021286801F0B4FC234616E0C3EBC30239
:1053500005EB8202012182F83D1082F83C30A2F870
:105360004230002182F83F1051649164C3EBC302C4
:1053700005EB820211650133DBB269688B42E5D32C
:1053800016E0C4EBC40305EB8303002283F8FD2180
:1053900083F8FC4183F8FF21C3F80422C3F80822F4
:1053A000C4EBC40305EB8303C3F810220134E4B259
:1053B000A142E6D82C4654F8107B6E460FCC0FC69F
:1053C0000FCC0FC694E8030086E803002B1D0ECB1C
:1053D000384601F0B3FC044620B1022385F8BD3302
:1053E0000124A5E7002385F83830012385F8BD3373
:1053F000286802F071F89BE7012499E7026890F8A9
:10540000BC33012B19D010B50446012380F8BC33FE
:10541000836A012B09D0206801F03EFC206802F06D
:105420004DF8002084F8BC0310BD8369012BF2D035
:10543000936B43F480339363EDE7022070470000E1
:1054400070B504460D460068066C00EB411303F589
:1054500030639A682169012911D035498E4250D0B4
:105460003DB9C5EBC50304EB8303D3F81032002B21
:1054700058D0E9B220460FF0FFF8002070BD12F0BE
:10548000080F09D02B498E42F7D912F4004FF4D0FF
:105490004FF400429A60F0E712F0200F02D0202271
:1054A0009A60EAE712F0280FE7D122498E4206D926
:1054B00012F4004F03D04FF400429A60DDE7C5EBD1
:1054C000C50204EB8202D2F804121B69C3F3120373
:1054D000C91AC2F81412D2F80412D2F808320B44D6
:1054E000C2F8083215B9D2F8103223B1E9B2204619
:1054F0000FF0C2F8C1E704F57172012102F040F823
:10550000F4E712F4004F03D04FF400429A60B4E77E
:1055100012F0200F01D020229A60E9B220460FF04D
:10552000ABF8AAE704F57172002102F029F8A0E7B0
:105530000A31544F0A30544F38B5044603681D6C85
:1055400003EB4113D3F8081B0E4A954207D903F524
:10555000306311F4004F02D04FF400429A602046AD
:105560000FF082F8074B9D4202D92369012B01D02D
:10557000002038BD04F571720121206802F000F8A6
:10558000F6E700BF0A30544F2DE9F04F83B00446D0
:105590000568284601F0DFFF10B103B0BDE8F08FC9
:1055A0002F460646206801F0A5FF0028F5D02068A8
:1055B00001F0A0FF10F0020F04D02268536903F03D
:1055C00002035361206801F095FF10F0100F14D012
:1055D0002268936923F010039361D5F8208008F0C6
:1055E0000F09C8F34343022B68D0062B00F08D80CF
:1055F0002268936943F010039361206801F07AFFF9
:1056000010F4002F40F09380206801F073FF10F435
:10561000802F40F0D780206801F06CFF0028C0F296
:105620004381206801F066FF10F4006F0AD0D5F8BE
:10563000083813F0010F40F051812268536903F4D8
:1056400000635361206801F055FF10F4805F40F063
:105650004981206801F04EFF10F4005F40F0A881FE
:10566000206801F047FF10F0080F40F0B981206872
:1056700001F040FF10F4801F40F0BB81206801F072
:1056800039FF10F4001F40F0BE81206801F032FFA6
:1056900010F0804F40F0C181206801F02BFF10F026
:1056A000040F3FF47AAF23685D6815F0040F40F0F3
:1056B000BD81226853682B4353606EE747F6F07351
:1056C00018EA030F94D04FEA181B4FEAC90301935D
:1056D000C9EBC90A04EB8A0AC8F30A12DAF80812FD
:1056E000284601F06FFECBF30A0BDAF808325B4470
:1056F000CAF80832019BA3EB090304EB8303D3F838
:1057000014325B44CAF8143272E7082204F571714E
:10571000284601F057FEC8F30A18C9EBC90204EB8A
:105720008202D2F814324344C2F8143260E720688F
:1057300001F0E4FE8046B14617E007EB4913012271
:10574000C3F8082B49462046FFF77AFE1DE007EB19
:1057500049130822C3F8082B49462046FFF7ECFE00
:1057600016E009F101094FEA5808B8F1000F3FF4BB
:105770004BAF18F0010FF4D05FFA89F1206801F007
:10578000CDFE824610F0010FD7D11AF0080FDED1FE
:105790001AF0100F04D007EB49131022C3F8082B9E
:1057A0001AF0200F04D007EB49132022C3F8082B6E
:1057B0001AF4005FD5D007EB49134FF40052C3F839
:1057C000082BCEE7206801F0A1FE8046B1462AE012
:1057D000594620460EF05CFF1AF0080F04D007EB84
:1057E00049130822C3F808291AF0100F04D007EB58
:1057F00049131022C3F808291AF0400F04D007EB10
:1058000049134022C3F808291AF0020F04D007EB0D
:1058100049130222C3F808291AF0800F3FD109F179
:1058200001094FEA5808B8F1000F3FF4F4AE18F040
:10583000010FF4D05FFA89FB5946206801F077FE2A
:10584000824610F0010FC7D009F00F03012101FAC1
:1058500003F2D7F8343823EA0203C7F8343807EBE9
:105860004913C3F8081923698B42B1D1C9EBC903A5
:1058700004EB8303596C9A6C0A449A64B9F1000FE3
:10588000A6D1C9EBC90304EB83031B6D002B9FD189
:1058900004F571720121206801F072FE98E7494613
:1058A0002046FFF7AFFCBAE7D5F8043823F0010330
:1058B000C5F8043894F8F433012B08D020460EF0D4
:1058C00023FF2268536903F000435361A9E60021D6
:1058D00084F8F413204600F047FAF2E720460EF071
:1058E000FBFEAAE605F50068D8F8043023F00103B2
:1058F000C8F804301021206801F0F2F920E007EB2D
:1059000046134FF67F31C3F80819D3F8002922F463
:105910000012C3F80029D3F8002942F00062C3F84E
:105920000029C3F8081BD3F8002B22F40012C3F897
:10593000002BD3F8002B42F00062C3F8002B013695
:105940006368B342DBD8D8F81C3043F00113C8F8C1
:105950001C30236BEBB1D8F8843043F00B03C8F84C
:105960008430D8F8443043F00B03C8F84430D5F8FD
:10597000003823F4FE63C5F8003804F57172217C09
:10598000206801F0FDFD2268536903F480535361E0
:105990005FE6D8F8143043F4005343F02B03C8F803
:1059A0001430D8F8103043F00B03C8F81030DEE79D
:1059B000206801F0D4FD206801F08CFAE0602568D1
:1059C00000F0E0FC0146227B284601F0F3F8204677
:1059D0000EF06FFE2268536903F4005353613FE6F3
:1059E00020460EF060FE2268536903F008035361FD
:1059F0003DE6002120460EF093FE2268536903F431
:105A0000801353613AE6002120460EF083FE22689F
:105A1000536903F40013536137E620460EF086FE07
:105A20002268536903F08043536135E620460EF047
:105A300083FE3EE690F8BC33012B0DD010B5044632
:105A4000012380F8BC3380F83810006801F026FD8F
:105A5000002084F8BC0310BD02207047F8B507464B
:105A60000C4611F0800F27D101F00F05C5EBC506DC
:105A7000B60006F5FC760644311DC5EBC50500EB06
:105A80008505002085F8FD0104F00F040C708A6084
:105A9000CB704A7802B1CC80022B1DD097F8BC3372
:105AA000012B1CD0012387F8BC33386801F023FA9E
:105AB000002087F8BC03F8BD01F00F00C0EBC00167
:105AC0008900383139440431C0EBC00007EB800055
:105AD000012580F83D50D7E700230B71DEE7022057
