:020000040800F2
:1090000000500020DDAC0008C1AB0008C3AB000875
:10901000C5AB0008C7AB0008C9AB000800000000E2
:109020000000000000000000000000000130010806
:10903000CBAB00080000000091300108D5300108DA
:1090400025AD000825AD000825AD000825AD0008B8
:1090500025AD000825AD000825AD0008CDAB000802
:1090600025AD000825AD000825AD0008D5AB0008EA
:1090700025AD000825AD000825AD000825AD000888
:10908000E1AB0008EDAB0008F9AB000825AD000826
:1090900025AD000825AD000825AD000825AD000868
:1090A00025AD000815AC000825AD000821AC00086E
:1090B00025AD000825AC000831AC00083DAC000827
:1090C00049AC000855AC000861AC000825AD0008AB
:1090D00025AD000825AD000825AD000825AD000828
:1090E00025AD000825AD000825AD000800000000F2
:1090F0000000000000000000000000000000000070
:0C91000000000000000000005FF808F113
:1091100010B5054C237833B9044B13B10448AFF3B1
:1091200000800123237010BD6802002000000000B1
:10913000E885010808B5034B1BB103490348AFF3A9
:10914000008008BD000000006C020020E8850108D6
:1091500010F8012B11F8013B012A28BF9A42F7D0E1
:10916000D01A7047034613F8012B002AFBD1181AB6
:109170000138704780F0004002E000BF81F00041FC
:1091800042001FBF5FEA410392EA030F7FEA226CAD
:109190007FEA236C6AD04FEA1262D2EB1363C1BF3D
:1091A000D218414048404140B8BF5B42192B88BFAC
:1091B000704710F0004F40F4000020F07F4018BFCF
:1091C000404211F0004F41F4000121F07F4118BFEF
:1091D000494292EA030F3FD0A2F1010241FA03FC97
:1091E00010EB0C00C3F1200301FA03F100F000437F
:1091F00002D5494260EB4000B0F5000F13D3B0F147
:10920000807F06D340084FEA310102F10102FE2AB5
:1092100051D2B1F1004F40EBC25008BF20F0010025
:1092200040EA03007047490040EB000010F4000FD3
:10923000A2F10102EDD1B0FA80FCACF1080CB2EB66
:109240000C0200FA0CF0AABF00EBC25052421843C5
:10925000BCBFD0401843704792F0000F81F400016A
:1092600006BF80F400000132013BB5E74FEA41033D
:109270007FEA226C18BF7FEA236C21D092EA030FA9
:1092800004D092F0000F08BF0846704790EA010F23
:109290001CBF0020704712F07F4F04D1400028BF50
:1092A00040F00040704712F100723CBF00F5000032
:1092B000704700F0004343F0FE4040F40000704768
:1092C0007FEA226216BF08467FEA23630146420214
:1092D00006BF5FEA412390EA010F40F48000704727
:1092E0004FF0000304E000BF10F0004348BF4042CD
:1092F0005FEA000C08BF704743F0964301464FF009
:1093000000001CE050EA010208BF70474FF0000364
:109310000AE000BF50EA010208BF704711F00043A5
:1093200002D5404261EB41015FEA010C02BF844675
:109330000146002043F0B64308BFA3F18053A3F5D4
:109340000003BCFA8CF2083AA3EBC25310DB01FA1B
:1093500002FC634400FA02FCC2F12002BCF1004F9F
:1093600020FA02F243EB020008BF20F00100704730
:1093700002F1200201FA02FCC2F1200250EA4C0084
:1093800021FA02F243EB020008BF20EADC707047CA
:1093900042000ED2B2F1FE4F0BD34FF09E03B3EB5F
:1093A000126209D44FEA002343F0004323FA02F08B
:1093B00070474FF00000704712F1610F01D1420277
:1093C00002D14FF0FF3070474FF00000704700BFF0
:1093D0007BB972B90029BEBF00204FF0004106E002
:1093E00008BF00281CBF6FF000414FF0FF3000F0B5
:1093F000BFB9ADF1080C6DE904CE002909DB002BE3
:109400001ADB00F04DF8DDF804E0DDE9022304B0DA
:109410007047404261EB4101002B1BDB00F040F83C
:10942000DDF804E0DDE9022304B0404261EB4101D4
:10943000524263EB43037047524263EB430300F035
:109440002FF8DDF804E0DDE9022304B0404261EBCF
:1094500041017047524263EB430300F021F8DDF80D
:1094600004E0DDE9022304B0524263EB430370479A
:1094700053B94AB9002908BF00281CBF4FF0FF317B
:109480004FF0FF3000F074B9ADF1080C6DE904CE77
:1094900000F006F8DDF804E0DDE9022304B07047CF
:1094A0002DE9F0478C460446089E002B4BD18A429A
:1094B000154667D9B2FA82F24AB1C2F1200701FA21
:1094C00002F320FA07F7954047EA030C94404FEA6D
:1094D000154EBCFBFEF71FFA85F80EFB17C307FB02
:1094E00008F9210C41EA0343994509D9EB1807F122
:1094F000FF3180F01C81994540F21981023F2B44D5
:10950000A3EB0903B3FBFEF00EFB103300FB08F1E5
:10951000A4B244EA0344A14209D92C1900F1FF3353
:1095200080F00781A14240F2048102382C4440EAD5
:1095300007400027641A1EB10023D440C6E9004347
:109540003946BDE8F0878B4209D9002E00F0EC8047
:109550000027C6E9000138463946BDE8F087B3FA6E
:1095600083F7002F48D18B4202D3824200F2FB8066
:10957000841A61EB030301209C46002EE0D0C6E96B
:10958000004CDDE702B9FFDEB2FA82F2002A40F0B9
:109590008F800127491B4FEA15481FFA85F9B1FB57
:1095A000F8FE08FB1E1109FB0EF04FEA144C4CEAC2
:1095B0000143984207D9EB180EF1FF3102D29842CD
:1095C00000F2CD808E461B1AB3FBF8F008FB103377
:1095D00009FB00F9A4B244EA0344A14507D92C19B8
:1095E00000F1FF3302D2A14500F2B6801846A4EB89
:1095F000090440EA0E409EE7C7F12005BB4022FA6D
:1096000005FC4CEA030C21FA05F44FEA1C4EB4FBAE
:10961000FEF91FFA8CF80EFB194420FA05F3B94045
:1096200009FB08FA19430B0C43EA0444A24502FA69
:1096300007F200FA07F30BD91CEB040409F1FF3021
:1096400080F08880A24540F28580A9F10209644437
:10965000A4EB0A04B4FBFEF00EFB104400FB08FA76
:1096600089B241EA0444A24508D91CEB040400F184
:10967000FF316BD2A24569D90238644440EA0940FF
:10968000A0FB0289A4EB0A044C454146CE4654D3C4
:1096900051D0002E69D05A1A64EB0E0404FA05F575
:1096A00022FA07F3FC401D43C6E90054002747E7B0
:1096B0009540C2F1200321FA03F04FEA1548B0FBB0
:1096C000F8F71FFA85F908FB170024FA03F3914015
:1096D00007FB09FC0B43190C41EA00418C4504FAD5
:1096E00002F407D9691807F1FF3031D28C452FD920
:1096F000023F2944A1EB0C01B1FBF8F008FB101C60
:1097000000FB09FE99B241EA0C418E4507D9691860
:1097100000F1FF3318D28E4516D902382944A1EB47
:109720000E0140EA07473AE73746304608E70F465A
:10973000E6E61846FBE64345ABD2B8EB020169EB1F
:109740000C0201389646A4E71846E8E7084695E774
:109750000746CFE781467BE702382C4447E7AEF166
:10976000020E2B442FE7384607E73746E8E600BFEE
:10977000704700BF084B01221A7040F22912074BB4
:109780001A80074B1B68DA6240F21B121A6449F612
:109790004B529A62704700BF86020020A40200204C
:1097A000382A002008B5FFF7E5FF034800F069FA02
:1097B000024800F066FA08BDC00200205C030020E9
:1097C00008B5C82008F057F800F0DCFA012800D0EE
:1097D00008BD034B01221A7005F046F9F8E700BFF7
:1097E0008702002008B5024804F05FF808BD00BFFA
:1097F0005C24002008B5002000F0D2FA03460028BF
:10980000B8BFC31C9B1040F6E44000FB03F00028E7
:10981000B8BF00F6FF700013A0F5FA7080B208BD63
:1098200084B0144B1B68DA6BADF800201A6CADF8ED
:1098300002205A6CADF804209B6CADF806300E4B3C
:109840001B68DA6BADF808201A6CADF80A205A6C68
:10985000ADF80C209B6CADF80E30ADF102030DF1AC
:109860000E01002033F8022F104480B28B42F9D150
:1098700004B07047682400202C24002038B90F4B16
:1098800018690028B8BF0730C0F3CF00704710B583
:10989000FFF7C6FF094A137D32F813401169091B0F
:1098A0000144116122F813000133594203F0070308
:1098B00001F0070158BF4B42137510BD8C02002008
:1098C0000B4B1B7863B90B4B186841F288330028A7
:1098D00008BF184680B2084BA3FB00304009704710
:1098E000064B1888044BA3FB00304009704700BFAB
:1098F000C40F0020F40900201F85EB513018002010
:10990000024B0A221A80024B187070478402002012
:109910008802002008B50F4B1B78ABB1FF2802D09E
:109920000023184608BD0B4A0021117040F21B119C
:10993000094A1180094A1268D16240F20D1111647E
:109940004FF293719162ECE7E528EAD8FFF712FF36
:109950000123E6E786020020A4020020382A002026
:1099600008B5037F012B00D008BD0C21014804F08D
:10997000B3FEF9E7A82500202DE9F04F85B0814618
:109980000268136823F0010313601123019301237C
:109990000293022303933E4B98420CBF4FF0800B7F
:1099A0004FF4006B98420CBF4FF0400A4FF4806AAE
:1099B00004AD45F810AD374C2946204602F0BCF9FD
:1099C0001FFA8AF601223146204602F09BFACDF8B2
:1099D00000B02946204602F0AFF91FFA8BF70122AA
:1099E0003946204602F08EFA65254FF000083946C8
:1099F000204602F081FA012810D042463146204626
:109A000002F080FA00BF00BF00BF00BF0122314654
:109A1000204602F077FA013DE9D136E012230193A6
:109A20004FF00108CDF808800223039304AD45F8F8
:109A300010AD184C2946204602F07EF9CDF800B052
:109A40002946204602F078F942463146204602F087
:109A500059FA42463946204602F054FAD9F8002015
:109A6000136843F40043136000BFD9F80020136863
:109A700023F40043136000BFD9F80020136843EAC1
:109A800008031360484602F023FC05B0BDE8F08FE0
:109A900040190020000C014008B501F069F908BD2B
:109AA00008B5202380F83D300D4BD3F8983098420C
:109AB00005D00C4BD3F89830984209D008BD084B1C
:109AC000DB6C002BF5D00021184608F0E6F9F5E72D
:109AD000044BD86C0028F1D0002108F0DEF9EDE746
:109AE000C00200205C03002008B5D0F89800FFF702
:109AF00043FF08BD08B500231A461946C06C08F09C
:109B000005F908BD08B53221C06C08F0BBFA012880
:109B100014BF0020012008BD2DE9F04184B00546A6
:109B20000E4617469846FFF7EDFF044618B9204643
:109B300004B0BDE8F0814FF4FA730293BDF8283009
:109B40000193CDF8008001233A463146D5F89800BC
:109B500002F062FE18B92846FFF7CCFFE7E7284677
:109B6000FFF7C2FF2846FFF7C5FF0024DFE700B577
:109B700085B00123009303ABFFF7CEFF9DF80C00E7
:109B800005B05DF804FB2DE9F04184B005460E46B2
:109B900017469846FFF7B6FF044618B9204604B0AA
:109BA000BDE8F0814FF4FA730293BDF828300193B9
:109BB000CDF8008001233A463146D5F8980002F0EE
:109BC0009BFD18B92846FFF795FFE7E72846FFF702
:109BD0008BFF2846FFF78EFF0024DFE710B584B027
:109BE00004AC04F8013D012300932346FFF7CBFFAB
:109BF00004B010BD70B586B005460E46FFF782FF73
:109C0000044610B9204606B070BD4FF47A73029333
:109C10000123019305AA00920F223146D5F898003E
:109C200002F0FAFDB0FA80F464092846FFF762FFFB
:109C3000E8E72DE9F041BBB10F460646144603EBB9
:109C40004303D51804E0FFF727FF0334AC420DD0DF
:109C50006378227839463046FFF7C0FF804628B146
:109C6000A0780028F1D0EEE74FF001084046BDE8AB
:109C7000F08108B500231A461946006808F046F836
:109C800008BD10B50446C36C13B1236853B110BDB1
:109C900000F15001012008F0EBF8E0642046FFF7E6
:109CA00029FFF2E7211D012008F0E2F8206020469C
:109CB000FFF7DFFFEBE708B503684BB14FF4FA712C
:109CC000006808F0DFF9012814BF0020012008BD5A
:109CD00000BEF3E7054B064AC3F898200022DA6479
:109CE000044B0549C3F89810DA647047C00200209D
:109CF000401900205C030020A818002000B583B0A4
:109D0000002301930C4B834202D003B05DF804FBA7
:109D10000A4B18680028F8D001A909F0C3F8019B84
:109D2000002BF2D0064B4FF080521A60BFF34F8FDA
:109D3000BFF36F8FE9E700BF682400200017002001
:109D400004ED00E07047704708B5FFF7A9FE08BDB5
:109D500008B5FFF7A5FE08BD08B5FFF7A1FE08BDD1
:109D600008B5FFF79DFE08BD08B5FFF799FE08BDD1
:109D700008B5FFF795FE08BD08B504F0E9FE08BD7B
:109D80007047000008B500F05BF9003018BF0120F3
:109D9000014B187008BD00BFF80300200020704779
:109DA00000280CBF01224FF0FF320B4B024430B5AC
:109DB00003EB820203EB80050023184635F83310CD
:109DC00052F83340013301EB1441102B00EB6100DA
:109DD000F4D1C0F38F0030BDFC03002008B502466B
:109DE00044210248FFF7C3FE08BD00BF5C0300200A
:109DF00000B583B000911346024644210248FFF7A4
:109E00008BFE03B05DF804FB5C03002008B50B4635
:109E1000024644210148FFF7E1FE08BD5C03002033
:109E200070B582B005461548FFF745FF08B902B086
:109E300070BD35F8024FC4F30234A4000234104B55
:109E400064F07F021A710D4E0522009243224421D4
:109E50003046FFF798FE00942B46432244213046BB
:109E6000FFF791FE04230093064B43224421304622
:109E7000FFF789FE3046FFF7FCFED8E75C030020C1
:109E8000000000205487010810B504461048FFF771
:109E900012FF00B900BE4320FFF7A0FFA21C022161
:109EA0004320FFF7A5FF6188C1F3023149B9094A90
:109EB00004214320FFF79CFF0548FFF7DAFE00204E
:109EC00010BD221D89004320FFF792FFEFE700BF7E
:109ED0005C0300207C04002010B5044608F0C6FD99
:109EE000012803D00848FFF7E6FE58B122460721B3
:109EF0003C20FFF77DFF08F0B9FD012802D00248A1
:109F0000FFF7B7FE10BD00BF5C03002008B508F0E6
:109F1000ADFD012803D00A48FFF7CDFE70B1442102
:109F20000620FFF773FF04210720FFF76FFF08F0FB
:109F30009DFD012802D00248FFF79BFE08BD00BF2F
:109F40005C03002000B583B002AA002302F8013DA3
:109F500001210846FFF74CFF9DF807000138C0B209
:109F6000FD288CBF0020012003B05DF804FB000039
:109F700038B53248FFF79FFE044608B9204638BD81
:109F800001210C20FFF742FF022007F074FCFFF7CD
:109F9000D9FF04460028F1D00F210B20FFF736FF30
:109FA00000210A20FFF732FF00210E20FFF72EFFCD
:109FB00000210F20FFF72AFF0C210620FFF726FFC4
:109FC00007210920FFF722FF00210820FFF71EFFCD
:109FD00004210720FFF71AFF07210220FFF716FFD1
:109FE0000A2007F048FC4020FFF7F8FE05460B2149
:109FF0000220FFF70BFF0A2007F03DFC4020FFF78F
:10A00000EDFE05F0030500F0030085420DD9252182
:10A010000320FFF7FBFE07210220FFF7F7FE0748AA
:10A02000FFF727FEFFF772FFA8E726210320FFF7BF
:10A03000EDFE0B210220FFF7E9FEF0E75C030020B4
:10A0400008B544210148FFF7D5FD08BD5C03002099
:10A0500070470000034B0360034B0B604023136009
:10A06000704700BF800500208004002008B50DF077
:10A07000CDFA012007F0FFFBFBE708B50DF0BAF9B8
:10A08000012007F0F8FBFBE708B50DF053FB0120BA
:10A0900007F0F1FBFBE708B50CF00CFD012007F021
:10A0A000EAFBFBE730B5102495B0224600210CA84E
:10A0B0000DF00CFD142200210DEB02000DF006FD49
:10A0C0002246002101A80DF001FD02254FF4803346
:10A0D0000922CDE91153CDE90A2301224FF4E013FF
:10A0E0000AA80E921092139303F05EFC0F23002433
:10A0F000CDE905354FF4A063294605A8CDE907430E
:10A10000099303F029FE122301A80193CDE903442A
:10A1100003F0FCFE15B030BD002480B54FF00208FE
:10A120000127A2B0C74D00F0FFFDFFF7BBFF1D9454
:10A13000AB691AA943F02003AB61AB69C24803F0D5
:10A1400020030293029BAB694FF4807643F0040333
:10A15000AB61AB6903F004030393039BAB6943F06A
:10A160000803AB61AB691C9703F008030493049BDD
:10A17000B64BCDE91A8301F0DFFD4FF402431AA973
:10A18000B148CDE91A341C9701F0D6FD1AA9AE48A2
:10A19000CDE91A641C9401F0CFFD22460A21072064
:10A1A00001F00CFB072001F03DFB6B6922463B43AD
:10A1B0006B616B6905213B4001930B20019B01F012
:10A1C000FDFA0B2001F02EFB22460521102001F0A4
:10A1D000F5FA10209E4D01F025FB224605211120A5
:10A1E00001F0ECFA112001F01DFB2B681C22214626
:10A1F0001AA8DB6B0C94CDE9134415940DF066FCA2
:10A20000944B28462B604FF46023AE602F73EB61B4
:10A210002F612C756C6000F0A9FF4FF4803322AEE3
:10A2200046F8583D3146284601F08AFA062313A91C
:10A230002846CDE91387159300F05EFE0823CDE98B
:10A240001A374FF4805304271AA9284620931E97E3
:10A250001C948DF87D408DF87C401D9401F08CF9A4
:10A260001AA92846CDF86C8001F086F903231AA9B3
:10A2700028461B9301F080F91AA928461B9701F084
:10A280007BF9284600F0F2FF04460028F9D11C2291
:10A290000146CDE913001AA80DF018FC4FF08049D3
:10A2A00023236D4D0127C5E900936323C5E90334DA
:10A2B00080232846AB61AC6004F0BEF813A92846A1
:10A2C000CDE9134404F072FA322360221AA9CDE9D1
:10A2D0001A2328460C221C941E9404F005F92846E3
:10A2E00000F0D6FB5D485E495E4BC0E90244C0E920
:10A2F00000134FF48043C0E90644C0E9043404620B
:10A3000001F0E6FF1C2221461AA8574DCDE913445F
:10A3100015940DF0DBFB554B28462B604FF48073F2
:10A32000AB604FF460232F73EB612F614FF0020895
:10A330002C756C6000F01AFF062313A92846CDE99E
:10A340001387159300F0D8FD0823CDE91A370427A9
:10A350001AA928461E971C948DF87D408DF87C40E4
:10A360001D9401F009F91AA92846CDF86C8001F076
:10A3700003F903231AA928461B9301F0FDF81AA933
:10A3800028461B9701F0F8F8284600F06FFF0446B6
:10A390000028F9D13648374A324BC0E90244C0E9B7
:10A3A00000234FF48043C0E90644C0E9043404624A
:10A3B00001F08EFF1C22214613A874600C940DF04E
:10A3C00085FB202221461AA80DF080FB4FF29373E3
:10A3D000294D2A4940F21B10C5E900134FF40073C0
:10A3E00002274FF004084FF06009C5E9030328462F
:10A3F000AC60C5E9054404F01FF831462846CDE9B4
:10A400000C4404F0D3F9224613A92846CDE915746B
:10A41000CDE91784CDE91394199404F065F840F25E
:10A420000D130C2213A92846CDE9143404F05CF86E
:10A430004FF400531AA928461F93CDE91A44CDE9D9
:10A440001C441DE000100240000C014000002110DF
:10A450006824002000240140A82500204019002085
:10A4600000540040801A06002C24002000280140DF
:10A47000A818002000580040382A0020002C014075
:10A480001E94219404F0C4F90C21284604F0E6F847
:10A490002146284604F088F9284603F099FE1C223C
:10A4A00021461AA8CDE913440DF010FB2323DFF851
:10A4B00078C14E4DC5E900C3FF232846C5E90334E2
:10A4C000AC60AC6103F0B8FF13A92846CDE9134492
:10A4D00004F06CF942461AA928461C97CDE91A9453
:10A4E0001E9404F001F8284600F0D2FA0623DFF8A3
:10A4F0003CE13F48DFF83881C0E900E36423836032
:10A5000003F0B2F908233B483B4DC0E90083876064
:10A51000C0E90644046203F0CEF9FFF763F9FFF7E0
:10A5200041F9364800F09EFD354800F09BFD2022A1
:10A530003449324800F0B2FF304800F0FFFE3048A6
:10A5400000F0FCFE2D4800F04FFF05AF2C4800F056
:10A550004BFFFFF747F90FCD0FC795E8070087E8D6
:10A560000700214605A807F070F93746264B05F18C
:10A570000C0C1860BCE80F000FC79CE8070087E8C8
:10A5800007002146304607F060F9204B05F1280707
:10A5900013AE18600FCF0FC697E8070086E80700D4
:10A5A000214613A807F051F9194B1AAE443518602B
:10A5B0000FCD0FC695E8070086E8070021461AA8C8
:10A5C00007F043F9134B1E9A1860134B1A80134B74
:10A5D000099A1A80124B109A1A80124B179A1A80F5
:10A5E000FFF700F907F02CF9FEE700BFF029002083
:10A5F0005C240020402100200086010868240020FF
:10A600002C240020FC030020802A00204018002079
:10A610009419002060250020E4050020E8050020B2
:10A62000E6050020EA05002000040040003000405C
:10A63000005C00400FB404B0704700000268144B87
:10A6400010B59A42044617D1124B1A88013A92B2B9
:10A650001A80114A1178114AC9B212685163516BBC
:10A6600009B901215163526B0C210D4862B11B885D
:10A670009BB24BB103F0F2FF22680A4B9A4206D11B
:10A68000BDE8104000F062BB04F026F8F4E710BD0E
:10A69000002C01408402002088020020382A00207B
:10A6A000A825002000080040704700001FB52E4C70
:10A6B0000022A3690F2143F00103A361A3696FF096
:10A6C000030003F001030193019BE36943F080530E
:10A6D000E361E36903F080530293029B01F06EF89B
:10A6E00000220F216FF0010001F068F81F4A6FF09F
:10A6F0000B00536823F0E06343F0007353600022C3
:10A70000A369114643F00103A361A36903F00103A8
:10A710000393039B01F052F800226FF00A001146E8
:10A7200001F04CF800226FF00900114601F046F8E4
:10A7300000226FF00400114601F040F800226FF093
:10A740000300114601F03AF800220F216FF00100DA
:10A7500001F034F800220F214FF0FF3004B0BDE8C3
:10A76000104001F02BB800BF001002400000014073
:10A7700030B505468BB01022002106A80DF0A6F9D1
:10A780002B68414A93424FD1404B03249A6906A952
:10A7900042F400729A619A693D4802F40072009294
:10A7A000009A9A6942F004029A619A6902F00402DE
:10A7B0000192019A9A6942F008029A619B6903F03A
:10A7C00008030293029B0423CDE9063401F0B4FA96
:10A7D000012306A92F48CDE9063401F0ADFA002384
:10A7E0002D4C2E4AA360C4E9002380214FF400734E
:10A7F0004FF40060C4E903132023C4E905034FF4B8
:10A8000040532046E36101F01BF808B1FFF74CFF0D
:10A810002C626562122000220F2100F0CFFF12206F
:10A8200001F000F80BB030BD1D4A9342FAD1174B2E
:10A8300003249A6906A942F480629A619A691448CD
:10A8400002F480620392039A9A6942F004029A61C8
:10A850009A6902F004020492049A9A6942F008028A
:10A860009A619B6903F008030593059B1423CDE9C6
:10A87000063401F061FA012306A90648CDE9063441
:10A8800001F05AFAC6E700BF002401400010024060
:10A8900000080140000C0140981900200800024007
:10A8A00000280140102230B5054689B00DEB0200AA
:10A8B00000210DF00BF92B68464A93425AD1464CC1
:10A8C000C020A36904A943F00803A361A36903F0AE
:10A8D00008030093009B1223CDE9040303233F48A0
:10A8E000079301F029FAE369802243F40013E3613E
:10A8F000E3693B4C03F400130193019B0023DFF851
:10A90000F0C02046C4E900C3A360C4E90323C4E93E
:10A910000533E36100F094FF08B1FFF7C5FE102393
:10A92000AC6365622F49304C8022C4E900130023D8
:10A93000C4E90232C4E90433A3614FF480532046D2
:10A94000E36100F07DFF08B1FFF7AEFE00220F21AA
:10A950001F206C63656200F031FF1F2000F062FF72
:10A96000202000220F2100F029FF202000F05AFFB4
:10A9700009B030BD1D4A9342FAD1174C4FF44062E2
:10A98000A36904A943F00803A361A369134803F072
:10A9900008030293029B1223CDE9042303230793A8
:10A9A00001F0CAF9E369002243F48003E361E3693B
:10A9B0000F2103F4800303932120039B00F0FEFE8C
:10A9C000212000F02FFF222000220F2100F0F6FEB0
:10A9D0002220CBE70054004000100240000C014050
:10A9E000642500206C000240FC1800200058004044
:10A9F000800002401FB50368224A93421CD1224BBB
:10AA00000F219A69192042F400629A619B69002221
:10AA100003F400630193019B00F0D0FE192000F0C5
:10AA200001FF1B2000220F2100F0C8FE1B2005B0F3
:10AA30005DF804EB00F0F6BEB3F1804F0DD103F5E5
:10AA40000433DA6942F00102DA61DB6903F00103E1
:10AA50000293029B05B05DF804FB0C4A9342F9D1C6
:10AA6000094B1D20DA690F2142F00202DA61DB692D
:10AA7000002203F002030393039B00F09FFE1D20BE
:10AA8000D5E700BF002C0140001002400004004048
:10AA900010B5044686B01022002102A80DF016F869
:10AAA0002368B3F1804F1AD103F504339A69082162
:10AAB00042F004029A619B69154803F00403009375
:10AAC000009B0223CDE90213032302A9059301F0A1
:10AAD00033F90C210F4803F0C1FD06B010BD0E4A3A
:10AAE0009342FAD10D4B02A99A69094842F0040237
:10AAF0009A619B69802203F004030193019B022366
:10AB0000CDE902230323059301F016F9E5E700BF21
:10AB100000080140A8250020000400400010024069
:10AB20000268084B82B09A420AD103F5DA33DA6937
:10AB300042F40002DA61DB6903F400030193019B34
:10AB400002B07047005C004010B5014688B000229A
:10AB50001E2000F033FE1E2000F064FE144B01A9FD
:10AB6000DA6903A842F00402DA61DB69114C03F0F0
:10AB700004030293029B03F0ABF903F089F90E4B37
:10AB80004000236040F2E733E3600C4BB0FBF3F08E
:10AB900000230138606020462361A36003F020FC9D
:10ABA00020B9204603F014FB08B010BD0120FBE7DC
:10ABB00000100240442D00200008004040420F00D9
:10ABC0007047FEE7FEE7FEE7FEE77047022001F070
:10ABD0009FB90000014800F0E9BE00BF98190020AD
:10ABE000014800F0E3BE00BFFC180020014800F05F
:10ABF000DDBE00BF6425002008B5044800F0F7F86A
:10AC0000BDE80840024800F0F2B800BF6824002008
:10AC10002C240020014803F008BB00BF382A002084
:10AC2000FFF7F8BF014803F000BB00BFF029002088
:10AC3000014803F0FABA00BF442D0020014802F099
:10AC400027B900BF40190020014802F071BD00BFC4
:10AC500040190020014802F01BB900BFA8180020CD
:10AC6000014802F065BD00BFA81800200120704710
:10AC700008B50CF0CDFE162303604FF0FF3008BD81
:10AC800008B50CF0C5FE16230360FEE70B4B10B5AC
:10AC90001968024609B90A491960186809490A4C35
:10ACA0000244091B8A4206D90CF0B2FE0C23036051
:10ACB0004FF0FF3010BD1A60FCE700BFEC0500202C
:10ACC000B82D00200050002000040000014B024A73
:10ACD0009A60704700ED00E000900008002103E05A
:10ACE0000B4B5B58435004310A480B4B42189A42B5
:10ACF000F6D30A4A02E0002342F8043B084B9A428A
:10AD0000F9D3FFF7E3FF0CF089FEFFF705FA704770
:10AD1000E0CF010800000020680200206802002047
:10AD2000B42D0020FEE70000074A08B51368032091
:10AD300043F01003136000F02FFD0020FFF704FF25
:10AD4000FFF7B4FC002008BD00200240034A044B7A
:10AD500011681B780B441360704700BF8C2D0020D6
:10AD60000C000020014B1868704700BF8C2D00209C
:10AD700038B50446FFF7F6FF0546631C1EBF044BBB
:10AD80001B78E418FFF7EEFF401BA042FAD338BD52
:10AD90000C000020436A10B59A6A12F0500F1BD1C4
:10ADA0009A6A42F400729A621A68926802F4602207
:10ADB000B2F5602F0CD11A7B52B99A6A22F48072D4
:10ADC0009A629A6AD2045EBF9A6A42F001029A625B
:10ADD0001846FEF7B7FF10BD1B6ABDE810401B6B9D
:10ADE000184708B5406AFEF7AEFF08BD7047036814
:10ADF00010B55A680446900627D51A68910724D5DD
:10AE0000A26AD2065EBFA26A42F40072A2629A6887
:10AE100002F46022B2F5602F10D1227B72B95A6819
:10AE200022F020025A60A36A23F48073A362A36A0B
:10AE3000DB045EBFA36A43F00103A3622046FEF772
:10AE400081FF6FF0120223681A6023685A681006A7
:10AE500030D51A6851072DD5A26AD2065EBFA26A04
:10AE600042F40052A2629A6802F4E042B2F5E04F66
:10AE70000AD05A68500516D49A6802F46022B2F5D6
:10AE8000602F10D1227B72B95A6822F080025A607A
:10AE9000A36A23F48053A362A36AD9055EBFA36AA1
:10AEA00043F00103A3622046FEF728FF6FF00C0277
:10AEB00023681A6023685A6852060DD51B68DB07A1
:10AEC0000AD5A36A204643F48033A362FFF78EFFBE
:10AED0006FF0010223681A6010BD7047406A08B520
:10AEE000836A43F040038362C36A43F00403C3628E
:10AEF000FFF7F3FF08BD0000002373B5019390F83E
:10AF00002430012B6DD001234D6880F82430062DAC
:10AF1000026805EB85030C6823D81F26556B053B9B
:10AF20009E4025EA060504FA03F32B435363092CDC
:10AF30008B6804EB44054FF007012AD9D6681E3D03
:10AF4000A94026EA0101AB400B43D360A4F11003F2
:10AF5000012B26D90023002280F82420184602B0B5
:10AF600070BD0C2D4FF01F0509D8166B233B9D407B
:10AF700026EA050504FA03F32B431363D7E7D66AE1
:10AF8000413B9D4026EA050504FA03F32B43D362B7
:10AF9000CDE71669A94026EA0101AB400B431361D6
:10AFA000D4E7114B9A4216D193681B02D2D493680E
:10AFB000102C43F400039360CCD10C4B0C4A1B685B
:10AFC000B3FBF2F20A2353430193019B002BC1D040
:10AFD000019B013BF8E7836A43F02003836201236E
:10AFE000B9E70223BAE700BF0024014008000020AF
:10AFF00040420F00002373B50193036804469A682A
:10B00000D20702D5002002B070BD9A6842F001025A
:10B010009A60124B124A1B68B3FBF2F30193019B37
:10B02000C3B9FFF79FFE064623689D6815F001052A
:10B03000E8D1FFF797FE801B0228F5D9A36A84F8B0
:10B04000245043F01003A362E36A012043F001039C
:10B05000E362D8E7019B013BE0E700BF0800002066
:10B0600040420F0090F8243010B5012B044654D014
:10B07000012380F82430FFF7BDFF002849D1A36ADF
:10B08000274A23F4407323F0010343F48073A3623F
:10B090002368934204D123494A6812F4702F2ED1B9
:10B0A000A26A22F48012A2625A68520541BFA26AC3
:10B0B00022F4405242F48052A262A26A12F48052F8
:10B0C0001CBFE26A22F00602E262002284F8242019
:10B0D0006FF002021A609A6802F46022B2F5602FE3
:10B0E00013D10F4A934205D1A2F58062526812F43F
:10B0F000702F0AD19A6842F4A0029A6010BDA26A29
:10B1000042F48012A2624A68CFE79A6842F4801241
:10B11000F3E7002384F82430F0E70220EEE700BFD5
:10B12000002801400024014038B5036804469A68AD
:10B13000D20701D4002038BD9A6822F001029A603B
:10B14000FFF710FE054623689B68DB07F2D5FFF783
:10B1500009FE401B0228F6D9A36A012043F0100320
:10B16000A362E36A43F00103E362E4E770B50446D7
:10B17000002870D0836A23B9C36280F82430FFF7B7
:10B18000F7FA2046FFF7D0FFA36A13F0100FA36A67
:10B1900063D1002861D1E16923F48853626823F008
:10B1A000020343F002030A43A168A362237BB1F5C3
:10B1B000807F42EA430237D0012914BF06464FF48C
:10B1C0008076257D012D06D183BBA369013B46EA2C
:10B1D000433545F400662368B1F5807F5D6825F44A
:10B1E000694545EA06055D609E681E4D05EA06054F
:10B1F00045EA02059D6001D0012920D1216901396C
:10B200000905DD6A25F470052943D9629968164B52
:10B210000B409A4215D10023E362A36A23F0030393
:10B2200043F00103A36270BD0E46CAE7A36A43F070
:10B230002003A362E36A43F00103E362CBE700214A
:10B24000DFE7A36A23F0120343F01003A362E36A6B
:10B2500043F00103E3620120E5E743F01003A3623A
:10B26000F9E700BFFDF7E1FFFE0E1FFF002373B5F6
:10B27000019390F824300446012B5AD0012380F822
:10B280002430FFF751FF0546002832D1A36A02207F
:10B2900023F4885323F0020343F00203A362264BF6
:10B2A0001E6802F0ABFEB6FBF0F040000190019B7F
:10B2B0001BBB2046FFF79EFE2268936843F00803FD
:10B2C0009360FFF74FFD064623689A68120718D46B
:10B2D0009A6842F004029A60FFF744FD064623682C
:10B2E0009B685B071FD4A36A23F0030343F00103A9
:10B2F000A362002384F8243012E0019B013B0193F8
:10B30000D5E7FFF72FFD801B0A28DDD9A36A0125A9
:10B3100023F0120343F01003A362002384F82430C7
:10B32000284602B070BDFFF71DFD801B0A28D6D944
:10B33000ECE70225F4E700BF0800002090F8243075
:10B3400010B5012B04464AD0012380F82430FFF7C2
:10B3500051FE00283FD1A36A224A23F4405323F030
:10B36000010343F48053A3622368934205D1A2F5FD
:10B370008062526812F4702F25D1A26A22F48012E2
:10B38000A262A26A12F4807208BFE262002284F80C
:10B3900024206FF004021A605A68520512D49A6889
:10B3A00002F4E042B2F5E04F11D10E4A934205D1CA
:10B3B000A2F58062526812F4702F08D19A6842F4A4
:10B3C00002129A6010BDA26A42F48012D8E79A680D
:10B3D00042F40042F5E7002384F82430F2E702202B
:10B3E000F0E700BF0028014090F8243010B5012B91
:10B3F00004464ED0012380F82430FFF7FBFD0028DF
:10B4000043D1A36A244A23F4405323F0010343F4B5
:10B410008053A3622368934205D1A2F580625268EB
:10B4200012F4702F29D1A26A22F48012A262A26AB9
:10B4300012F4807208BFE262002284F824206FF0C8
:10B4400004021A605A6842F080025A605A68520533
:10B4500012D49A6802F4E042B2F5E04F11D10E4ADC
:10B46000934205D1A2F58062526812F4702F08D180
:10B470009A6842F402129A6010BDA26A42F48012E5
:10B48000D4E79A6842F40042F5E7002384F82430B8
:10B49000F2E70220F0E700BF00280140F0B590F885
:10B4A00024308DB0012B04460E46174658D0012596
:10B4B0002C4B80F8245000939B6803F46023B3F571
:10B4C000602F07D0836A43F020038362002384F84F
:10B4D000243042E0FFF78EFD05460028F6D168468D
:10B4E000FFF788FD05460028F0D1A26A1E4B2168AF
:10B4F000134043F48073A3624B68206A5B0548BF26
:10B50000A36A324642BF23F4405343F48053A362FC
:10B510000023E36284F82430144B4C318362144BD3
:10B52000C362144B03636FF0020341F84C3C51F8C3
:10B53000443C43F4807341F8443C3B4600F0B0F98E
:10B5400023689A6802F46022B2F5602F9A680CBFF3
:10B5500042F4A00242F480129A6028460DB0F0BD79
:10B560000225FAE700280140FEFCEFFF95AD000838
:10B57000E3AD0008DDAE0008F7B50246002092F802
:10B5800024300190012B00F0D180D1E90056012731
:10B59000D2F808C082F824701368BCF1000F7AD189
:10B5A000BE4272D160469C6BA40DA40544EAC5342A
:10B5B0009C639C68E40707D49C688F6924F4E0448A
:10B5C00024F001043C439C604C7D012C0DD18F691B
:10B5D000B7F5E04F17BF906A5F6840F020009062B7
:10B5E00012BF204647F480675F600F7D012F05D1B1
:10B5F000002C70D15C6844F480545C60092D05EB2C
:10B600004504D1F808E04FF007076AD9D3F80CC019
:10B610001E3CA7402CEA07070EFA04F43C43DC600A
:10B62000A5F11004012C98BF9F68DFF810C19CBFE2
:10B6300047F400079F60022ECF685CD0032E60D0D5
:10B64000012E64D1596901EA0C0139435961012C79
:10B6500016D837498B4263D19968090210D499688A
:10B66000102D41F4000199600AD1324B32491B6818
:10B67000B3FBF1F10A234B430193019B002B4CD107
:10B68000002382F8243003B0F0BD946A384644F0B9
:10B69000200494628DE71F27D1F810C0A6EB0C049C
:10B6A00004EB84040F34A74047F44017B4456FEA15
:10B6B00007070CD3D3F838E00CF1FF3C05FA04F48B
:10B6C00044EA0C540EEA07073C439C6371E79C6B09
:10B6D00027409F636DE7906A40F0200090623846F3
:10B6E0008CE7D3F810C0A7402CEA07070EFA04F441
:10B6F00027431F6194E7996901EA0C013943996175
:10B70000A5E7D96901EA0C013943D9619FE7196AB4
:10B7100001EA0C013943196299E7019B013BABE750
:10B72000936A012043F020039362A9E70220AAE76D
:10B73000002401400800002040420F0000F0FFFFFD
:10B7400090F8243010B5012B02461FD00123046865
:10B7500080F82430A368DB0712D40D4B9B6813F0EC
:10B7600001030DD10B4884420AD16068096820F4B6
:10B770007020014318466160002382F8243010BD18
:10B78000936A012043F020039362F5E70220F6E775
:10B790000028014000240140074A0002D36800F459
:10B7A000E06023F4E0631B041B0C43F0BF6343F42D
:10B7B00000330343D360704700ED00E0174B70B5D2
:10B7C000DC684FF0FF36C4F30224C4F10705042DF2
:10B7D00004F1040328BF0425062B98BF002406FAB1
:10B7E00005F388BF033C21EA0303A34006FA04F4EF
:10B7F00022EA0404002843EA0403A8BF00F16040E1
:10B800004FEA0313B8BF064ADBB2ABBF00F5614095
:10B8100000F00F0080F80033135470BD00ED00E01D
:10B8200014ED00E0002808DB0123420900F01F00AE
:10B8300003FA00F0014B43F82200704700E100E0FA
:10B8400010B530B314220168134B0B44B3FBF2F371
:10B850009B000364114B0A68C363D0E9013423439E
:10B86000C46822F47F522343046922F03002234348
:10B870004469234384692343C469234313430B600E
:10B880000122002380F82120836380F820301846AD
:10B8900010BD0120FCE700BFF8FFFDBF0000024023
:10B8A000F0B590F82040012C35D0012490F82150BB
:10B8B00080F82040A5424FF000064FF0020428D146
:10B8C00080F8214004688663266826F00106266019
:10B8D000D0E90F67BD407560636043680568102B51
:10B8E000C36A0BBFA260A160E160E2604BB1236854
:10B8F00043F00E03002023602B6843F001032B600C
:10B90000F0BD236823F004032360236843F00A0397
:10B91000F0E780F820600220F2E7000090F8213084
:10B9200010B5022B03D004238363012010BD0368EC
:10B930001A6822F00E021A601A6822F001021A60D8
:10B94000184A93421FD0143293421ED014329342AD
:10B950001DD0143293421DD0143293421DD01432A4
:10B9600093420CBF4FF480134FF080730E4A0024B3
:10B970005360012380F82130436B80F820407BB175
:10B9800098472046D2E70123F0E71023EEE74FF473
:10B990008073EBE74FF48053E8E74FF48033E5E73B
:10B9A0001846C3E7080002400000024070B40425B6
:10B9B000C66B026C3468036895402542196832D022
:10B9C0004D0730D51A6896065EBF1A6822F0040249
:10B9D0001A603E4A934219D01432934218D014325E
:10B9E000934217D01432934217D01432934217D097
:10B9F000143293420CBF4FF480034FF08063344AFB
:10BA00005360C36A002B5ED070BC18470423F6E76E
:10BA10004023F4E74FF48063F1E74FF48043EEE70F
:10BA20004FF48023EBE702259540254235D08D0762
:10BA300033D51A68940606D41A6822F00A021A60EE
:10BA4000012280F82120214A934219D014329342D6
:10BA500018D01432934217D01432934217D01432B4
:10BA6000934217D0143293420CBF4FF400134FF09F
:10BA70000073174A5360002380F82030836AC1E7BF
:10BA80000223F6E72023F4E74FF40073F1E74FF4C5
:10BA90000053EEE74FF40033EBE7082595402542CD
:10BAA00011D009070FD5196821F00E011960012383
:10BAB00003FA02F27260836380F82130002380F879
:10BAC0002030036B9EE770BC704700BF0800024047
:10BAD0000000024090F8210070470000114AD3682E
:10BAE00013F0100305D01049CB6943F00203CB617A
:10BAF0001023D268500706D50B4943F00403CA69E6
:10BB000042F00102CA61074AD169C90708D506484F
:10BB1000C16941F00401C161D16921F00101D16124
:10BB2000D360704700200240902D0020064B18691A
:10BB300010F0800007D0054A5A6002F188325A603E
:10BB40001869C0F3C0107047002002402301674508
:10BB5000034A0020136943F080031361704700BF5C
:10BB600000200240F8B50646FFF7FCF8114C0746E6
:10BB70002546E368D80712D4E368990644BF20231A
:10BB8000E360EB68DA0606D4EB69DB0703D4E86808
:10BB900010F0040007D0FFF7A1FF012003E0731CA1
:10BBA000E7D00EB90320F8BDFFF7DCF8C01BB042A8
:10BBB000DFD9F7E7002002402DE9F84F244C1E465C
:10BBC000237E0546012B0F4690463FD001234CF2C1
:10BBD00050302376FFF7C6FFA0BB012D03D0022D06
:10BBE0000CBF022504254FF00009CB46DFF864A006
:10BBF0004FEA0913C3F12001A3F1200206FA01F173
:10BC000028FA03F3C4F81CB00B4326FA02F21343DC
:10BC1000DAF810209BB242F00102CAF810204CF270
:10BC2000503027F81930FFF79DFFDAF8103023F075
:10BC30000103CAF8103028B909F101095FFA89F344
:10BC40009D42D5D800232376BDE8F88F0220FBE77C
:10BC5000902D0020002002400022064BDA61064BA6
:10BC60001A6942F004021A611A6942F040021A612C
:10BC7000704700BF902D0020002002400022064B9C
:10BC8000DA61064B1A6942F002021A6158611A69B8
:10BC900042F040021A617047902D002000200240BF
:10BCA0002DE9F041224D07462B7E8846012B3DD0E1
:10BCB000012403682C76022B4CF2503013D1FFF78D
:10BCC00051FF20B1012000232B76BDE8F081FFF762
:10BCD000C3FF4CF25030FFF745FF164A136923F0BB
:10BCE00004031361EFE7FFF73DFF0028EAD14FF0AF
:10BCF000FF33C8F800302046BE680E4CD7E9023248
:10BD000003EB8223B342DED93046FFF7B7FF4CF294
:10BD10005030FFF727FF236923F00203236110B19E
:10BD2000C8F80060CFE706F58066E7E70220CCE7B9
:10BD3000902D0020002002402DE9F74F00242646D8
:10BD4000654BDFF8A4C1DFF8A4E10A6832FA06F512
:10BD500002D103B0BDE8F08F4FF0010808FA06F8F1
:10BD600002EA080290457ED14D68122D00F0A980AC
:10BD700000F28280022D00F0A18076D8002D00F024
:10BD80008880012D00F098804FF00F09FF2A93BFA3
:10BD9000824606F18045083DD0F800B092BFB5005C
:10BDA000D0F804B0AD0009FA05F82BEA080804FA47
:10BDB00005F588BF00F1040A48EA0505CAF80050F5
:10BDC000D1F804A01AF0805F4DD0444F26F003084C
:10BDD000BD6908F1804845F00105BD61BD6908F500
:10BDE000803805F00105019506F0030B019D4FEA2F
:10BDF0008B0BD8F8085009FA0BF925EA0909384DD8
:10BE0000A84263D005F58065A84261D005F580653C
:10BE1000A8425FD005F58065A8420CBF0325042524
:10BE200005FA0BF545EA0905C8F808501D681AF42B
:10BE3000803F14BF154395431D605D681AF4003FB1
:10BE400014BF154395435D609D681AF4801F14BFAD
:10BE5000154395439D60DD681AF4001F14BF2A4303
:10BE600025EA0202DA6001366FE7032D22D0112D98
:10BE70008AD1CC68043487E71A4FBD4209D012D862
:10BE8000DFF86C904D4504D009F580394D457FF4BD
:10BE90007BAF8C68C4B1012C0CBFC0F81080C0F817
:10BEA0001480082470E76545F3D07545F1D0DFF8BC
:10BEB0004490EBE7002467E7CC6865E7CC6808347A
:10BEC00062E7CC680C345FE704245DE70025A7E750
:10BED0000125A5E70225A3E7000401400010024068
:10BEE0000008014000002110000031100000321055
:10BEF00000001110000022108368194214BF0120B5
:10BF0000002070470AB1016170470904FBE7000097
:10BF100008B5044B5969014202D05861FDF72CFF66
:10BF200008BD00BF00040140016800224B6913F402
:10BF3000806310D06FF480634B612023026380F82C
:10BF40003D3080F83E20036C80F83C2043F0040331
:10BF5000036401207047184670472DE9F0410446FC
:10BF6000164698468FB22568686937EA000017D0F0
:10BF70006B695A0516D52B68202243F400732B6099
:10BF80006FF480636B610023236384F83D2084F8A1
:10BF90003E30226C42F004020120226484F83C30DE
:10BFA000BDE8F081731CDFD0FEF7DCFEA0EB0800DB
:10BFB000B04201D8002ED6D100232022236384F87A
:10BFC0003D2084F83E30226C42F02002E4E770B558
:10BFD00004460D46164623685B695B0701D50020C1
:10BFE00070BD2046FFF7A0FFA8B96A1CF3D0FEF78A
:10BFF000B9FE801BA84201D8002DECD100232022DD
:10C00000236384F83D2084F83E30226C84F83C3071
:10C0100042F0200222640120E2E770B504460D469A
:10C0200016462068436913F0400301D0002010E059
:10C030004269D2060ED56FF01002426120222363BE
:10C0400084F83D2084F83E30226C0120226484F87C
:10C050003C3070BDFEF786FE801BA84201D8002D43
:10C06000DFD100232022236384F83D2084F83E3072
:10C07000226C42F02002E8E72DE9F843044690469E
:10C080001F46089E4FEA11498DB22168B9F1010F90
:10C090000CBF4B698B6935EA03030CBF01230023F6
:10C0A000984501D0002016E07B1CEFD0FEF75AFE29
:10C0B000801BB84201D8002FE7D1002320220120A5
:10C0C000236384F83D2084F83E30226C84F83C30B1
:10C0D00042F020022264BDE8F88370B504460D46A4
:10C0E000164623685B691B0601D5002070BD2046FB
:10C0F000FFF71AFFA8B96A1CF3D0FEF733FE801BC6
:10C10000A84201D8002DECD100232022236384F81B
:10C110003D2084F83E30226C84F83C3042F020020E
:10C1200022640120E2E700002DE9FF411546026884
:10C13000984613680B9E43F4807313600F460A9B66
:10C14000009600224FF001110446FFF795FF236887
:10C1500038B11B68DB0502D54FF40073236403205C
:10C160000AE007F0FE071F610A9A33461849204685
:10C17000FFF7F3FE18B1012004B0BDE8F081236899
:10C1800003905A690A9903929B69324603932046A9
:10C19000039BFFF7A2FF40B1236C042B01BF226871
:10C1A000136843F400731360E5E7B8F1010F2368E7
:10C1B00002D1EDB21D61DFE72A0A1A610A993246FF
:10C1C0002046FFF78AFF0028E6D12368F1E700BF89
:10C1D000020001002DE9FF419846036816461A68DF
:10C1E0000B9D42F480621A601A680F4642F4807216
:10C1F0001A604FF001110A9B009500220446FFF7D8
:10C200003BFF236848B11B68DB0502D54FF4007380
:10C210002364032004B0BDE8F081FFB207F0FE0202
:10C220001A612A492B460A9A2046FFF796FE08B162
:10C230000120EFE7236803905A690A9903929B69EA
:10C240002A4603932046039BFFF747FF40B1236C28
:10C25000042B01BF2268136843F400731360E7E7FF
:10C26000B8F1010F236825D1F6B21E612A460A995A
:10C270002046FFF732FF02460028E8D12168204619
:10C280000B6843F480730B600A9B00954FF001111B
:10C29000FFF7F2FE23680028B5D147F001071F61C0
:10C2A0000A9A2B4609492046FFF757FE003018BF6F
:10C2B0000120AFE7320A1A610A992A462046FFF7A1
:10C2C0000CFF0028C3D12368CEE700BF02000100A5
:10C2D00070B5044608B9012070BD90F83D3003F0F8
:10C2E000FF021BB980F83C20FEF7DCFA242384F817
:10C2F0003D3023681A6822F001021A601A6842F47D
:10C3000000421A601A6822F400421A6001F0C0FD6F
:10C310006368414A93424DD8404A9042DBD9404934
:10C320002268B0FBF1F1556825F03F050D435560DB
:10C33000156A25F03F05013129431162D169364D57
:10C3400021F44F41AB4221F0FF0100F1FF3048D80A
:10C350005B00B0FBF3F0431CC3F30B03042B38BFAB
:10C3600004230B43D3611168D4E9073021F0C001E5
:10C3700003430B4313609168D4E9030321F40341A1
:10C38000034321F0FF010B439360D168D4E90530EA
:10C3900021F0FF0103430B43D3601368002043F0F7
:10C3A000010313602023206484F83D30206384F867
:10C3B0003E0091E71B4A90428DD9194E4FF4967179
:10C3C000B0FBF6F622687143556825F03F0535430A
:10C3D0004FF47A765560156AB1FBF6F125F03F050A
:10C3E000A9E7A56855B903EB4303B0FBF3F0431C81
:10C3F000C3F30B036BB143F40043B2E719256B435E
:10C40000B0FBF3F0431CC3F30B0313B143F44043FD
:10C41000A7E70123A5E700BFA08601007F841E00D7
:10C4200040420F00FF083D002DE9FF4104461F4632
:10C430000D469046FEF796FC94F83D300646202BBC
:10C4400004D00225284604B0BDE8F08100901923ED
:10C4500001225B492046FFF70FFE0028F1D194F836
:10C460003C30012BEDD0012384F83C3023681A685E
:10C47000D2075EBF1A6842F001021A601A6822F4FD
:10C4800000621A60212284F83D20102284F83E20A8
:10C49000002222646785628DC4F824802285494A7F
:10C4A000E262E26A082A04D0012A02D012F5803F33
:10C4B00004D11A6842F480721A6002E0226B122AD8
:10C4C000F7D0002200960A9B4FF001112046FFF79B
:10C4D000D3FD226838B11368DB0544BF4FF4007305
:10C4E00023640125AEE72369B3F5804F21D105F020
:10C4F000FE05156133460A9A33492046FFF72DFDA4
:10C5000005460028EDD1236803905A6903929B6980
:10C510000393039B238DF3B921680A6842F40072E8
:10C520000A60202284F83C3084F83D2084F83E30B4
:10C5300088E7EB1103F0060343F0F003136123498E
:10C5400033460A9A2046FFF708FD0028C9D1236820
:10C55000EDB21D61CEE732460A992046FFF7BDFDD8
:10C5600040B1236C042BBCD12268136843F40073E0
:10C570001360B6E7636A20681A4612F8011B01616E
:10C580006262628D013A92B26285228D4769511EC4
:10C5900089B27F0721850AD549B1597802330161F3
:10C5A0006362638D023A013B9BB26385228532460A
:10C5B0000A992046FFF70BFD0028ABD0D1E700BF5A
:10C5C000020010000000FFFF02000100080001004F
:10C5D00073B50E4611460022019290F83D200446A4
:10C5E000202A02D0022002B070BD46F2A8103E4AB6
:10C5F0001268B2FBF0F0192242430192019A013A0B
:10C600000192019A6AB92023226384F83D3084F8AC
:10C610003E20236C84F83C2043F020032364012057
:10C62000E1E7226890698507E8D494F83C00012886
:10C63000D8D0012084F83C0010680025C0075EBFF8
:10C64000106840F001001060106820F40060106075
:10C65000212084F83D00102084F83E002564638585
:10C66000608D616283B221482385E062666453B3C2
:10C67000606B1F4E456386621E4E1032C0E90B563A
:10C68000FFF70EF998B923681A6842F480621A60BD
:10C690001A6842F480721A605A6884F83C0042F4C6
:10C6A00040725A605A6842F400625A609BE7202345
:10C6B00084F83D3084F83E50236C84F83C5043F0BD
:10C6C00010032364ABE71168184641F480611160E0
:10C6D000116841F480711160516884F83C3041F474
:10C6E000E06151607FE700BF080000200000FFFF0D
:10C6F00079CB00083FCB00082DE9F7430446994663
:10C700000F4690460C9EFEF72DFB94F83D300546F3
:10C71000202B03D0022003B0BDE8F0830090192342
:10C7200001223B492046FFF7A7FC0028F2D194F8EC
:10C730003C30012BEED0012384F83C3023682046A6
:10C740001A68D10758BF1A6839465CBF42F0010227
:10C750001A601A6822F400621A60212384F83D30BE
:10C76000402384F83E30002323640A9BCDE9006512
:10C770006362BDF82C3042466385638D2385254B6B
:10C78000E3624B46FFF7D0FC00282AD00120C2E725
:10C79000FFF7A3FC40B1236C042B01BF2268136890
:10C7A00043F400731360F1E7636A27681A4612F8CE
:10C7B000011B39616262628D218D013A92B26285FC
:10C7C0007A69481E80B2520720850AD548B15A7846
:10C7D00002333A616362638D0239013B9BB221856A
:10C7E0006385238D2A4631462046002BD0D1FFF7A2
:10C7F000EEFB0028CFD12268136843F40073136066
:10C80000202384F83C0084F83D3084F83E0082E721
:10C81000020010000000FFFF2DE9F04399460023BD
:10C82000044689B003930D469046129FFEF79AFA8C
:10C8300094F83D300646202B04D00225284609B046
:10C84000BDE8F0830090192301228E492046FFF7AE
:10C8500013FC0028F1D194F83C30012BEDD00123DA
:10C8600084F83C30236829461A682046D2075EBF08
:10C870001A6842F001021A601A6822F400621A6013
:10C88000222384F83D30402384F83E300023236483
:10C89000109BCDE900766362BDF844304246638563
:10C8A000638D2385784BE3624B46FFF793FC054687
:10C8B00008B10125C2E7228D236892B904905A6914
:10C8C00004929A690492049A1A6842F400721A60F7
:10C8D000202384F83D30002384F83E3084F83C3037
:10C8E000ACE7012A32D11A6822F480621A6072B66B
:10C8F000236805905A6905929A690592059A1A6803
:10C9000042F400721A6062B6DFF88081DFF880912D
:10C91000238D002BDCD0032B00F29580012B31D12D
:10C92000324639462046FFF778FB0028C1D12368FC
:10C930001A69636A1A70636A01336362238D013B6B
:10C940002385638D013B9BB26385E1E7022A1A6868
:10C950000ED142F400621A6072B6236806905A69DA
:10C9600006929A690692069A1A6822F48062C9E7CA
:10C9700042F480621A6007905A6907929B69079394
:10C98000079BC1E7022B00963B464FF00002414651
:10C99000204618D1FFF770FB00288AD172B62368B1
:10C9A0001A6842F400721A601A69636A1A70636A3C
:10C9B00001336362238D013B2385638D013B9BB271
:10C9C000638562B6B3E7FFF757FB00287FF471AFCA
:10C9D0002268136823F48063136072B623681A69AF
:10C9E000636A1A7046F2A812616A4B1C6362238D57
:10C9F000013B2385638D013B9BB26385D9F80030F1
:10CA0000B3FBF2F2232353430393039B013B0393B2
:10CA1000039B6BB92022236384F83D2084F83E30C9
:10CA2000226C42F02002226462B684F83C3040E777
:10CA300023685A695007E8D51A6842F400721A60F0
:10CA40001B694B70B3E7324639462046FFF7E5FADB
:10CA500000287FF42EAF23681A69636A1A70626A2D
:10CA6000531C6362238D013B2385638D013B9BB285
:10CA700063852368596949077FF54AAF1B6953707D
:10CA800059E700BF020010000000FFFF0400010092
:10CA900008000020704770477047704790F83D20AD
:10CAA00008B5036DD2B283B9C36C0268012B836CE5
:10CAB00005D1DBB21361036D0233036508BDC3F317
:10CAC00007231361036D0133F7E7036D012B03D1D6
:10CAD000836C0268DBB2F4E7036D022BEED1222AED
:10CAE00005D10268136843F480731360E6E7438D51
:10CAF0009BB263B1212A0AD1436A026813F8011B71
:10CB000011614362438D013B9BB24385D6E7438D60
:10CB10009BB2002BD2D1212AD0D10268516821F4D6
:10CB2000E0615160116841F40071116020220363DB
:10CB300080F83D2080F83E30FDF70EF9BEE7406AF0
:10CB400008B5436B0BB100229A62836B0BB10022D4
:10CB50009A620268136823F4806313600023202222
:10CB6000438580F83D2080F83E30036C43F010038D
:10CB70000364FDF7F5F808BD70B5446A236894F8BE
:10CB80003D2094F83E00E16A5D68D2B225F440751C
:10CB90005D60656BC0B20DB10026AE62A56B0DB1D4
:10CBA0000026AE6202F02105212D05D002F02205FB
:10CBB000222D23D1202821D15968292A21F400616E
:10CBC00059604FF0000363850DD12123236328238F
:10CBD000204684F83D30FFF75DFF2268536843F438
:10CBE0004073536070BD2A2AF7D122232363282380
:10CBF000204684F83D30FFF74EFFEEE794F83E20E4
:10CC0000002AEFD0628D92B2012A02BF1A6822F484
:10CC100080621A605A6811F5803F22F440725A60AF
:10CC200006D0082904D0B1F12A4F01D0202903D120
:10CC30001A6842F400721A605A6822F480525A60EC
:10CC40005A6822F400625A6000236385236C1BB18A
:10CC50002046FDF785F8C5E7202284F83D2094F8AA
:10CC60003E2084F83E30402A04D123632046FDF75D
:10CC70007FF8B7E7122320462363FDF765F8B1E795
:10CC8000002337B5406A019390F83D202B4BD1B279
:10CC900046F2A8121B68B3FBF2F22323534301931D
:10CCA0000368019A42BB026C42F020020264456BA9
:10CCB0000DB10022AA62846B0CB10022A2621A6834
:10CCC00022F480621A600022428505B16A6304B1D1
:10CCD00062631A6822F001021A6090F83D20602A0F
:10CCE00011D1202380F83D30002380F83E300364CA
:10CCF000FDF73AF803B030BD019A013A01921A6883
:10CD00009205CED4D3E701F02802282A0ED1196863
:10CD100041F001011960196841F480611960002334
:10CD2000036380F83D20FDF71BF8E3E7202380F83C
:10CD30003D30002380F83E30F5E700BF08000020BA
:10CD400090F83D2090F83E1010B5C9B21029044665
:10CD5000D2B2036801D0402905D1222A02BF196846
:10CD600021F40061196002F0280128293DD1002238
:10CD7000226384F83D105A6812F400625DD05A684C
:10CD8000606B22F400625A6090F82130012B3E4B18
:10CD900039D04363FEF7C2FD50B12268606B13685F
:10CDA00023F001031360202384F83D30436B984740
:10CDB000236C19071FBF2268536823F4E063536094
:10CDC00094F83D30226CDBB252070DD5282B0BD1E5
:10CDD0002E4B2022E36200232046236384F83D206B
:10CDE00084F83E30FFF759FE10BD596811F4006118
:10CDF00006D1602A1EBF202284F83D2084F83E1010
:10CE000000222263B7E7A06B4363FEF787FD00288B
:10CE1000CED023685A69510605D51A69636A1A701B
:10CE2000636A013363622268A06B136823F0010315
:10CE30001360202384F83D30B8E794F83D10602952
:10CE400015D1202184F83D1022645A69520605D577
:10CE50001A69636A1A70636A013363622268204642
:10CE6000136823F001031360FCF77EFFA0E75A6903
:10CE7000500605D51A69636A1A70636A01336362E2
:10CE80002046FCF76DFF93E781CC00080000FFFF10
:10CE9000036870B55A68C66A90F83E500446EDB211
:10CEA00090F83D00102D8EB0C0B202D0402D40F061
:10CEB000E0829869596911F0010F07D1B6F52A0F80
:10CEC00002D0B6F12A4F50D10EB070BD96054CD5A8
:10CED000E26AB2F52A0F0CD10122E26294F83E20F8
:10CEE000402A11D1226D52B9626C02F0FE021A6121
:10CEF000EAE7E26AB2F12A4FF0D10822EDE7626C6C
:10CF000042F00102D2B2F2E72269B2F5804F19D1A4
:10CF100094F83D20212A626C16BF42F0010202F013
:10CF2000FE02D2B21A61626B0AB1926A2AB9A26B8E
:10CF3000002AC9D0926A002AC6D05A6842F4006218
:10CF40005A60C1E7226D32B9626CD21102F006025A
:10CF500042F0F002CBE7226D012AB5D1626CD2110A
:10CF600002F0060242F0F102C1E70E070ED5960567
:10CF70000CD5626CD2B21A61626B12B9A16B002936
:10CF8000A2D0926A002AD8D1A26BD3E78E0740F1D3
:10CF9000E680960540F1E38094F83E10E26A256B46
:10CFA00094F83D00C9B2222840F0D180206D40B9EC
:10CFB000402906D101905A6901929B690193019B16
:10CFC00082E7216D89B92069B0F5404F0DD10291FA
:10CFD0005A6902929A690292029A1A6842F480721D
:10CFE0001A60236D013323656EE7618D89B251B9F3
:10CFF00003915A6903929A690392039A1A6842F458
:10D0000000721A6019E0618D89B2012949D112F5C7
:10D01000803F1BD11A6822F480621A605A6812F4A9
:10D0200000620CD01A6822F480621A600022049216
:10D030005A6904929B690493049B0023D3E70592E9
:10D040005A6905929A690592059AD7E7082A1CD071
:10D05000202A1AD0122D0DD1012A16D11A6822F4D5
:10D0600080621A60002206925A6906929B690693B2
:10D07000069BE2E7102AF1D89C4921FA02F2D00778
:10D08000ECD51A6842F48062EBE71A6822F48062F9
:10D090001A60002207925A6907929A690792079AC2
:10D0A000ACE7618D89B2022933D1102A05D88F49A6
:10D0B000D140C94311F0010120D0196841F4006149
:10D0C0001960002108915969089199690891089996
:10D0D000196821F48061196059680905ADD512F508
:10D0E000803F06D0511E1F29A7D8814ACA40D207C7
:10D0F000A3D55A6842F480525A609EE7186840F4FB
:10D100008060186009915969099199690991099993
:10D11000E2E7196841F48061196059680E050ED57F
:10D1200012F5803F07D0013A1F2A08D8704921FA2A
:10D1300002F2D50703D55A6842F480525A600022A1
:10D140000A925A690A929B690A930A9B75E7002220
:10D150000B925A690B929B690B930B9BB4E610F0F0
:10D16000040F586800F0988000053FF5ADAE0E063C
:10D17000C1F3800055D5510553D5002854D194F8FA
:10D180003D20258D94F83E10D2B2C9B2E06A7DBB35
:10D19000212A2FD1082814D0202812D010F5803F42
:10D1A0000FD05A6822F4E0625A60112323630023EF
:10D1B00084F83E30202384F83D302046FCF7C8FD3B
:10D1C00082E65A68204622F4E0625A601A6842F405
:10D1D00000721A6000232022236384F83D2094F813
:10D1E0003E2084F83E30402AE8D1FCF7B5FD6BE6DE
:10D1F000212A05D040297FF467AE222A7FF464AE4D
:10D20000628D92B21AB95A6822F4806298E694F854
:10D210003E20402A16D120460EB0BDE87040FFF7F0
:10D220003DBC00283FF450AE92057FF54DAE102D69
:10D23000F1D1E16A94F83D20212A7FF445AE628D58
:10D2400092B24AB1626A12F8011B19616262638D7F
:10D25000013B9BB2638537E608290DD020290BD00E
:10D2600011F5803F08D0596821F4E061596011231D
:10D27000236384F83E209DE75A6822F4E0625A60F6
:10D280001A6842F400721A6000232022236384F893
:10D290003D2084F83E3090E706053FF515AE4D067B
:10D2A000C1F380007BD5510579D500287AD194F857
:10D2B0003D20222A7FF408AE628D92B2032A19D94A
:10D2C0001A69636A1A70636A01336362638D013B92
:10D2D0009BB26385638D9BB2032B7FF4F5AD22680F
:10D2E000536823F480635360EEE500BF140001002F
:10D2F00081800080E16A02293FF4E6AD012A3FF611
:10D30000E3AD46F2A811724A0C901268B2FBF1F23A
:10D3100002EB82020C920C9A013A0C920C99D1B950
:10D32000226C204642F0200222645A6822F4E06215
:10D330005A601A69636A1A70636A01336362638DA3
:10D34000013B9BB26385202384F83D3084F83E1076
:10D35000FCF706FDB8E51A6812F40072DBD1196813
:10D3600021F480611960596821F4E06159601969FC
:10D37000636A1970636A01336362638D013B9BB218
:10D380006385202384F83D3094F83E3084F83E20B5
:10D39000402B68D122632046FCF7EAFC94E5002884
:10D3A0003FF492AD92057FF58FADE26A608D616AC0
:10D3B00080B2042809D15A6822F480625A601B693D
:10D3C0000B70636A0133636241E7608D80B20328AA
:10D3D0000CD15868042A20F480605860EFD0022AEB
:10D3E000EDD01A6822F480621A60E8E7608D80B29E
:10D3F0000228E4D1012A01D0102A28D11A6822F487
:10D4000080621A601B690B70626A531C6362638DD1
:10D41000013B9BB2638523681B695370636A226872
:10D4200001336362638D013B9BB26385536823F4D0
:10D4300040735360202384F83D3094F83E30402BF5
:10D440004FF0000384F83E300DD12363A3E7042A94
:10D4500001D0022A03D11A6842F48062D1E71A6827
:10D4600042F40072CDE7122320462363FCF76CFCE4
:10D470002AE5216C11B3002559698E072AD5960536
:10D4800028D5226C02B19D6994F83D2002F0280253
:10D49000282A16D15A686FEA950122F480625A60F0
:10D4A0002B064FF0000301F0010154BFA289228B2B
:10D4B00084F83C302046FFF7EFFA05E59D6959698D
:10D4C000DBE76FF002025A61002384F83C30FBE492
:10D4D00008000020CE0640F1B180950540F1AE80F5
:10D4E00094F83D505A68EDB222F4E0625A6000228E
:10D4F0000D925A690D921A6842F001021A600D9A53
:10D500001A6822F480621A605A68120520D505F064
:10D51000F702222A4AD1A06B0268526892B2628551
:10D52000628D92B21AB1226C42F0040222645A68EF
:10D5300022F400625A60FEF7CDFA012808D0A06BF1
:10D54000794B4363FEF7EAF910B1A06B436B984740
:10D55000638D9BB213B323685A69560709D51A69BC
:10D56000636A1A70636A01336362638D013B9BB225
:10D57000638523685A69500609D51A69636A1A7067
:10D58000636A01336362638D013B9BB26385638D84
:10D590009BB21BB1236C43F004032364236C13B3CD
:10D5A00020460EB0BDE87040FFF7CABB606B026852
:10D5B000526892B26285628D92B21AB1226C42F0C8
:10D5C000040222645A6822F400625A60FEF782FA6A
:10D5D0000128BDD0606B544B4363FEF79FF90028D0
:10D5E000B6D0606BB2E72A2D06D1236328232046EC
:10D5F00084F83D30FFF74FFA94F83D30282B0CD1DA
:10D600004A4B2022E36200232046236384F83D2016
:10D6100084F83E30FFF741FA56E4236B222B02D008
:10D62000222D7FF451AC00232022236384F83D2077
:10D6300084F83E302046FFF72EFA45E400F0F7006C
:10D640002128C1F3800535D1090627D5560525D5F2
:10D650003DBB94F83D10628DC9B292B2002A3FF4EE
:10D6600033AC626A12F8015B1D616262628D013A3D
:10D6700092B26285628D92B2002A7FF425AC29298C
:10D680007FF422AC5A6822F480625A602823206317
:10D6900084F83D302046FFF7FDF915E4002D3FF4F6
:10D6A00013AC95057FF510AC628D92B2002A7FF421
:10D6B000C9AD09E4480627D5510525D53DBB94F8E9
:10D6C0003D20618DD2B289B200293FF4FDAB1969CA
:10D6D000636A1970636A01336362638D013B9BB2B5
:10D6E0006385638D9BB2002B7FF4EEAB2A2A7FF417
:10D6F000EBAB2268536823F48063536022232363D7
:10D70000282384F83D3095E7002D3FF4DDAB9205EA
:10D710007FF5DAAB628D92B2002A3FF4D5AB1A697D
:10D72000636A1A704DE600BF81CC00080000FFFF5D
:10D73000F8B5036804465F695E6890F83E20C7F359
:10D740000025D2B255B1C6F300253DB16FF480710A
:10D7500001255961196841F400411960B80506D5E1
:10D76000F10542BF6FF4007145F00205596178057B
:10D7700036D5F10534D5608D94F83D10202A80B25D
:10D78000C9B2D4F830C05BD1002859D101F0F700FC
:10D79000212804D0282953D1BCF1210F50D194F86D
:10D7A0003D20E16AD2B2082901D020292AD1282AB5
:10D7B00028D12C4A2046E2625A6822F4E0625A607C
:10D7C0006FF480625A611A6822F480621A60002342
:10D7D0002022236384F83D2084F83E30FFF75DF972
:10D7E0003A053BD5F30539D56FF40062236845F05F
:10D7F00008055A61236C20461D432564BDE8F840A6
:10D80000FFF79EBA212A17D116492046E16222630A
:10D81000202284F83D20002284F83E205A6822F419
:10D82000E0625A606FF480625A611A6822F4806282
:10D830001A60FFF72FF9D3E76FF480625A61CFE7E0
:10D840006FF48061102A596145F0040501D0402A27
:10D85000C6D11A6842F400721A60C1E7002DC9D11E
:10D86000F8BD00BF0000FFFF38B50446D8B14CF644
:10D87000CC4203681A6045F255521A6042685A60F9
:10D8800082689A60FDF76EFA05462368D86818B971
:10D890004AF6AA221A6038BDFDF764FA401B262812
:10D8A000F3D90320F7E70120F5E74AF6AA22036837
:10D8B00000201A607047F0B5044687B010B390F8A6
:10D8C000A93203F0FF021BB980F8A822FDF728F95E
:10D8D000254603236E4655F8100B84F8A93200F054
:10D8E000C6FF0FCD0FC62B6825463360271D97E86E
:10D8F0000E0055F8100B00F0B3FF064620B10223CE
:10D9000084F8A93201254BE00146206800F0B9FFF8
:10D9100030464FF0010E28260146D4F804C0C2B2AA
:10D92000944500F1010018D8002328261946D8B2E2
:10D93000844503F101031DD80FCD6E460FC62B6839
:10D94000336097E80E00206800F09DFF0123054634
:10D95000F8B1022284F8A922D4E706FB024383F837
:10D9600029E083F82820DA8683F82B10C3E90E110A
:10D970001964D4E706FB004282F8691182F8680155
:10D9800082F86B11C2F87811C2F87C11C2F88011CC
:10D99000CDE784F8240084F8A932206800F087FFDE
:10D9A000284607B0F0BD00002DE9F341054608B94F
:10D9B00001203CE00368DB0710D42B689F075DD48F
:10D9C0002B68190700F194802B685A0700F1BE807C
:10D9D000E869002840F02C81002028E08F4C636823
:10D9E00003F00C03042B07D0636803F00C03082B2F
:10D9F00009D16368DE0306D523689C03DDD56B6817
:10DA0000002BDAD1D4E76B68B3F5803F12D12368DD
:10DA100043F480332360FDF7A5F906462368980395
:10DA2000CBD4FDF79FF9801B6428F7D9032002B0FF
:10DA3000BDE8F0819BB9236823F480332360236819
:10DA400023F480232360FDF78DF9064623689903AC
:10DA5000B3D5FDF787F9801B6428F7D9E6E7B3F55E
:10DA6000A02F236803D143F480232360CFE723F45E
:10DA700080332360236823F48023CBE7674C6368FB
:10DA800013F00C0F07D0636803F00C03082B10D1C0
:10DA90006368DA030DD423689B0702D52B69012B39
:10DAA00086D123686A6923F0F80343EAC20323603E
:10DAB00086E72A695A4B6AB101221A60FDF752F9CA
:10DAC000064623689F07ECD4FDF74CF9801B02281B
:10DAD000F7D9ABE71A60FDF745F9064623689807C2
:10DAE0007FF56EAFFDF73EF9801B0228F6D99DE762
:10DAF000AA694A4C4B4BDAB101221A60FDF732F9A0
:10DB00000646636A9B070DD54FF4FA52464B1B68D5
:10DB1000B3FBF2F3019300BF019B5A1E0192002B4D
:10DB2000F9D151E7FDF71EF9801B0228E9D97DE7FD
:10DB30001A60FDF717F90646636A9F077FF544AF41
:10DB4000FDF710F9801B0228F6D96FE7334CE36923
:10DB5000D80024D40127E36943F08053E361E369EB
:10DB600003F080530093009B304E3368D90518D5DD
:10DB7000EB68012B26D1236A43F001032362FDF7F2
:10DB8000F1F841F288368046236A9B073FD5002F83
:10DB90003FF41EAFE36923F08053E36118E70027E9
:10DBA000E2E7336843F480733360FDF7DBF88046C7
:10DBB0003368DA05DCD4FDF7D5F8A0EB080064285B
:10DBC000F6D933E7ABB9236A41F2883823F0010371
:10DBD0002362236A23F004032362FDF7C3F8064699
:10DBE000236A9807D3D5FDF7BDF8801B4045F7D9C8
:10DBF0001CE7052B236A03D143F004032362BAE731
:10DC000023F001032362236A23F00403B6E7FDF740
:10DC1000A9F8A0EB0800B042B6D907E7001002400F
:10DC20000000424280044242080000200070004090
:10DC30002A4B5A681C4602F00C02082A3DD00023E9
:10DC4000274E022833602BD1FDF78CF80746236856
:10DC500099011FD42B6AB3F5803F05D16268A9688A
:10DC600022F400320A436260696A62680B4322F45C
:10DC700074121343636001233360FDF773F80546A4
:10DC800023689A013FF5A8AEFDF76CF8401B022807
:10DC9000F6D9CBE6FDF766F8C01B0228D7D9C5E652
:10DCA000FDF760F8054623689B017FF595AEFDF70B
:10DCB00059F8401B0228F6D9B8E601283FF4B7AE60
:10DCC00058682B6A00F480329A427FF471AE6B6A16
:10DCD00000F47010C01A18BF0120A8E6001002401E
:10DCE0006000424230B5184B87B002AC03F110051A
:10DCF000224618685968083303C2AB421446F7D16C
:10DD000040F201231149ADF804304B6803F00C02D6
:10DD1000082A17D1C3F3834206A80244DB0312F892
:10DD2000102C0CD54B680A48C3F34043504306AA55
:10DD3000134413F8143CB0FBF3F007B030BD0548B2
:10DD40005043FAE70248F8E77086010800100240E5
:10DD500000127A0000093D002DE9F0410D4604460D
:10DD600010B90120BDE8F081444A136803F00703AD
:10DD70008B4228D321688E0730D4CA0743D43F4A48
:10DD8000136803F00703AB4265D822683C4D12F0DC
:10DD9000040F6CD1130706D56B68226923F4605316
:10DDA00043EAC2036B60FFF79DFF6B68354AC3F31C
:10DDB0000313D35CD840344B1860344B1868FCF71D
:10DDC000C3FE0020CEE7136823F007030B43136064
:10DDD000136803F007038B42C3D1CBE7284B11F044
:10DDE000040F1EBF5A6842F4E0625A60080742BF3F
:10DDF0005A6842F460525A605A68A06822F0F002F1
:10DE000002435A60B9E762681D4E012A33681AD18D
:10DE100013F4003FA5D0736841F2883823F0030360
:10DE200013437360FCF79EFF07467368626803F054
:10DE30000C03B3EB820FA2D0FCF794FFC01B40454C
:10DE4000F3D903208EE7022A02D113F0007FE1E725
:10DE500013F0020FDEE7136823F007032B43136070
:10DE6000136803F00703AB427FF47BAF8DE76B6869
:10DE7000E16823F4E0630B436B608BE70020024012
:10DE800000100240788701080800002010000020E0
:10DE9000044B054A5B68C3F30223D35C034A106852
:10DEA000D840704700100240888701080800002011
:10DEB000044B054A5B68C3F3C223D35C034A106872
:10DEC000D8407047001002408887010808000020F1
:10DED0000F2303600B4B5A6802F0030242605A683A
:10DEE00002F0F00282605A6802F4E062C2605B688D
:10DEF000DB0803F4E0630361034B1B6803F00703D3
:10DF00000B607047001002400020024003682DE9BA
:10DF1000F341D907054620D5354CE369DA0032D400
:10DF20000127E36943F08053E361E36903F0805321
:10DF30000193019B2F4E3368DB0526D5236A13F42A
:10DF4000407336D1236A6A6823F440731343236213
:10DF50001FB1E36923F08053E3612868830706D586
:10DF6000234AA968536823F440430B43536010F0DD
:10DF700010001BD01E4AE9685368002023F4800378
:10DF80000B43536012E00027D4E7336843F48073F7
:10DF90003360FCF7E7FE80463368D805CED4FCF743
:10DFA000E1FEA0EB08006428F6D9032002B0BDE82A
:10DFB000F0816A6802F440729A42C3D001200E4A8E
:10DFC000236A1060002023F4407110602162D90799
:10DFD000B8D5FCF7C7FE41F288380646236A9A078F
:10DFE000B0D4FCF7BFFE801B4045F7D9DDE700BF8A
:10DFF00000100240007000404004424270B50446E8
:10E00000344B86B002AD03F110062A4618685968F1
:10E01000083303C2B3421546F7D140F20123022C64
:10E02000ADF8043047D0102C17D0012C4FD140F25E
:10E030000231294A136A1940B1F5817F44D003F4B3
:10E040004073B3F5007F2DD149F64040536A13F079
:10E05000020F08BF002006B070BD1F4B596818683A
:10E0600010F08070F7D0C1F3834206A8024412F882
:10E07000100CCA0341BF5A6806A9C2F340425218A5
:10E0800044BF12F8141C154A5B684CBFB2FBF1F296
:10E09000134A5B0202FB00F0DDD403234000B0FB17
:10E0A000F3F0D8E7B3F5407F11D113684FF2244065
:10E0B00013F4003FCDE7FFF7FBFE074B5B68C3F3AC
:10E0C000813301335B00EAE74FF40040C3E70020EF
:10E0D000C1E700BF808601080010024000127A00EC
:10E0E00000093D00036A70B523F001030362036A6F
:10E0F000446882690D6822F073022A438D6823F018
:10E1000002032B430A4DA8420BD1CD6823F008032C
:10E110002B4324F44074D1E90556354323F004031E
:10E120002C43446082614A684263036270BD00BF51
:10E13000002C0140036A70B523F480730362036A04
:10E140004468C2690D6822F073022A438D6823F483
:10E15000007343EA05230B4DA8420DD1CD6823F48B
:10E16000006343EA052324F44054D1E905563543BE
:10E1700023F4806344EA05144460C2614A68C263C0
:10E18000036270BD002C0140036A30B523F4805354
:10E190000362036A4468C2690D6822F4E64242EAF7
:10E1A00005228D6823F4005343EA0533064DA84247
:10E1B00002BF4D6924F4804444EA85144460C2617E
:10E1C0004A680264036230BD002C014070470000C1
:10E1D00090F83D30012B20D1022380F83D300368B8
:10E1E000DA6842F00102DA600D4A93420AD0B3F1D4
:10E1F000804F07D0A2F59432934203D002F580629B
:10E20000934204D19A6802F00702062A03D01A68E2
:10E2100042F001021A60002070470120704700BFE1
:10E22000002C0140704770477047036810B51A69A9
:10E23000044691070ED5DA6892070BD56FF00202FB
:10E240001A6101229B6902779B0777D0FFF7EBFFEA
:10E250000023237723681A69500710D5DA6851071D
:10E260000DD56FF004021A6102229B69227713F424
:10E27000407F204668D0FFF7D6FF0023237723682E
:10E280001A6912070FD5DA6810070CD56FF008026B
:10E290001A610422DB692277990720465AD0FFF7DA
:10E2A000C2FF0023237723681A69D20610D5DA68E3
:10E2B000D0060DD56FF010021A610822DB692277B3
:10E2C00013F4407F20464BD0FFF7ADFF00232377A8
:10E2D00023681A69D10708D5DA68D20705D56FF027
:10E2E000010220461A61FCF7A9F923681A69100691
:10E2F00008D5DA68110605D56FF0800220461A614C
:10E3000000F0ADFA23681A69520608D5DA6850069B
:10E3100005D56FF0400220461A61FFF785FF23689C
:10E320001A69910622D5DA6892061FD56FF020028D
:10E330002046BDE810401A6100F090BAFFF772FF66
:10E340002046FBF70DFB83E7FFF76CFF2046FBF74A
:10E3500007FB92E7FFF766FF2046FBF701FBA0E70C
:10E36000FFF760FF2046FBF7FBFAAFE710BD0000A8
:10E370001A4A036890420AD0B0F1804F07D0A2F544
:10E380009432904203D002F58062904215D14A68DF
:10E3900023F070031343114A90420AD0B0F1804F2A
:10E3A00007D0A2F59432904203D002F580629042E9
:10E3B00003D1CA6823F4407313434A6923F08003EE
:10E3C000134303608B68C3620B688362034B9842FC
:10E3D00004BF0B690363012343617047002C0140B4
:10E3E00010B5044630B390F83D3003F0FF021BB97E
:10E3F00080F83C20FFF7EAFE0223206884F83D30D5
:10E40000211DFFF7B5FF0123002084F8463084F872
:10E410003E3084F83F3084F8403084F8413084F84E
:10E42000423084F8433084F8443084F8453084F82E
:10E430003D3010BD0120FCE710B5044630B390F824
:10E440003D3003F0FF021BB980F83C20FCF7D2FA04
:10E450000223206884F83D30211DFFF789FF012346
:10E46000002084F8463084F83E3084F83F3084F849
:10E47000403084F8413084F8423084F8433084F8E6
:10E48000443084F8453084F83D3010BD0120FCE76D
:10E49000036A70B523F010030362036A446882695B
:10E4A0000D6822F4E64242EA05228D6823F020033B
:10E4B00043EA05130B4DA8420DD1CD6823F080032C
:10E4C00043EA051324F44064D1E90556354323F0AB
:10E4D000400344EA8504446082614A6882630362BF
:10E4E00070BD00BF002C014038B590F83C300446A8
:10E4F000012B54D0012380F83C300C2A18D8DFE8D7
:10E5000002F0071717171B1717172C1717173D00BF
:10E510000068FFF7E7FD236809699A6942F008027D
:10E520009A619A6922F004029A619A690A439A618F
:10E53000002084F83C0038BD0068FFF7A9FF23687D
:10E5400009699A6942F400629A619A6922F48062C8
:10E550009A619A6942EA0122E9E70068FFF7EAFD59
:10E5600023680969DA6942F00802DA61DA6922F09F
:10E570000402DA61DA690A43DA61D9E70068FFF771
:10E5800003FE23680969DA6942F40062DA61DA6934
:10E5900022F48062DA61DA6942EA0122ECE70220C1
:10E5A000C9E710B50124036A01F01F018C4023EA7A
:10E5B00004030362036A8A401A43026210BD00002A
:10E5C00010B5044629B990F83E30012B1DD001202A
:10E5D00010BD042907D190F83F30012BF7D1022359
:10E5E00080F83F3014E0082907D190F84030012B23
:10E5F000EDD1022380F840300AE090F84130012B41
:10E60000E5D1022380F8413002E0022380F83E3059
:10E6100001222068FFF7C5FF23680E4A93420AD102
:10E620005A6C42F400425A649A6802F00702062AC1
:10E630000BD10020CCE7B3F1804FF5D0064A9342CE
:10E64000F2D002F580629342EED01A6842F00102E5
:10E650001A60EEE7002C014000040040FFF7B0BF55
:10E6600038B50446002200680D46FFF79AFF23687C
:10E67000184A93420DD141F21112196A114208D180
:10E6800040F24442196A114202BF5A6C22F400421D
:10E690005A6441F21112196A114208D140F24442FF
:10E6A000196A114202BF1A6822F001021A6001239E
:10E6B0001DB984F83E30002038BD042D02D184F805
:10E6C0003F30F8E7082D0CBF84F8403084F8413023
:10E6D000F1E700BF002C0140FFF7C2BF10B50446B0
:10E6E00029B990F83E30012B3ED0012010BD0429FD
:10E6F0000BD190F83F30012BF7D1022380F83F3047
:10E700002268D36843F004030CE008290CD190F888
:10E710004030012BE9D10223026880F84030D368F1
:10E7200043F00803D3600CE090F84130012BDCD1BA
:10E730000223042980F841300268E1D00C291BD063
:10E74000A9B101222068FFF72CFF2368144A9342E5
:10E7500016D15A6C42F400425A649A6802F00702D9
:10E76000062A17D10020C1E7022380F83E30226834
:10E77000D36843F00203D5E7D36843F01003D1E731
:10E78000B3F1804FE9D0074A9342E6D002F58062A8
:10E790009342E2D01A6842F001021A60E2E700BF39
:10E7A000002C014000040040FFF798BF90F83C3077
:10E7B00030B5012B4FF0020325D0012280F83D3007
:10E7C00003680D685C6880F83C2024F070042C43DA
:10E7D0009A685C600D4CA3420AD0B3F1804F07D019
:10E7E000A4F59434A34203D004F58064A34204D179
:10E7F000496822F080020A439A60012380F83D3084
:10E80000002380F83C30184630BD00BF002C01408A
:10E8100090F83C30012B1FD0CB688A6823F44073FA
:10E8200013434A6823F4806313430A6823F40063A4
:10E8300013430A6923F4805313434A6923F40053B2
:10E840001343CA6923F480431343026853640023CB
:10E8500080F83C3018467047022070477047704778
:10E8600084B001A880E80E0004B000207047B0F822
:10E87000403023F47C535B045B0CA0F84030002054
:10E8800070470020704784B010B503AC84E80E00D8
:10E89000BDE810400123A0F84030002304B0A0F8E8
:10E8A0004030A0F84430A0F850301846704700209F
:10E8B0007047000008B54FF400710348FDF71CFBDA
:10E8C000B0FA80F0400908BD000C014008B54FF4D3
:10E8D00080710348FDF710FB003018BF012008BD10
:10E8E000000C014008B54FF400410348FDF704FB5C
:10E8F000B0FA80F0400908BD000C014070B5FFF788
:10E90000E5FF0446FFF7D6FF44EA4004E4B2FFF710
:10E91000E9FF05460CB9002861D003F0F9FD354B3D
:10E920001860354B1B78AB421CD1012D10D0334BF6
:10E930001B78A34228D0002C36D0032B08BF1C46DE
:10E9400000262E4B1C7003F0E3FD2D4B186019E0E0
:10E9500003F0DEFD2B4B1B68C01AB0F5C87FE6D96B
:10E9600080260FE003F0D4FD264B1B68C01AB0F5DB
:10E97000C87F2CBF002640261F4B1D7003F0C8FD2A
:10E98000204B1860304670BD1CB303F0C1FD1C4B1A
:10E990001B68C01AB0F5C87F1DD9012C1DD0022CF0
:10E9A0000CBF08262026EDE703F0B2FD144B1B68D0
:10E9B000C01AB0F5C87F08D2104B1B78012B06D0C7
:10E9C000022B0CBF02261026BBE70026B9E7012662
:10E9D000B7E70026D6E70026D4E70426D2E7064BA1
:10E9E0001B78002BBED1054B1B78A342A3D1002678
:10E9F000C8E700BF00060020F1050020F005002058
:10EA0000F4050020F805002010B5FFF777FF044655
:10EA100010B1064B1B780BB9204610BD0122044BE8
:10EA20001A7001460348FBF705FEF5E714000020C5
:10EA3000FD050020A49A010810B50A4CFAF7D2FE91
:10EA4000FFF7E2FF012808D0022808D007F0C0F83D
:10EA5000237801335BB22370F0E7002010BD012062
:10EA6000FCE700BFFC05002008B5FBF781FA00B900
:10EA700008BD00F091F800F0F9FE00F0A9FD00F0EB
:10EA800051F8F5E700B583B0244C4FF47A75244E65
:10EA90001DE02B4600220F21104604F03DF901280D
:10EAA00023D06846FBF718FA9DF8023013F0040FE4
:10EAB0001ED19DF8023013F0100F1DD19DF80330C8
:10EAC00013F0010F1CD19DF90230002B1CDB2378C1
:10EAD000002BDED13378102B05D0062B14BF0A2370
