:020000040801F1
:1000000000000120F12501083124010833240108F2
:1000100035240108372401083924010800000000B4
:10002000000000000000000000000000C1DB01082B
:100030003B2401080000000061DC0108C5DC010868
:1000400041260108412601084126010841260108F0
:100050004126010841260108412601083D240108E6
:1000600041260108412601084126010849240108CA
:1000700041260108412601084126010841260108C0
:1000800041260108592401086924010800000000E4
:1000900000000000000000000000000041260108F0
:1000A0004126010879240108412601088924010814
:1000B0004126010899240108A9240108B92401084E
:1000C000C9240108412601084126010841260108EA
:1000D00041260108412601084126010800000000D0
:1000E00041260108412601084126010800000000C0
:1000F0000000000000000000000000004126010890
:10010000000000004126010841260108412601089F
:1001100000000000000000000000000000000000DF
:10012000D924010841260108412601084126010879
:10013000412601080000000000000000000000004F
:10014000000000000000000000000000E924010899
:1001500041260108412601084126010841260108DF
:10016000F924010809250108000000000000000032
:10017000000000000000000000000000000000007F
:1001800000000000412601080000000000000000FF
:0401900041260108FB
:1001A00010B5054C237833B9044B13B10448AFF3B1
:1001B00000800123237010BDF80300200000000020
:1001C00054AE020808B5034B1BB103490348AFF313
:1001D000008008BD00000000FC03002054AE0208AF
:1001E00010F8012B11F8013B012A28BF9A42F7D0E1
:1001F000D01A7047034613F8012B002AFBD1181AB6
:1002000001387047000000000000000000000000FE
:1002100001F0FF01102A2BDB10F0070F08D010F8B7
:10022000013B013A8B422DD010F0070F42B3F6D1BB
:10023000F0B441EA012141EA014122F007047FF0D4
:1002400000070023F0E80256083C85EA010586EA2B
:10025000010685FA47F5A3FA87F586FA47F6A5FA67
:1002600087F68EB9EED1F0BC01F0FF0102F0070273
:1002700032B110F8013B013A83EA010313B1F8D11E
:100280000020704701387047002D06BF35460338FF
:10029000073815F0010F07D1013015F4807F02BF38
:1002A000013015F4C03F0130F0BC0138704700BF89
:1002B00081F0004102E000BF83F0004330B54FEA17
:1002C00041044FEA430594EA050F08BF90EA020F84
:1002D0001FBF54EA000C55EA020C7FEA645C7FEA17
:1002E000655C00F0E2804FEA5454D4EB5555B8BF3A
:1002F0006D420CDD2C4480EA020281EA030382EAAB
:10030000000083EA010180EA020281EA0303362D3C
:1003100088BF30BD11F0004F4FEA01314FF4801C0F
:100320004CEA113102D0404261EB410113F0004F21
:100330004FEA03334CEA133302D0524263EB4303D8
:1003400094EA050F00F0A780A4F10104D5F1200E76
:100350000DDB02FA0EFC22FA05F2801841F10001D1
:1003600003FA0EF2801843FA05F359410EE0A5F1A5
:1003700020050EF1200E012A03FA0EFC28BF4CF0D6
:10038000020C43FA05F3C01851EBE37101F000458C
:1003900007D54FF0000EDCF1000C7EEB00006EEB99
:1003A0000101B1F5801F1BD3B1F5001F0CD3490823
:1003B0005FEA30004FEA3C0C04F101044FEA44527A
:1003C00012F5800F80F09A80BCF1004F08BF5FEA01
:1003D000500C50F1000041EB045141EA050130BDE1
:1003E0005FEA4C0C404141EB0101013C28BFB1F5F3
:1003F000801FE9D291F0000F04BF01460020B1FA3E
:1004000081F308BF2033A3F10B03B3F120020CDA10
:100410000C3208DD02F1140CC2F10C0201FA0CF0EE
:1004200021FA02F10CE002F11402D8BFC2F1200C53
:1004300001FA02F120FA0CFCDCBF41EA0C01904009
:10044000E41AA2BF01EB0451294330BD6FEA040452
:100450001F3C1CDA0C340EDC04F11404C4F120023D
:1004600020FA04F001FA02F340EA030021FA04F34F
:1004700045EA030130BDC4F10C04C4F1200220FAA6
:1004800002F001FA04F340EA0300294630BD21FAE4
:1004900004F0294630BD94F0000F83F4801306BFAA
:1004A00081F480110134013D4EE77FEA645C18BF9E
:1004B0007FEA655C29D094EA050F08BF90EA020F35
:1004C00005D054EA000C04BF1946104630BD91EA2D
:1004D000030F1EBF0021002030BD5FEA545C05D130
:1004E0004000494128BF41F0004130BD14F580046F
:1004F0003CBF01F5801130BD01F0004545F0FE41E3
:1005000041F470014FF0000030BD7FEA645C1ABF17
:10051000194610467FEA655C1CBF0B46024650EA4E
:10052000013406BF52EA033591EA030F41F400217A
:1005300030BD00BF90F0000F04BF0021704730B500
:100540004FF4806404F132044FF000054FF00001D5
:1005500050E700BF90F0000F04BF0021704730B596
:100560004FF4806404F1320410F0004548BF40426B
:100570004FF000013EE700BF42004FEAE2014FEAC0
:1005800031014FEA02701FBF12F07F4393F07F4F9B
:1005900081F06051704732F07F4208BF704793F09E
:1005A0007F4F04BF41F40021704730B54FF46074B1
:1005B00001F0004521F000411CE700BF50EA0102B4
:1005C00008BF704730B54FF000050AE050EA01025D
:1005D00008BF704730B511F0004502D5404261EBCD
:1005E00041014FF4806404F132045FEA915C3FF40E
:1005F000D8AE4FF003025FEADC0C18BF03325FEAAB
:10060000DC0C18BF033202EBDC02C2F1200300FA5B
:1006100003FC20FA02F001FA03FE40EA0E0021FA80
:1006200002F11444BDE600BF70B54FF0FF0C4CF46E
:10063000E06C1CEA11541DBF1CEA135594EA0C0F20
:1006400095EA0C0F00F0DEF82C4481EA030621EA5B
:100650004C5123EA4C5350EA013518BF52EA033596
:1006600041F4801143F4801338D0A0FB02CE4FF048
:100670000005E1FB02E506F00042E0FB03E54FF078
:100680000006E1FB03569CF0000F18BF4EF0010E70
:10069000A4F1FF04B6F5007F64F5407404D25FEA6C
:1006A0004E0E6D4146EB060642EAC62141EA55511F
:1006B0004FEAC52040EA5E504FEACE2EB4F1FD0C61
:1006C00088BFBCF5E06F1ED8BEF1004F08BF5FEADF
:1006D000500E50F1000041EB045170BD06F0004691
:1006E00046EA010140EA020081EA0301B4EB5C043E
:1006F000C2BFD4EB0C0541EA045170BD41F4801136
:100700004FF0000E013C00F3AB8014F1360FDEBF5A
:10071000002001F0004170BDC4F10004203C35DA36
:100720000C341BDC04F11404C4F1200500FA05F3B9
:1007300020FA04F001FA05F240EA020001F000425A
:1007400021F0004110EBD37021FA04F642EB0601D0
:100750005EEA430E08BF20EAD37070BDC4F10C04FA
:10076000C4F1200500FA04F320FA05F001FA04F2BE
:1007700040EA020001F0004110EBD37041F10001AA
:100780005EEA430E08BF20EAD37070BDC4F12005B5
:1007900000FA05F24EEA020E20FA04F301FA05F21D
:1007A00043EA020321FA04F001F0004121FA04F2C5
:1007B00020EA020000EBD3705EEA430E08BF20EA95
:1007C000D37070BD94F0000F0FD101F000464000CF
:1007D00041EB010111F4801F08BF013CF7D041EA51
:1007E000060195F0000F18BF704703F00046520055
:1007F00043EB030313F4801F08BF013DF7D043EA26
:100800000603704794EA0C0F0CEA135518BF95EADB
:100810000C0F0CD050EA410618BF52EA4306D1D162
:1008200081EA030101F000414FF0000070BD50EA81
:10083000410606BF1046194652EA430619D094EA0B
:100840000C0F02D150EA013613D195EA0C0F05D1F5
:1008500052EA03361CBF104619460AD181EA030149
:1008600001F0004141F0FE4141F470014FF0000001
:1008700070BD41F0FE4141F4780170BD70B54FF09C
:10088000FF0C4CF4E06C1CEA11541DBF1CEA13551C
:1008900094EA0C0F95EA0C0F00F0A7F8A4EB0504FE
:1008A00081EA030E52EA03354FEA013100F08880F5
:1008B0004FEA03334FF0805545EA131343EA1263BE
:1008C0004FEA022245EA111545EA10654FEA002673
:1008D0000EF000419D4208BF964244F1FD0404F52C
:1008E000407402D25B084FEA3202B61A65EB030588
:1008F0005B084FEA32024FF480104FF4002CB6EB45
:10090000020E75EB030E22BFB61A754640EA0C00C4
:100910005B084FEA3202B6EB020E75EB030E22BF04
:10092000B61A754640EA5C005B084FEA3202B6EB45
:10093000020E75EB030E22BFB61A754640EA9C0004
:100940005B084FEA3202B6EB020E75EB030E22BFD4
:10095000B61A754640EADC0055EA060E18D04FEA92
:10096000051545EA16754FEA06164FEAC30343EA32
:1009700052734FEAC2025FEA1C1CC0D111F4801FFF
:100980000BD141EA00014FF000004FF0004CB6E7F8
:1009900011F4801F04BF01430020B4F1FD0C88BF97
:1009A000BCF5E06F3FF6AFAEB5EB030C04BFB6EBA2
:1009B000020C5FEA500C50F1000041EB045170BD95
:1009C0000EF0004E4EEA113114EB5C04C2BFD4EBC2
:1009D0000C0541EA045170BD41F480114FF0000E46
:1009E000013C90E645EA060E8DE60CEA135594EAC2
:1009F0000C0F08BF95EA0C0F3FF43BAF94EA0C0FC5
:100A00000AD150EA01347FF434AF95EA0C0F7FF439
:100A100025AF104619462CE795EA0C0F06D152EA8D
:100A200003353FF4FDAE1046194622E750EA410671
:100A300018BF52EA43067FF4C5AE50EA41047FF482
:100A40000DAF52EA43057FF4EBAE12E74FF0FF3CE7
:100A500006E000BF4FF0010C02E000BF4FF0010CB8
:100A60004DF804CD4FEA410C7FEA6C5C4FEA430C31
:100A700018BF7FEA6C5C1BD001B050EA410C0CBF80
:100A800052EA430C91EA030F02BF90EA020F0020E2
:100A9000704710F1000F91EA030F58BF994208BF49
:100AA00090422CBFD8176FEAE37040F00100704706
:100AB0004FEA410C7FEA6C5C02D150EA013C07D15D
:100AC0004FEA430C7FEA6C5CD6D152EA033CD3D0A8
:100AD0005DF8040B704700BF8446104662468C46A2
:100AE0001946634600E000BF01B5FFF7B7FF0028D5
:100AF00048BF10F1000F01BD4DF808EDFFF7F4FFFE
:100B00000CBF012000205DF808FB00BF4DF808ED88
:100B1000FFF7EAFF34BF012000205DF808FB00BFAB
:100B20004DF808EDFFF7E0FF94BF012000205DF8CD
:100B300008FB00BF4DF808EDFFF7CEFF94BF012082
:100B400000205DF808FB00BF4DF808EDFFF7C4FF7B
:100B500034BF012000205DF808FB00BF4FEA410CC4
:100B60007FEA6C5C02D150EA013C0AD14FEA430CA7
:100B70007FEA6C5C02D152EA033C02D14FF00000E4
:100B800070474FF0010070474FEA410212F5001222
:100B900015D211D56FF47873B3EB625212D94FEAC4
:100BA000C12343F0004343EA505311F0004F23FAAE
:100BB00002F018BF404270474FF00000704750EA03
:100BC000013005D111F0004008BF6FF000407047C0
:100BD0004FF00000704700BF4A0011D212F500121A
:100BE00011D20DD56FF47873B3EB62520ED44FEA85
:100BF000C12343F0004343EA505323FA02F0704705
:100C00004FF00000704750EA013002D14FF0FF3042
:100C100070474FF0000070474FEA4102B2F1E043E5
:100C200024BFB3F5001CDCF1FE5C0DD901F0004CD3
:100C30004FEAC0024CEA5070B2F1004F40EB830023
:100C400008BF20F00100704711F0804F21D113F14F
:100C50003872BCBF01F00040704741F480114FEA88
:100C60005252C2F11802C2F1200C10FA0CF320FA11
:100C700002F018BF40F001004FEAC1234FEAD3232E
:100C800003FA0CFC40EA0C0023FA02F34FEA430398
:100C9000CCE77FEA625307D150EA01331EBF4FF021
:100CA000FE4040F44000704701F0004040F0FE403C
:100CB00040F40000704700BF7BB972B90029BEBF85
:100CC00000204FF0004106E008BF00281CBF6FF075
:100CD00000414FF0FF3000F0B9B9ADF1080C6DE9FB
:100CE00004CE002909DB002B1ADB00F04DF8DDF8FB
:100CF00004E0DDE9022304B07047404261EB4101AA
:100D0000002B1BDB00F040F8DDF804E0DDE90223F6
:100D100004B0404261EB4101524263EB4303704730
:100D2000524263EB430300F02FF8DDF804E0DDE905
:100D3000022304B0404261EB41017047524263EB31
:100D4000430300F021F8DDF804E0DDE9022304B0FC
:100D5000524263EB4303704753B94AB9002908BFB5
:100D600000281CBF4FF0FF314FF0FF3000F06EB98C
:100D7000ADF1080C6DE904CE00F006F8DDF804E0F2
:100D8000DDE9022304B070472DE9F047089D0446D1
:100D90008C46002B40F083808A42174647D9B2FA2E
:100DA00082F242B1C2F1200024FA00F09140974053
:100DB00040EA010C94404FEA1748230CBCFBF8F6BC
:100DC0001FFA87FE08FB16C143EA014306FB0EF13A
:100DD000994209D9FB1806F1FF3080F01981994238
:100DE00040F21681023E3B445B1AA4B2B3FBF8F01A
:100DF00008FB103344EA034400FB0EFEA64509D964
:100E00003C1900F1FF3380F00581A64540F20281D4
:100E100002383C4440EA0640A4EB0E0400261DB113
:100E2000D4400023C5E900433146BDE8F08702B94C
:100E3000FFDEB2FA82F2002A50D1CB1B4FEA174EE6
:100E40001FFA87F80126B3FBFEFC210C0EFB1C33B6
:100E500041EA034108FB0CF38B4207D979180CF1E6
:100E6000FF3002D28B4200F2E9808446C91AA3B255
:100E7000B1FBFEF00EFB101143EA014408FB00F841
:100E8000A04507D93C1900F1FF3302D2A04500F27A
:100E9000D9801846A4EB080440EA0C40BFE78B4217
:100EA00009D9002D00F0B1800026C5E900013046C7
:100EB0003146BDE8F087B3FA83F6002E4AD18B4263
:100EC00002D3824200F2B880841A61EB0301012050
:100ED0008C46002DA8D0C5E9004CA5E7C2F120033F
:100EE00020FA03F6974001FA02F04FEA174ED94074
:100EF0003043030CB1FBFEF61FFA87F80EFB161108
:100F000043EA014306FB08F1994204FA02F409D9C5
:100F1000FB1806F1FF3C80F08D80994240F28A80F8
:100F2000023E3B445B1A81B2B3FBFEF00EFB103372
:100F300041EA034100FB08F38B4207D9791800F11D
:100F4000FF3C73D28B4271D902383944CB1A40EA44
:100F5000064678E7C6F1200C03FA06F422FA0CF3F1
:100F60001C4320FA0CF701FA06F34FEA144E21FA5B
:100F70000CF11F433B0CB1FBFEF91FFA84F80EFB8A
:100F8000191143EA014109FB08FA8A4502FA06F2FF
:100F900000FA06F308D9611809F1FF3048D28A45F2
:100FA00046D9A9F102092144A1EB0A01BFB2B1FB64
:100FB000FEF00EFB101147EA014700FB08F8B845A8
:100FC00007D9E71900F1FF312ED2B8452CD90238E4
:100FD000274440EA0940A7EB0807A0FB02894F45D8
:100FE000C64649461AD317D05DB1B3EB0E0267EB84
:100FF000010707FA0CFCF2404CEA0202F740C5E98F
:10100000002700263146BDE8F0872E4628460BE72C
:101010000646E9E61846FDE64345E5D2B8EB020E82
:1010200069EB04010138DFE70846D2E760468DE747
:101030008146B9E7664675E730464AE7ACF1020CEF
:10104000394413E702383C4424E700BF704700BF2F
:10105000084B01221A7040F22912074B1A80074BE5
:101060001B68DA6240F21B121A6443F6F8129A62A5
:10107000704700BF1604002064040020683200207E
:1010800008B5C8200BF078F800F0F8FA012800D075
:1010900008BD034B01221A7007F0DCF8F8E700BF27
:1010A0004004002008B5024804F07AFC08BD00BFE7
:1010B0005828002010B50446002000F0EDFA034641
:1010C000002827DB9A1040F6E44303FB02F3002BD1
:1010D00022DB1B13A3F5FA73ACB19BB2114991F853
:1010E000242031F81240086A001B1844086221F8D5
:1010F0001230531C5A4203F00F0302F00F0258BF84
:10110000534281F82430074B186A002807DBC0F3EC
:101110000F1010BDC31CD5E703F6FF73D9E70F30DE
:10112000F5E700BF180400200C4B1A68D16B0C4B7C
:101130001980116C5980516C9980926CDA8000236F
:10114000184605E0064A32F81320104480B20133F5
:10115000032BF7DD400080B2704700BF64280020F9
:101160005C04002030B9104B1869002819DBC0F36B
:10117000CF00704710B5FFF7D7FF0B4A137D32F849
:1011800013401169091B0144116122F81300013356
:10119000594203F0070301F0070158BF4B42137592
:1011A00010BD0730E3E700BF440400200A4B1B7862
:1011B00043B90A4B186860B180B2094BA3FB0030F9
:1011C00040097047074B1888054BA3FB00304009C6
:1011D000704741F28830F0E7F8100020280B00201B
:1011E0001F85EB51F01B0020034B14221A80034B88
:1011F0001970034B18707047140400201604002067
:101200004104002008B5037F012B00D008BD0C214C
:10121000014806F017F8F9E7D82900202DE9F04732
:1012200086B080460268136823F00103136011231F
:10123000029301230393002304933C4B984238D03C
:101240003B4D4FF010094FF4807ACDF804A001A96E
:10125000284602F057FC1FFA8AF60122314628463A
:1012600002F02FFDCDF80490324C01A9204602F087
:1012700049FC1FFA89F701223946204602F021FD78
:10128000002439462B4802F015FD012817D0002212
:101290003146284602F015FD00BF00BF00BF00BF69
:1012A00001223146284602F00CFD0134642CE8DDB1
:1012B00039E0204D4FF080094FF0400AC5E7122376
:1012C00002930124039400230493CDF804A001A900
:1012D000284602F017FCCDF80490DFF8589001A9D9
:1012E000484602F00FFC22463146284602F0E9FC4F
:1012F00022463946484602F0E4FCD8F8002013683C
:1013000043F40043136000BFD8F80020136823F4AF
:101310000043136000BFD8F8002013682343136014
:10132000404603F045F906B0BDE8F0873C1F0020B9
:10133000000002400004024008B5FFF789FE08BD26
:1013400008B5FFF7F9FF034800F014F9024800F070
:1013500011F908BD80040020D004002008B501F078
:101360009DF908BD012800D070474FF6FF739942E0
:10137000FAD1054B054ADA6400221A60044B05498C
:10138000D9641A60F0E700BF800400203C1F0020F1
:10139000D0040020881E002008B5202380F83D30AE
:1013A0000C4BDB6C984204D00B4BDB6C984209D0A1
:1013B00008BD084B1B68002BF6D0002118460BF027
:1013C00040FAF5E7044B18680028F1D000210BF033
:1013D00038FAEDE780040020D004002008B5C06C86
:1013E000FFF71CFF08BD08B500231A461946006820
:1013F0000BF04CF908BD08B5322100680BF028FB52
:10140000012814BF0020012008BD2DE9F04184B05F
:101410000446884617461D46FFF7EDFF064618B9F5
:10142000304604B0BDE8F0814FF4FA730293BDF882
:1014300028300193009501233A464146E06C03F0C1
:1014400003FB18B92046FFF7CEFFE9E72046FFF778
:10145000C5FF2046FFF7C7FF0026E1E700B585B0CE
:101460000123009303ABFFF7D0FF9DF80C0005B0FC
:101470005DF804FB2DE9F04184B004468846174628
:101480001D46FFF7B8FF064618B9304604B0BDE860
:10149000F0814FF4FA730293BDF828300193009560
:1014A00001233A464146E06C03F01CFA18B9204685
:1014B000FFF799FFE9E72046FFF790FF2046FFF787
:1014C00092FF0026E1E700B585B08DF80F300123CB
:1014D00000930DF10F03FFF7CDFF05B05DF804FB9E
:1014E00070B586B006460D46FFF785FF044610B975
:1014F000204606B070BD4FF47A7302930123019326
:1015000005AA00920F222946F06C03F09DFAB0FA6A
:1015100080F464093046FFF766FFE9E72DE9F047FC
:101520008246894617469846002402E0FFF716FFD8
:101530000134A0450EDD04EB44057E1973787A5D15
:1015400049465046FFF7BFFF034620B1B078002858
:10155000EED0EBE701231846BDE8F08708B500237D
:101560001A461946024800680BF090F808BD00BF03
:101570002005002010B503681BB10B4B1B6853B14D
:1015800010BD0446011D01200BF04CF920602046DF
:10159000FFF729FFF1E7054901200BF043F9024B62
:1015A0001860FFF7DBFFEBE7200500202405002093
:1015B00008B5084B1B6853B14FF4FA71054B186816
:1015C0000BF046FA012814BF0020012008BD00BE20
:1015D000F2E700BF2005002008B54FF6FF7101209B
:1015E000FFF7C0FE08BD08B54FF6FF710020FFF7FA
:1015F000B9FE08BD00B583B0002301930C4B8342B4
:1016000002D003B05DF804FB0A4B18680028F8D03C
:1016100001A90CF013FA019B002BF2D0064B4FF0FE
:1016200080521A60BFF34F8FBFF36F8FE9E700BF9F
:1016300064280020C01A002004ED00E070477047C5
:1016400008B5FFF7A9FE08BD08B5FFF7A5FE08BD60
:1016500008B5FFF7A1FE08BD08B5FFF79DFE08BD60
:1016600008B5FFF799FE08BD08B5FFF795FE08BD60
:1016700008B506F063FE08BD7047000008B500F02D
:1016800049F9003818BF0120014B187008BD00BF90
:101690006C0500200020704700231A460F2B0FD83E
:1016A00010B4C418084931F8241002EB4102013388
:1016B000DBB20F2BF5D9C2F38F005DF8044B7047F6
:1016C000C3F38F00704700BF7005002000B583B0E2
:1016D00013460091024644210248FFF7CBFE03B0B7
:1016E0005DF804FBD004002008B5024644210248FE
:1016F000FFF7B4FE08BD00BFD004002000B583B0E2
:1017000013460091024644210248FFF77EFE03B0D3
:101710005DF804FBD004002008B502460B464421C6
:101720000148FFF7D0FE08BDD004002038B50446BC
:10173000FFF73EFF00B938BD34F8025FC5F302354C
:10174000AD00023565F07F03094A1371052143207E
:10175000FFF7BCFF224629464320FFF7B7FF054AA3
:1017600004214320FFF7B2FFFFF7F8FEE3E700BFD5
:101770000000002004B0020810B50446FFF718FF6F
:1017800000B900BE4320FFF7AFFFA21C0221432097
:10179000FFF7B4FF6388C3F3023113F4E04F08D1BD
:1017A000074A04214320FFF7A9FFFFF7D7FE0020D7
:1017B00010BD221D89004320FFF7A0FFF0E700BF06
:1017C000B005002010B504460BF0DEFE012802D063
:1017D000FFF7EEFE40B1224607213C20FFF78EFFC7
:1017E0000BF0D2FE012800D110BDFFF7B7FEFBE7DA
:1017F00008B50BF0C9FE012802D0FFF7D9FE58B199
:1018000044210620FFF788FF04210720FFF784FF0B
:101810000BF0BAFE012800D108BDFFF79FFEFBE7E1
:1018200000B583B000238DF807300DF107020121C8
:101830000846FFF763FF9DF80730013BDBB2FD2B45
:1018400003D8012003B05DF804FB0020FAE738B5A7
:10185000FFF7AEFE044608B9204638BD01210C2032
:10186000FFF75AFF02200AF087FCFFF7D9FF044672
:101870000028F1D00F210B20FFF74EFF00210A2096
:10188000FFF74AFF00210E20FFF746FF00210F203F
:10189000FFF742FF0C210620FFF73EFF072109203A
:1018A000FFF73AFF00210820FFF736FF0421072049
:1018B000FFF732FF07210220FFF72EFF0A200AF070
:1018C0005BFC4020FFF710FF00F003050B21022016
:1018D000FFF722FF0A200AF04FFC4020FFF704FF29
:1018E00000F0030085420CD925210320FFF714FFE7
:1018F00007210220FFF710FFFFF730FEFFF778FF08
:10190000AAE726210320FFF707FF0B210220FFF79C
:1019100003FFF1E708B544210148FFF7E1FD08BDE9
:10192000D004002070470000034B0360034B0B60A2
:1019300040231360704700BFB4060020B4050020A8
:1019400070B588B00024069407940094224B1A6B5B
:1019500042F080021A631A6B02F080020092009A31
:1019600001941A6B42F001021A631A6B02F0010231
:101970000192019A02941A6B42F002021A631B6BE5
:1019800003F002030293029B022303934FF4881394
:10199000049301260596114D03A9284602F0B2F8DA
:1019A0004FF4024303930494059603A9284602F0DA
:1019B000A9F84FF4807303930494059403A928466F
:1019C00002F0A0F822460A21072001F051FC07206E
:1019D00001F082FC08B070BD0038024000040240F3
:1019E00010B582B000240094164B1A6B42F48002AA
:1019F0001A631A6B02F480020092009A01941A6B27
:101A000042F400121A631B6B03F400130193019B51
:101A1000224605210B2001F02BFC0B2001F05CFC81
:101A200022460521112001F023FC112001F054FC75
:101A300022460521382001F01BFC382001F04CFC27
:101A400002B010BD003802402DE9F0418CB00025F5
:101A5000089509950A950B9520222946684616F0A7
:101A600027FA234C234B23606560A560012626617D
:101A7000267684F82050E5621F4BA362E560E6619C
:101A800084F830606661204600F0B6FE4FF0020830
:101A9000CDF82080099604270A9708A9204601F06E
:101AA000FFF8082300930196049702954FF48013E2
:101AB000079306958DF815508DF8145003956946D7
:101AC000204601F0BDFACDF804806946204601F0B9
:101AD000B7FA032301936946204601F0B1FA019752
:101AE0006946204601F0ACFA0CB0BDE8F08100BFB9
:101AF00064280020002001400100000F08B50948BB
:101B0000094B0360094B436000238360C3604FF4BB
:101B10008042026143618361C361036202F048FD58
:101B200008BD00BF3C1F002000540040801A060082
:101B300008B50948094B0360094B436000238360E3
:101B4000C3604FF48042026143618361C3610362F9
:101B500002F02EFD08BD00BF881E0020005C004082
:101B6000801A060030B593B00024109411940994A3
:101B70000A940B940C940D940E940F9420222146F9
:101B800001A816F095F9254D254B2B6042F66713F9
:101B90006B60AC6040F21B13EB604FF400732B6181
:101BA0006C61AC61284605F0F7F91094119410A906
:101BB000284605F025FC602309930A9402230B9321
:101BC0000C9404230D930E940F94224609A92846E1
:101BD00005F040FA40F20D130A930B940C2209A968
:101BE000284605F037FA019402940394049405946E
:101BF0004FF400530693089401A9284605F03CFCD5
:101C00000C21284605F0A6FA2146284605F05CFB83
:101C1000284605F04BF813B030BD00BF68320020F5
:101C20000000014008B50548054B036006234360EA
:101C30006423836003F088FE08BD00BF582800209D
:101C40000030004030B58BB0002408940994019412
:101C5000029403940494059406940794144D4FF051
:101C600080432B6029236B60AC606323EB604FF4EF
:101C700000732B618023AB61284605F08DF9089431
:101C8000099408A9284605F0BBFB60230193322381
:101C900002930394042305930C220DEB03012846C1
:101CA00005F0D8F9284600F03BFB0BB030BD00BF73
:101CB000D829002030B58BB00024089409940194F1
:101CC000029403940494059406940794114D124BC6
:101CD0002B6029236B60AC60FF23EB602C61AC614F
:101CE000284605F059F90894099408A9284605F0F2
:101CF00087FB60230193029402230393059404223B
:101D00000DEB0201284605F0A5F9284600F008FB76
:101D10000BB030BD203200200004004008B514F0A4
:101D200095FC14F073FB01200AF026FAFBE708B5D6
:101D300014F066F901200AF01FFAFBE708B514F069
:101D40000BFC01200AF018FAFBE708B513F0DCFCE5
:101D500001200AF011FAFBE730B595B030220021DE
:101D600008A816F0A5F8002403940494059406949A
:101D7000079401941D4B1A6C42F080521A641B6C3C
:101D800003F080530193019B0294194A136823F4D2
:101D9000404343F400431360136803F44043029349
:101DA000029B092308934FF48033099301230D9379
:101DB00002250E954FF480030F9306231093FC2306
:101DC0001193042312930723139308A804F0A2FB92
:101DD0000F230393049505944FF4A05306930793A0
:101DE000294603A804F0F8FD15B030BD00380240C4
:101DF0000070004000B59DB000F024FCFFF7ACFF80
:101E0000FFF79EFDFFF7ECFDFFF71EFEFFF776FEE6
:101E1000FFF78EFEFFF7A6FEFFF704FFFFF712FFA6
:101E2000FFF748FF14F012FCFFF73CF9FFF788FAC0
:101E30002E4C204600F00CFD10222D49204600F0CB
:101E40008BFD204600F0F4FF204601F073F8FFF709
:101E500029F9284C15AD26460FCE0FC596E8070088
:101E600085E80700002115A80AF06FF9224B1860D9
:101E70000EAD04F11C060FCE0FC596E8070085E8ED
:101E8000070000210EA80AF060F91C4B186007AD8E
:101E900004F138060FCE0FC596E8070085E8070065
:101EA000002107A80AF051F9154B18606D4654340B
:101EB0000FCC0FC594E8070085E8070000216846AD
:101EC0000AF043F90F4B1860049A0F4B1A80199AC5
:101ED0000E4B1A80129A0E4B1A800B9A0D4B1A80D9
:101EE000FFF7E0F80AF02CF9FEE700BF64280020B5
:101EF0007005002070AE0208B0320020201E0020C5
:101F0000901F002074290020180700201C070020C3
:101F10001A0700201E07002010B504460268154B62
:101F20009A4204D02268144B9A4220D010BD134A22
:101F300013889BB2013B9BB21380114B1A78D2B22B
:101F4000104B1B685A635A6B0AB901225A635B6BC8
:101F50001BB10A4B1B889BB223B90C210A4805F020
:101F600071F9DFE70C21084805F0F4F8DAE700F032
:101F700083FBDBE700000140000800401404002060
:101F80004104002068320020D8290020704700005A
:101F900000B583B0002200920D4B596C41F4804192
:101FA0005964596C01F48041009100990192196CB7
:101FB00041F0805119641B6C03F080530193019B25
:101FC0000F216FF0010001F053F903B05DF804FB3D
:101FD0000038024070B588B0002303930493059342
:101FE00006930793026803F1804303F590339A4206
:101FF00001D008B070BD04460025009503F58C3370
:102000005A6C42F480725A645A6C02F480720092E4
:10201000009A01951A6B42F001021A631A6B02F0E2
:1020200001020192019A02951A6B42F002021A63B0
:102030001B6B03F002030293029B0423039303260A
:102040000496059503A9194801F05CFD012303934B
:102050000496059503A9164801F054FD1548164B42
:10206000036045608560C5604FF4806303614FF491
:10207000006343614FF4005383614FF48073C36185
:102080004FF440330362456201F0B4F958B9094B8B
:10209000A3639C6300220F21122001F0E9F81220B3
:1020A00001F01AF9A5E7FFF771FFF0E70000024021
:1020B00000040240941F0020106402402DE9F0410A
:1020C0008AB0002305930693079308930993036846
:1020D000614A934205D0614A93426ED00AB0BDE88E
:1020E000F0810446002500955D4E336B43F00203FA
:1020F0003363336B03F002030093009BC02305930B
:1021000012230693012307930323089304230993BF
:1021100005A9544801F0F6FC0195336C43F4001313
:102120003364336C03F400130193019B4E484F4B0F
:1021300003604FF0007343608560C5604FF48063B7
:10214000036145618561C5610562456201F052F92F
:1021500068BB454BA3639C634548464B03604FF007
:1021600000734360402383600023C3604FF48062A8
:10217000026143618361C3614FF480320262436252
:1021800001F038F9B0B93A4B63639C6300220F2128
:102190001F2001F06DF81F2001F09EF800220F2192
:1021A000202001F065F8202001F096F896E7FFF76F
:1021B000EDFECEE7FFF7EAFEE5E700250295284CA5
:1021C000236B43F001032363236B03F001030293AA
:1021D000029B0395236B43F002032363236B03F0FD
:1021E00002030393039B4FF4807305934FF012088F
:1021F000CDF8188001270797032608960423099332
:1022000005A91D4801F07EFC10230593CDF8188028
:10221000079708960923099305A9124801F072FC53
:102220000495236C43F400032364236C03F400033C
:102230000493049B2A460F21482001F019F84820F6
:1022400001F04AF82A460F21492001F011F84920EF
:1022500001F042F842E700BF00540040005C00403B
:10226000003802400004024078290020106002403B
:10227000DC1E0020A06002400000024010B584B0C7
:102280000368244A934207D0B3F1804F21D0224AF9
:1022900093422BD004B010BD002401941F4B5A6C04
:1022A00042F001025A645B6C03F001030193019B4D
:1022B00022460F21192000F0DBFF192001F00CF855
:1022C00022460F211B2000F0D3FF1B2001F004F851
:1022D000E0E700230293114B1A6C42F001021A64EA
:1022E0001B6C03F001030293029BD3E700220392CD
:1022F0000A4B196C41F0020119641B6C03F00203D4
:102300000393039B0F211D2000F0B2FF1D2000F05E
:10231000E3FFBFE700000140000400400038024036
:1023200000B589B0002303930493059306930793A4
:102330000368B3F1804F05D01B4A93421BD009B00C
:102340005DF804FB00230193184A116B41F0010171
:102350001163126B02F001020192019A08220392AA
:1023600002220492059306930123079303A91048C0
:1023700001F0C8FBE3E7002102910C4B1A6B42F01D
:1023800001021A631B6B03F001030293029B80237B
:1023900003930223049305910693079303A904482A
:1023A00001F0B0FBCBE700BF000400400038024062
:1023B0000000024010B588B0014600221E2000F047
:1023C00057FF1E2000F088FF00240194144B1A6C64
:1023D00042F004021A641B6C03F004030193019B96
:1023E00002A903A804F0BEFB04F0ACFB43000D48B7
:1023F000A0FB03239B0C013B0B480C4A026040F2FC
:10240000E732C26043600461846004F099FD10B15A
:10241000012008B010BD044804F048FCF9E700BFF3
:102420000038024083DE1B43B43400200008004023
:102430007047FEE7FEE7FEE7FEE7704708B50220BB
:1024400001F046FC08BD000008B5024801F080F824
:1024500008BD00BF7829002008B5024801F078F8CF
:1024600008BD00BFDC1E002008B5024800F02DFBAF
:1024700008BD00BF6428002008B5024804F055FCE0
:1024800008BD00BF6832002008B5024804F04DFCCA
:1024900008BD00BF6832002008B5024804F045FCC2
:1024A00008BD00BF2032002008B5024804F03DFC02
:1024B00008BD00BFB434002008B5024803F012F98B
:1024C00008BD00BF3C1F002008B5024803F0DAF940
:1024D00008BD00BF3C1F002008B5024801F038F8D5
:1024E00008BD00BF941F002008B5024803F020FC7F
:1024F00008BD00BFC043002008B5024803F0F2F851
:1025000008BD00BF881E002008B5024803F0BAF9D4
:1025100008BD00BF881E00200120704708B515F0D7
:1025200065FC162303604FF0FF3008BD08B54FF07F
:10253000FF31FFF7F3FFFEE770B50C4616460025A6
:10254000B54207DAAFF30080214601F8010B0135EF
:102550000C46F5E7304670BD70B50C4616460025B2
:10256000B54205DA14F8010BAFF300800135F7E747
:10257000304670BD4FF0FF3070474FF400534B6052
:1025800000207047012070470020704710B50346B7
:102590000C4A0D490D48006840B10C4800680344DE
:1025A000521A934206D8094A136010BD0748084CD6
:1025B0000460F2E715F01AFC0C2303604FF0FF30C3
:1025C000F3E700BF000001200012000020070020F8
:1025D000D8470020044BD3F8882042F47002C3F897
:1025E0008820024A9A60704700ED00E00000010870
:1025F000DFF834D0002103E00C4B5B58435004312A
:102600000B480C4B42189A42F6D30B4A02E00023C7
:1026100042F8043B094B9A42F9D3FFF7DBFF15F070
:10262000EBFBFFF7E7FB7047000001203C050308C8
:1026300000000020F4030020F8030020D847002009
:10264000FEE7000008B50B4B1A6842F400721A60EE
:102650001A6842F480621A601A6842F480721A6042
:10266000032000F0F3FD0020FFF7A4FEFFF790FC2D
:10267000002008BD003C0240034A1168034B1B7850
:102680000B441360704700BFFC3400200C00002096
:10269000014B1868704700BFFC34002038B5044671
:1026A000FFF7F6FF0546B4F1FF3F02D0044B1B785D
:1026B0001C44FFF7EDFF401BA042FAD338BD00BF1A
:1026C0000C0000204A4B5A6822F440325A605A6883
:1026D00041680A435A600268536823F48073536068
:1026E00002685368016943EA012353600268536832
:1026F00023F0407353600268536881680B43536052
:102700000268936823F40063936002689368C16869
:102710000B439360826A374B9A4257D002689368A2
:1027200023F07063936002689368816A0B4393603F
:102730000268936823F04053936002689368C16A0B
:102740000B4393600268936823F00203936002686E
:102750009368017E43EA4103936090F82030002B98
:102760003FD00268536843F40063536002685368C3
:1027700023F46043536001684B68426A013A43EABC
:1027800042334B600268D36A23F47003D36201685A
:10279000CB6AC269013A43EA0253CB62026893688A
:1027A00023F4007393600268936890F8301043EA52
:1027B000412393600268936823F480639360026806
:1027C0009368416943EA8123936070470268936884
:1027D00023F0706393600268936823F04053936022
:1027E000B0E70268536823F400635360CAE700BF90
:1027F000002301400100000F38B310B50446036CFC
:1028000043B1236C13F0100F0BD00120002384F888
:102810003C3010BDFFF7DEFB0023636484F83C30DE
:10282000EFE7236C23F4885323F0020343F0020301
:1028300023642046FFF746FF00206064236C23F0EA
:10284000030343F001032364E0E701207047000025
:1028500082B00023019390F83C30012B6ED001230D
:1028600080F83C3003689A6812F0010F13D19A681F
:1028700042F001029A60344B1B68344AA2FB0323E6
:102880009B0C03EB4303019302E0019B013B01938B
:10289000019B002BF9D10268936813F0010F42D01D
:1028A000036C23F4E06323F0010343F480730364B7
:1028B000536813F4806F05D0036C23F4405343F442
:1028C00080530364036C13F4805F19D0436C23F0CE
:1028D00006034364002380F83C306FF0220313604A
:1028E0001B4B5B6813F01F0F0DD103689A6812F041
:1028F000405F25D19A6842F080429A6000201BE038
:1029000000234364E6E70368124A934201D00020A3
:1029100012E09A6812F0405F14D19A6842F0804247
:102920009A60002008E0036C43F010030364436CDA
:1029300043F001034364002002B070470220FBE72C
:102940000020F9E70020F7E70800002083DE1B43A2
:10295000002301400020014010B582B01346002240
:10296000019290F83C20012A00F094800446012254
:1029700080F83C200268906810F0010F13D1906835
:1029800040F001009060464A1068464AA2FB0020D1
:10299000800C00EB4000019002E0019801380190AA
:1029A00001980028F9D12268906810F4807F03D044
:1029B000906820F4807090602268906810F0010F99
:1029C0005DD0206C20F4E06020F0010040F48070C5
:1029D0002064526812F4806F05D0226C22F44052B9
:1029E00042F480522264226C12F4805F34D0626C14
:1029F00022F006026264002284F83C20A26B2A487E
:102A0000D063A26B29481064A26B2948D064226865
:102A10006FF0220010602068426842F080624260DD
:102A20002068826842F48072826020680A4600F161
:102A30004C01A06B00F044FD1E4B5B6813F01F0FB0
:102A40000DD123689A6812F0405F25D19A6842F050
:102A500080429A6000201BE000226264CBE723687A
:102A6000154A934201D0002012E09A6812F0405FAC
:102A700014D19A6842F080429A60002008E0236CEA
:102A800043F010032364636C43F00103636400208C
:102A900002B010BD0220FBE70020F9E70020F7E7B5
:102AA0000800002083DE1B432F2C0108BD2A0108EB
:102AB000192C0108002301400020014008B5806B5B
:102AC000FEF7BDFD08BD7047704738B50446026883
:102AD0001168536811F0020F2FD003F0200363B385
:102AE000036C13F0100F03D1036C43F40073036401
:102AF000936813F0405F19D1237EBBB9D36A13F4F6
:102B0000700F03D0936813F4806F0FD1536823F0D4
:102B100020035360236C23F480732364236C13F429
:102B2000805F03D1236C43F0010323642046FEF74A
:102B300085FD23686FF012021A60236819685A68CD
:102B400002F0800211F0040F36D0002A34D0226C3B
:102B500012F0100F03D1226C42F4005222649A68E2
:102B600012F4401F21D19A6B12F4401F03D09A68CF
:102B700012F4806F19D15A6812F4806F15D19A68D7
:102B800012F0405F11D1227E7AB95A6822F0800299
:102B90005A60236C23F480532364236C13F4807FE6
:102BA00003D1236C43F0010323642046FEF722FD8A
:102BB00023686FF00C021A6022681168536803F0F2
:102BC000400311F0010F04D01BB1136813F0010F83
:102BD00009D122681168536803F0806311F0200F57
:102BE00000D063B938BD236C43F48033236420469E
:102BF000FFF769FF23686FF001021A60E9E7636C71
:102C000043F0020363646FF0200515602046FFF770
:102C10005BFF23681D60E5E708B5806B4023036414
:102C2000436C43F004034364FFF74EFF08BD08B54F
:102C30000346806B026C12F0500F25D1036C43F4F5
:102C40000073036403689A6812F0405F19D1027E32
:102C5000BAB9DA6A12F4700F03D09A6812F4806F6E
:102C60000FD15A6822F020025A60036C23F480735B
:102C70000364036C13F4805F03D1036C43F001031E
:102C80000364FEF7DBFC08BD026C12F0100F04D1E8
:102C9000826BD26C18469047F5E7FFF715FFF2E715
:102CA00030B482B00023019390F83C30012B00F047
:102CB000B780012380F83C300B68092B3ED90568AA
:102CC000EA689BB203EB43031E3B072404FA03F3B9
:102CD00022EA0303EB600568EA688C680B8803EB63
:102CE00043031E3B04FA03F31343EB604B68062BCC
:102CF0003AD805686A6B03EB8303053B1F2404FA8B
:102D000003F322EA03036B6305686A6B4B6803EB0A
:102D10008303053B0C8804FA03F313436B630268D7
:102D2000404B9A4250D002683E4B9A4255D0002305
:102D300080F83C30184602B030BC704705682A69FC
:102D40009BB203EB4303072404FA03F322EA0303D1
:102D50002B6105682A698C680B8803EB430304FA2E
:102D600003F313432B61C1E70C2B16D805682A6BBC
:102D700003EB8303233B1F2404FA03F322EA030338
:102D80002B6305682A6B4B6803EB8303233B0C889A
:102D900004FA03F313432B63C1E70568EA6A03EB04
:102DA0008303413B1F2404FA03F322EA0303EB628B
:102DB0000568EA6A4B6803EB8303413B0C8804FA1D
:102DC00003F31343EB62AAE70B68122BABD1164A4D
:102DD000536843F480035360A5E70B68103B012B55
:102DE000A5D8114A536843F4000353600B68102BB5
:102DF0009DD10E4B1B6802F1467202F52E3202F293
:102E00008332A2FB03239B0C03EB83035B00019340
:102E100002E0019B013B0193019B002BF9D186E766
:102E2000022088E700200140002301400800002024
:102E300082B00023019390F83C30012B67D001232E
:102E400080F83C3003689A6812F0010F13D19A6839
:102E500042F001029A60334B1B68334AA2FB032302
:102E60009B0C03EB4303019302E0019B013B0193A5
:102E7000019B002BF9D10268936813F0010F3BD03E
:102E8000036C23F4405323F0010343F480530364A1
:102E9000036C13F4807F01D100234364002380F886
:102EA0003C306FF004031360204B5B6813F01F0F7E
:102EB0000ED102689168536803F4806311F4401FD7
:102EC00027D143BB936843F48003936000201CE048
:102ED00003689A6802F44012596801F4806114484A
:102EE000834201D0002010E0BAB9C1B99A6842F417
:102EF00080029A60002008E0036C43F01003036432
:102F0000436C43F001034364002002B07047022089
:102F1000FBE70020F9E70020F7E70020F5E70020B5
:102F2000F3E700BF0800002083DE1B4300230140BD
:102F30000020014082B00023019390F83C30012B27
:102F40006CD0012380F83C3003689A6812F0010FBE
:102F500013D19A6842F001029A60354B1B68354ADA
:102F6000A2FB03239B0C03EB4303019302E0019BB1
:102F7000013B0193019B002BF9D10268936813F088
:102F8000010F40D0036C23F4405323F0010343F4BA
:102F900080530364036C13F4807F01D100234364E6
:102FA000002380F83C306FF004031360026853681C
:102FB00043F080035360204B5B6813F01F0F0ED16A
:102FC00002689168536803F4806311F4401F27D1AD
:102FD00043BB936843F48003936000201CE00368C4
:102FE0009A6802F44012596801F4806113488342E0
:102FF00001D0002010E0BAB9C1B99A6842F4800249
:103000009A60002008E0036C43F010030364436CF3
:1030100043F001034364002002B070470220FBE745
:103020000020F9E70020F7E70020F5E70020F3E7AC
:103030000800002083DE1B430023014000200140E4
:1030400090F83C30012B00F0F98030B4012380F877
:103050003C300B68092B7DD90568EA689BB203EB0D
:1030600043031E3B072404FA03F322EA0303EB6045
:103070000568EA688C680B8803EB43031E3B04FA7F
:1030800003F31343EB600268936B23F440139363E1
:103090000468A36B0A69013A43EA0253A363056813
:1030A000AA6B4B680C691B1BDBB20333DBB203EB6F
:1030B00083031F2404FA03F322EA0303AB630568C6
:1030C000AA6B4B680C691B1BDBB20333DBB203EB4F
:1030D00083030C8804FA03F31343AB638A69584BE8
:1030E0009A424DD00268936823F47023936002687B
:1030F00093688C69234393600268936823F44013B8
:10310000936002689368CC69234393604B7D002BE6
:1031100041D00268536843F4806353600B7D002BF9
:103120003FD00268536843F4805353604B68022BCE
:1031300057D0032B62D0012B39D00268136A23F4D5
:103140007F6323F00F0313620268136ACC68234382
:10315000136238E005682A699BB203EB4303072436
:1031600004FA03F322EA03032B6105682A698C68D9
:103170000B8803EB430304FA03F313432B6182E749
:103180000268936823F4702393600268936823F4C1
:1031900040139360BAE70268536823F48063536076
:1031A000BCE70268536823F480535360BEE70268AB
:1031B000536923F47F6323F00F035361026853695B
:1031C000CC682343536102681E4B9A4223D00268A5
:1031D0001C4B9A4228D0002380F83C30184630BC63
:1031E00070470268936923F47F6323F00F039361B0
:1031F00002689369CC6823439361E4E70268D3696A
:1032000023F47F6323F00F03D3610268D369CC6892
:103210002343D361D7E70B68122BD8D10A4A5368EE
:1032200043F480035360D2E70B68103B012BD2D8E4
:10323000054A536843F400035360CCE7022070470B
:1032400001000F000020014000230140074AD3681D
:1032500023F4E0631B041B0C000200F4E060034352
:1032600043F0BF6343F40033D360704700ED00E0E8
:1032700030B4174BDB68C3F30223C3F10704042CFB
:1032800028BF04241D1D062D18D9033B4FF0FF3520
:1032900005FA04F421EA0401994005FA03F322EA4D
:1032A0000303194300280BDB0901C9B200F1604098
:1032B00000F5614080F8001330BC70470023E5E75B
:1032C00000F00F000901C9B2024B1954F4E700BF26
:1032D00000ED00E014ED00E0002807DB00F01F0225
:1032E000400901239340024A42F82030704700BF52
:1032F00000E100E030B405682C6824F480242C60E0
:10330000046863608368402B05D003689960036894
:10331000DA6030BC704703689A600368D960F8E7E8
:1033200010B40368D9B210390C4AA2FB0142120949
:103330000B4CA25CC2655F2909D923F47F7323F08B
:10334000030304338365806D5DF8044B704723F4F9
:103350007F7323F003038365F5E700BFABAAAAAA36
:1033600040B00208836A826992B9012B0AD0022B0D
:1033700002D00BB100207047C36A13F0807F28D1C0
:1033800000207047C36AB3F1C07F24D0002070478B
:10339000B2F5005F09D0022B25D9032B25D1C36AD2
:1033A00013F0807F23D100207047032B03D8DFE880
:1033B00003F01404140A00207047C36A13F0807FDE
:1033C0000DD100207047C36AB3F1C07F09D000203F
:1033D000704701207047012070470120704701208D
:1033E000704701207047012070470020704701207E
:1033F0007047000070B50446FFF74AF9002C5BD017
:103400000546022384F83530002384F834302268DE
:10341000136823F00103136023681A6812F0010F88
:103420000AD0FFF735F9431B052BF5D92023636537
:10343000032084F8350070BD1A6820481040616888
:10344000A2680A43E1680A4321690A4361690A43A1
:10345000A1690A43E1690A43216A0A430243616A96
:1034600004291ED01A602668756925F00705636A6D
:103470001D43042B07D1A36A1D43E36A1BB12046F9
:10348000FFF770FF90B975612046FFF749FFE26DC5
:103490003F239340836000206065012384F835302A
:1034A000C9E7E16A206B01430A43DBE74023636518
:1034B000012084F83500BEE70120BCE73F8010F012
:1034C00038B50446856D90F8340001282BD00120D2
:1034D00084F8340094F83500C0B2012804D00023E9
:1034E00084F83430022038BD022084F835000020F2
:1034F00060652046FFF7FEFEE26D3F239340AB6020
:103500002268136843F016031360236C23B122680A
:10351000136843F0080313602268136843F0010343
:1035200013600020DFE70220DDE790F83530DBB2E2
:10353000022B03D08023436501207047052380F8C8
:1035400035300268136823F00103136000207047D0
:10355000F0B583B0044600230193724B1D68724B93
:10356000A3FB0535AD0A876D3E68C26D0823934005
:10357000334210D003681A6812F0040F0BD01A6897
:1035800022F004021A60C26D08239340BB60436DB1
:1035900043F001034365E26D01239340334209D0B8
:1035A0002268526912F0800F04D0BB60636D43F053
:1035B00002036365E26D04239340334209D022681D
:1035C000126812F0020F04D0BB60636D43F0040375
:1035D0006365E26D10239340334224D02268126861
:1035E00012F0080F1FD0BB6023681A6812F4802FF6
:1035F0000DD01B6813F4002F04D1236C9BB120461F
:10360000984710E0A36C73B1204698470BE01A6806
:1036100012F4807F03D11A6822F008021A60236C2A
:103620000BB120469847E26D20239340334255D09A
:103630002268126812F0100F50D0BB6094F8353039
:10364000DBB2052B0ED023681A6812F4802F33D01A
:103650001B6813F4002F2AD1636C002B3ED0204648
:1036600098473BE02268136823F016031360226832
:10367000536923F080035361236CA3B1226813685C
:1036800023F008031360E26D3F239340BB600123E6
:1036900084F83530002384F83430236D002B3FD07C
:1036A000204698473CE0A36C002BE7D1EBE7E36BA7
:1036B000A3B12046984711E01A6812F4807F09D11F
:1036C0001A6822F010021A60012384F835300023B2
:1036D00084F83430E36B0BB120469847636DFBB13F
:1036E000636D13F0010F17D0052384F8353022687D
:1036F000136823F001031360019B01330193AB4274
:1037000004D823681B6813F0010FF5D1012384F856
:103710003530002384F83430E36C0BB120469847F1
:1037200003B0F0BD08000020B5814E1B90F83500B5
:103730007047000010B40A490C6924F440740C610D
:103740000C6944F440740C610C6944F001040C6190
:103750000260BFF36F8F43605DF8044B704700BF9A
:10376000003C0240074B1A6922F440721A611A6940
:1037700042F400721A611A6942F001021A61016092
:10378000704700BF003C0240074B1A6922F44072A8
:103790001A611A6942F480721A611A6942F00102D0
:1037A0001A610180704700BF003C0240064B1A6955
:1037B00022F440721A611A691A611A6942F0010210
:1037C0001A610170704700BF003C0240274BDB6864
:1037D00013F0100F07D0264AD36943F01003D361CA
:1037E000224B1022DA60214BDB6813F0200F07D048
:1037F0001F4AD36943F00803D3611C4B2022DA60CF
:103800001A4BDB6813F0400F07D0194AD36943F015
:103810000403D361154B4022DA60144BDB6813F0CC
:10382000800F07D0124AD36943F00203D3610F4BD4
:103830008022DA600D4BDB6813F4807F08D00C4ADD
:10384000D36943F00103D361084B4FF48072DA600F
:10385000064BDB6813F0020F07D0054AD36943F02B
:103860002003D361014B0222DA607047003C024022
:1038700000350020094B1B69002B01DB002070473D
:10388000064B074A5A6002F188325A601B69002BC6
:1038900001DB002070470120704700BF003C024060
:1038A00023016745034A136943F000431361002075
:1038B000704700BF003C024038B50446144B00225C
:1038C000DA61FEF7E5FE0546124BDB6813F4803F34
:1038D0000AD0B4F1FF3FF7D024B1FEF7D9FE401B68
:1038E000A042F1D903200DE00A4BDB6813F0010F71
:1038F00002D0084B0122DA60064BDB6813F4F97F33
:1039000001D1002038BDFFF761FF0120FAE700BFB9
:1039100000350020003C0240F8B516461B4A127ED6
:10392000012A30D004460D461F46184B01221A7654
:103930004CF25030FFF7C0FF90B9ACB1012C18D059
:10394000022C1BD032463B462846FFF7F3FE4CF2D2
:103950005030FFF7B1FF0E4A136923F001031361E2
:103960000A4B00221A76F8BDF1B22846FFF71EFF77
:10397000EDE7B1B22846FFF707FFE8E731462846F2
:10398000FFF7F0FEE3E70220EDE700BF003500207F
:10399000003C0240074B196921F440711961196913
:1039A00041F0040119611A6942EA002242F48032AE
:1039B0001A617047003C024010B449B1012921D07E
:1039C000022902D04FF4407403E04FF4007400E089
:1039D00000240E4B196921F4407119611A692243C0
:1039E0001A611A6922F0F8021A611A6942EAC000E3
:1039F00040F0020018611A6942F480321A615DF8E1
:103A0000044B70474FF48074E3E700BF003C024072
:103A1000164B1B6813F4007F10D0144B1A6822F465
:103A200000721A601A6842F400621A601A6822F47E
:103A300000621A601A6842F400721A600B4B1B682D
:103A400013F4806F10D0094B1A6822F480621A6058
:103A50001A6842F480521A601A6822F480521A607E
:103A60001A6842F480621A60704700BF003C02404E
:103A7000F8B5224B1B7E012B3ED004460E461F4B51
:103A800001221A764CF25030FFF716FF074670BB42
:103A90004FF0FF3333602368012B16D0A568E3682D
:103AA000A2681344AB4220D9217C2846FFF784FF4B
:103AB0004CF25030FFF700FF114A136923F0FA036C
:103AC0001361074680B90135E9E76168207CFFF79B
:103AD00061FF4CF25030FFF7EFFE0746084A1369CA
:103AE00023F00403136100E03560FFF791FF034BFF
:103AF00000221A763846F8BD0227FBE70035002081
:103B0000003C024000230F2B00F2CB80F0B482B0C7
:103B10005DE086685F000324BC4026EA0406CC68AA
:103B2000BC4034438460466826EA02064C68C4F30D
:103B300000129A403243426057E0DC08083450F8E3
:103B4000247003F0070296000F22B24027EA020712
:103B50000A69B2403A4340F824205AE0042200E0C7
:103B60000022B2403A4302344E4E46F824204E4AD8
:103B70001468EA4324EA05064F6817F4803F01D031
:103B800045EA0406484C2660646802EA04064F6869
:103B900017F4003F01D045EA0406434C6660A46870
:103BA00002EA04064F6817F4801F01D045EA0406B4
:103BB0003D4CA660E46822404E6816F4001F01D018
:103BC00045EA0402384CE26001330F2B66D801222B
:103BD0009A400C6804EA020532EA0404F4D14C6805
:103BE00004F00304013C012C93D94A6802F003025B
:103BF000032A09D0C4685E000322B24024EA02040A
:103C00008A68B2402243C2604A6802F00302022A74
:103C100093D004685E000322B24024EA02044A689A
:103C200002F00302B240224302604A6812F4403FAD
:103C3000CAD0002201921D4A546C44F4804454645A
:103C4000526C02F480420192019A9C08A61C154A0B
:103C500052F8267003F0030296000F22B24027EAC2
:103C60000207134A90423FF47BAF02F58062904214
:103C70000ED002F5806290420CD002F58062904234
:103C80000AD002F5806290423FF468AF072268E7ED
:103C9000012266E7022264E7032262E702B0F0BC79
:103CA0007047704700380140003C01400038024036
:103CB000000002400369194201D001207047002032
:103CC00070470AB181617047090481617047000043
:103CD00008B5054B5B69034200D108BD024B586132
:103CE000FDF7C6FCF9E700BF003C014090F83E300C
:103CF000DBB2402B10D00369B3F5804F1BD0036DAE
:103D0000002B39D1436CC3F3C813026803F00603D8
:103D100043F0F00313617047036D2BB9436C0268E5
:103D200003F0FE0313617047436C026843F0010324
:103D3000DBB21361704790F83D30DBB2212B0FD01E
:103D4000436C026843F00103DBB21361436B6BB158
:103D5000DB6B5BB10268536843F4006353607047E8
:103D6000436C026803F0FE031361EFE7836B33B12A
:103D7000DB6B002BEED102E0036D012B00D070470E
:103D8000436CC3F3C813026803F0060343F0F10366
:103D90001361F4E7436C0268DBB21361436B3BB120
:103DA000DB6B2BB10268536843F4006353607047C8
:103DB000836B002BFBD0DB6B002BF3D1F7E710B448
:103DC0008BB090F83E30DAB2C16A046B90F83D30A7
:103DD000DBB2222B0BD00023099303685A690992A6
:103DE0009B690993099B0BB05DF8044B7047036D09
:103DF0000BB9402A17D0036D1BB90369B3F5404FC7
:103E000019D0438D9BB2002B25D1029303685A69C8
:103E100002929A690292029A1A6842F400721A6037
:103E200000230365DFE7009303685A6900929B69EA
:103E30000093009BD7E70023019303685A6901921E
:103E40009A690192019A1A6842F480721A60036DAD
:103E500001330365C7E7438D9BB2012B25D0438D0A
:103E60009BB2022B7BD00268136843F4806313601B
:103E700003685A6812F4006F0ED011F5803F07D026
:103E8000012905D0082903D0102901D0202903D108
:103E90005A6842F480525A600023089303685A69B2
:103EA00008929B690893089BBAE711F5803F11D0EF
:103EB000082934D0202932D0122C2ED0042940D009
:103EC00002293ED010293CD00268136823F4806395
:103ED00013603BE00268136823F480631360036897
:103EE0005A6812F4006F0CD01A6822F480621A60CB
:103EF0000023039303685A6903929B690393039B0E
:103F00008EE7002204925A6904929A690492049AF4
:103F10001A6842F400721A6082E70129CED0026862
:103F2000136823F4806313600023069303685A69BF
:103F300006929A690692069A1A6842F400721A600A
:103F40006EE70268136843F48063136000230593EF
:103F500003685A6905929B690593059B60E70429EC
:103F60000ED002290CD010290AD00268136823F45D
:103F7000806313600268136843F40063136004E015
:103F80000268136843F48063136003685A6812F48C
:103F9000006F0ED011F5803F07D0012905D0082908
:103FA00003D0102901D0202903D15A6842F480524D
:103FB0005A600023079303685A6907929B69079325
:103FC000079B2DE7438D9BB25BB1426A0368127871
:103FD0001A61436A01334362438D9BB2013B9BB23A
:103FE00043857047438D9BB25BB103681A69436A8E
:103FF0001A70436A01334362438D9BB2013B9BB20B
:104000004385704782B0002301930E4B1B68DB0889
:104010000D4AA2FB03231B0A03EB83030193019BBD
:10402000013B0193019B33B103681B6813F4007FCC
:10403000F5D1002004E0036C43F020030364012069
:1040400002B070470800002089B5F81403685A6967
:1040500012F4806F01D1002070476FF480625A61C2
:1040600000230363202280F83D2080F83E30026C5C
:1040700042F00402026480F83C3001207047C36AB9
:10408000B3F52A0F04D0C36AB3F12A4F03D07047A7
:104090000123C36270470823C362F8E72DE9F041AA
:1040A00007460D4690461E4622E0FEF7F1FA069BB3
:1040B000C01AB04200D8DEB900233B63202287F843
:1040C0003D2087F83E303A6C42F020023A6487F88F
:1040D0003C3001201AE03B689C6925EA0404A4B244
:1040E000B4FA84F46409A0450FD1B6F1FF3FDCD1E6
:1040F000C5F30743012BEED13B685C6925EA040454
:10410000A4B2B4FA84F46409EDE70020BDE8F081BC
:104110002DE9F04105460E46174698463DE01A68DF
:1041200042F400721A602B686FF480625A610023B7
:104130002B63202285F83D2085F83E302A6C42F022
:1041400004022A6485F83C30012034E0FEF7A0FA2E
:10415000A0EB0800B84200D8FFB900232B6320224F
:1041600085F83D2085F83E302A6C42F020022A6412
:1041700085F83C3001201EE02B689C6926EA040487
:10418000A4B2003C18BF0124A4B12B685A6912F4F0
:10419000806FC4D1B7F1FF3FD8D1C6F30743012BDD
:1041A000EAD12B685C6926EA0404A4B2003C18BF7B
:1041B0000124E9E70020BDE8F0810000F0B583B0FC
:1041C00004460D4616461F46C36A082B0DD0012B28
:1041D0000BD013F5803F08D0036B122B0AD1026875
:1041E000136843F48073136004E02268136843F497
:1041F000807313600097334600224FF00111204670
:10420000FFF74CFF80B92369B3F5804F16D12368BF
:1042100005F0FE051D613B46324613492046FFF777
:1042200077FFF8B903B0F0BD23681B6813F4807FF3
:1042300002D04FF4007323640320F3E7EB112268EC
:1042400003F0060343F0F00313613B46324607498F
:104250002046FFF75DFF18B92368EDB21D61DAE76C
:104260000120DFE70120DDE7020001000800010076
:1042700070B504460D46164623685B6913F0800F3F
:104280001CD12046FFF7E2FED0B9B5F1FF3FF3D0D5
:10429000FEF7FEF9801BA84201D8002DECD10023C7
:1042A0002363202284F83D2084F83E30226C42F0C3
:1042B0002002226484F83C30012000E0002070BD20
:1042C0000120FCE72DE9F04385B004460D469146F8
:1042D0001F46DDF830800D9E0368196841F4807137
:1042E00019600096434600224FF00111FFF7D6FEF9
:1042F00060B9236805F0FE051D6133464246264934
:104300002046FFF705FF68B1012008E023681B681D
:1043100013F4807F02D04FF400732364032005B0B0
:10432000BDE8F0830023039323685A6903929B69D5
:104330000393039B324641462046FFF799FF30B96D
:10434000012F0FD123685FFA89F61E61E7E7236C1E
:10435000042B01D00120E2E72268136843F40073C4
:104360001360F7E723684FEA19221A613246414683
:104370002046FFF77DFF20B923685FFA89F61E61AA
:10438000CDE7236C042B01D00120C8E72268136815
:1043900043F400731360F7E7020001002DE9F047D2
:1043A00084B004460D46164699460C9FDDF83480CD
:1043B0000268136843F4806313600368196841F46A
:1043C00080711960CDF800803B4600224FF001114A
:1043D000FFF764FE70B95FFA85FA236805F0FE0501
:1043E0001D6143463A4641492046FFF791FE68B1B8
:1043F000012008E023681B6813F4807F02D04FF48B
:1044000000732364032004B0BDE8F0870023039306
:1044100023685A6903929B690393039B424639467A
:104420002046FFF725FF80B9B9F1010F18D12368A5
:10443000F6B21E61424639462046FFF719FF68B3BF
:10444000236C042B24D00120DDE7236C042B01D046
:104450000120D8E72268136843F400731360F7E77C
:104460002368320A1A61424639462046FFF700FFA8
:1044700018B92368F6B21E61DCE7236C042B01D067
:104480000120C0E72268136843F400731360F7E764
:104490002268136843F400731360D4E7226813683A
:1044A00043F480731360CDF800803B4600224FF048
:1044B00001112046FFF7F2FD68B922684AF00103B6
:1044C000136143463A4609492046FFF721FE00287A
:1044D00099D0012097E723681B6813F4807F02D0EE
:1044E0004FF40073236403208DE700BF0200010036
:1044F00070B504460D46164623685B6913F0040F39
:104500001CD12046FFF7A2FDD0B9B5F1FF3FF3D093
:10451000FEF7BEF8801BA84201D8002DECD1002385
:104520002363202284F83D2084F83E30226C42F040
:104530002002226484F83C30012000E0002070BD9D
:104540000120FCE770B505460C4616462B685969F4
:1045500011F0400F29D1596911F0100F15D1FEF754
:1045600097F8801BA04201D8002CEFD100232B63C9
:10457000202285F83D2085F83E302A6C42F020024A
:104580002A6485F83C30012070BD6FF010025A613A
:1045900000232B63202285F83D2085F83E302A6CCD
:1045A0002A6485F83C300120EEE70020ECE70000AB
:1045B000002800F0CC80F8B5044690F83D30002B80
:1045C00077D0242384F83D302268136823F0010358
:1045D00013602268136843F4004313602268136871
:1045E00023F40043136002F0ADFA62685A4B9A421A
:1045F00064D85A4B98428CBF00230123002B40F013
:10460000A880574DA5FB0035AF0C2668716821F0D6
:104610003F0141EA9541716021680B6A23F03F0335
:1046200065684D4A95424FD87A1C13430B62256842
:10463000E96921F44F4121F0FF016368464A934242
:104640004CD801385B00B0FBF3F0013040F6FC734E
:10465000184278D0C0F30B030B43EB6121680B6861
:1046600023F0C003E269206A024313430B60216810
:104670008B6823F4034323F0FF032269E0680243BD
:1046800013438B602168CB6823F0FF036269A06944
:1046900002431343CB602268136843F001031360A5
:1046A00000202064202384F83D30206384F83E00FD
:1046B000F8BD80F83C30FDF701FD82E7294B9842B8
:1046C0008CBF0023012399E74FF4967202FB07F297
:1046D000254DA5FB025292090132A6E7A268BAB99C
:1046E000461E03EB4307B6FBF7F60136C6F30B068F
:1046F000B6FA86F6760946BBC2B9421E03EB4303FF
:10470000B2FBF3F20132C2F30B0242F40043A3E71F
:10471000461E03EB830707EB8707B6FBF7F6013668
:10472000C6F30B06B6FA86F67609E4E7421E03EBFB
:10473000830303EB8303B2FBF3F20132C2F30B02F8
:1047400042F4404388E7042386E7012384E70120FD
:1047500070470120ACE700BFA08601007F841E00E7
:1047600083DE1B43FF083D00D34D62102DE9F0436B
:1047700085B004460F46914698460C9EFDF788FF8B
:10478000054694F83D00C0B2202804D002273846E0
:1047900005B0BDE8F0830095192301224F4920465A
:1047A000FFF77CFC002840F0928094F83C30012B0D
:1047B00000F08F80012384F83C3023681A6812F0DF
:1047C000010F03D11A6842F001021A6022681368CF
:1047D00023F400631360212384F83D30102384F810
:1047E0003E3000232364C4F82490A4F82A80638D0B
:1047F00023853B4BE3622B46324639462046FFF782
:10480000DDFC0746002866D10023039323685A691C
:1048100003929B690393039B11E0236C042B01D04B
:104820000127B4E72268136843F400731360F7E7C5
:104830002A4631462046FFF75BFE00282ED1238D05
:10484000002B36D02A4631462046FFF711FD0028BE
:10485000E3D1626A236812781A61616A4B1C636251
:10486000638D9BB2013B9BB26385238D013B9BB261
:1048700023852268506910F0040FD9D0002BD7D0BF
:104880004B781361636A01336362638D9BB2013BB2
:104890009BB26385238D013B2385C9E7236C042BE1
:1048A00001D0012773E72268136843F40073136093
:1048B000F7E72268136843F400731360202384F839
:1048C0003D30002384F83E3084F83C305FE7022717
:1048D0005DE702275BE7012759E700BF02001000F0
:1048E0000000FFFF2DE9F04383B004460F469046D9
:1048F00099460C9EFDF7CCFE054694F83D00C0B2EB
:10490000202803D0022003B0BDE8F08300951923CE
:1049100001224B492046FFF7C1FB002840F0898067
:1049200094F83C30012B00F08680012384F83C3061
:1049300023681A6812F0010F03D11A6842F00102CD
:104940001A602268136823F400631360212384F83B
:104950003D30402384F83E30002323640A9B636289
:10496000BDF82C306385638D2385364BE36201955A
:1049700000964B46424639462046FFF7A3FC0028E6
:104980005BD1238D002B35D02A4631462046FFF7D8
:104990006FFC20BB626A236812781A61616A4B1C43
:1049A0006362228D013A92B22285638D9BB2013BF4
:1049B0009BB263852368586910F0040FE1D0002A88
:1049C000DFD04A781A61636A01336362238D013B49
:1049D0002385638D9BB2013B9BB26385D1E7236C3A
:1049E000042B01D001208EE72268136843F4007382
:1049F0001360F7E72A4631462046FFF779FD50B1AC
:104A0000236C042B01D001207DE72268136843F456
:104A100000731360F7E72268136843F400731360B0
:104A2000202384F83D30002384F83E3084F83C3065
:104A300069E7022067E7022065E7012063E700BF1E
:104A4000020010000000FFFF2DE9F04387B004468C
:104A50000F4690469946109EFDF71AFE054694F8BB
:104A60003D00C0B2202804D00227384607B0BDE878
:104A7000F0830095192301229D492046FFF70EFB84
:104A8000002840F0448194F83C30012B00F0418133
:104A9000012384F83C3023681A6812F0010F03D117
:104AA0001A6842F001021A602268136823F4006356
:104AB0001360222384F83D30402384F83E300023E5
:104AC00023640E9B6362BDF83C306385638D238550
:104AD000884BE362019500964B4642463946204694
:104AE000FFF75CFC0746002840F01581238D5BB979
:104AF000029323685A6902929A690292029A1A688A
:104B000042F400721A6098E0012B0AD0022B1AD0EE
:104B10000023059323685A6905929B690593059BB9
:104B20008BE02268136823F48063136000230393EF
:104B300023685A6903929A690392039A1A6842F4A5
:104B400000721A6079E02268136823F480631360AE
:104B50002268136843F400631360002304932368FE
:104B60005A6904929B690493049B66E02A46314685
:104B70002046FFF7E7FC002840F0CF8023681A6941
:104B8000636A1A70636A01336362238D013B238574
:104B9000638D9BB2013B9BB263854EE0009533462B
:104BA000002255492046FFF779FA002840F0B780E7
:104BB0002268136843F40073136023681A69636AF8
:104BC0001A70626A531C6362238D013B2385638DD7
:104BD0009BB2013B9BB2638523681B695370636A78
:104BE00001336362238D013B2385638D9BB2013BBF
:104BF0009BB2638521E02268136843F4007313605D
:104C000023681A69636A1A70626A531C6362238D8F
:104C1000013B2385638D9BB2013B9BB26385236877
:104C20001B695370636A01336362238D013B2385E3
:104C3000638D9BB2013B9BB26385238D002B5DD0BE
:104C4000032B2BD8012B91D0022BA7D000953346F4
:104C5000002229492046FFF721FA002861D1226865
:104C6000136823F48063136023681A69636A1A70F7
:104C7000636A01336362238D013B2385638D9BB29D
:104C8000013B9BB263850095334600221A492046BA
:104C9000FFF704FA0028AED00127E6E62A4631469F
:104CA0002046FFF74FFC00283DD123681A69636A4C
:104CB0001A70626A531C6362238D013B2385638DE6
:104CC0009BB2013B9BB263852368596911F0040FC5
:104CD000B3D01B695370636A01336362238D013B58
:104CE0002385638D9BB2013B9BB26385A5E700BF23
:104CF000020010000000FFFF04000100202384F8E0
:104D00003D30002384F83E3084F83C30ADE6022785
:104D1000ABE60227A9E60127A7E60127A5E60127BA
:104D2000A3E60127A1E601279FE600BF704708B56B
:104D300090F83D30DAB2438D9BB283B1416A03688B
:104D400009781961436A01334362438D9BB2013B89
:104D50009BB24385438D9BB20BB9292A00D008BD75
:104D60000268536823F4806353602123036328237C
:104D700080F83D30FFF7DAFFF1E7704708B590F8AB
:104D80003D30DAB2438D9BB283B103681969436A3F
:104D90001970436A01334362438D9BB2013B9BB25E
:104DA0004385438D9BB20BB92A2A00D008BD026807
:104DB000536823F48063536022230363282380F81D
:104DC0003D30FFF7DAFFF1E7704700B583B090F8A8
:104DD0003D3003F02803282B0CD0002301930268F8
:104DE0005169019192690192019A80F83C3003B0B7
:104DF0005DF804FB0268536823F48063536011F08C
:104E0000040F0BD0002311F0800F09D182890021FB
:104E100080F83C101946FFF7D7FFE8E70123F2E7D7
:104E2000028BF4E77047000008B590F83D30DBB224
:104E3000C26A082A01D0202A01D1282B06D0212BB2
:104E40001ED003686FF480625A6108BD1A4BC362BA
:104E50000268536823F4E063536003686FF4806270
:104E60005A610268136823F48063136000230363AC
:104E7000202280F83D2080F83E30FFF7D3FFE4E7A2
:104E80000D4BC36221230363202380F83D300023B0
:104E900080F83E300268536823F4E063536003688F
:104EA0006FF480625A610268136823F480631360B0
:104EB000FFF73CFFC9E700BF0000FFFF08B5C26A6B
:104EC00090F83D30DBB2212B00D008BD438D9BB262
:104ED00063B1426A036812781A61436A013343621C
:104EE000438D9BB2013B9BB24385EEE7082A04D079
:104EF000202A02D012F5803F19D10268536823F4AA
:104F0000E06353600268136843F400731360002386
:104F10000363202380F83D3090F83E30DBB2402B15
:104F200015D0002380F83E30FCF78EFBCDE70268F9
:104F3000536823F4E063536011230363002380F874
:104F40003E30202380F83D30FCF77EFBBDE7002398
:104F500080F83E30FCF77CFBB7E708B590F83D30B1
:104F6000026D9AB9C36C012B08D0836CC3F307237D
:104F700002681361036D0133036508BD836C026829
:104F8000DBB21361036D02330365F6E7DBB2026D3A
:104F9000012A23D0026D022AEFD1222B26D0428D86
:104FA00092B20AB1212B2AD0428D92B2002AE4D1CA
:104FB000212BE2D10268536823F4E0635360026856
:104FC000136843F40073136000230363202280F806
:104FD0003D2080F83E30FCF73BFBCEE7836C026857
:104FE000DBB21361036D01330365C6E70268136822
:104FF00043F480731360036D01330365BDE7426AB8
:10500000036812781A61436A01334362438D9BB28D
:10501000013B9BB24385B0E710B590F83D30DBB261
:1050200090F83E20D2B2C46A018D09B9212B04D078
:10503000212B3BD0402A37D010BD082C04D0202C87
:1050400002D014F5803F19D10268536823F4E0635D
:1050500053600268136843F4007313600023036312
:10506000202380F83D3090F83E30DBB2402B15D045
:10507000002380F83E30FCF7E7FADDE7026853686A
:1050800023F4E063536011230363002380F83E3070
:10509000202380F83D30FCF7D7FACDE7002380F8D5
:1050A0003E30FCF7D5FAC7E7222BC5D1438D9BB222
:1050B0002BB90268536823F480635360BCE790F80F
:1050C0003E30DBB2402B0CD0426A036812781A6182
:1050D000436A01334362438D9BB2013B9BB24385DC
:1050E000AAE7FFF73AFFA7E708B5C26A438D9BB26C
:1050F000042B14D0438D9BB2032B22D0438D9BB243
:10510000022B39D003681A69436A1A70436A013363
:105110004362438D9BB2013B9BB2438510E0026822
:10512000536823F48063536003681A69436A1A70F2
:10513000436A01334362438D9BB2013B9BB243857B
:1051400008BD01684B6823F480634B60042A06D0D5
:10515000022A04D00268136823F480631360036892
:105160001A69436A1A70436A01334362438D9BB2E2
:10517000013B9BB24385E3E7012A0BD0102A09D0FB
:10518000042A38D0022A36D00268136843F4007328
:10519000136004E00268136823F4806313600368FB
:1051A0001A69436A1A70426A531C4362438D9BB268
:1051B000013B9BB2438503681B695370436A01330B
:1051C0004362438D9BB2013B9BB2438502685368A7
:1051D00023F440735360202380F83D3090F83E3034
:1051E000DBB2402B0DD0002380F83E301223036346
:1051F000FCF726FAA4E70268136843F4806313609F
:10520000CDE7002380F83E300363FCF72DFA97E7E3
:1052100090F83D30DBB2222B00D0704710B5044629
:10522000438D9BB2032B16D903681A69436A1A701F
:10523000436A01334362438D9BB2013B9BB243857A
:10524000438D9BB2032B00D010BD0268536823F43A
:1052500080635360F8E7C26A022AF5D0012BF3D8C5
:10526000FEF7D0FE00282ED12268136823F4806355
:1052700013602268536823F4E063536023681A695B
:10528000636A1A70636A01336362638D9BB2013B88
:105290009BB26385202384F83D3094F83E30DBB226
:1052A000402B08D0002384F83E301223236320468D
:1052B000FCF7C6F9C8E7002384F83E302363204694
:1052C000FCF7D2F9C0E72268536823F4E063536027
:1052D00023681A69636A1A70636A01336362638DB3
:1052E0009BB2013B9BB26385202384F83D300023B1
:1052F00084F83E302046FCF7AFF9A5E700B583B04F
:1053000000230193806B90F83D20D2B2324B1B6892
:10531000DB083249A1FB03131B0A03EB8303C3EB36
:10532000C3030193019B43B1019B013B01930368BC
:105330001B6813F4007FF5D103E0036C43F02003F6
:105340000364436B0BB10021D963836B0BB1002164
:10535000D96301680B6823F480630B6000234385E5
:10536000436B0BB100211965836B0BB100211965EB
:1053700001680B6823F001030B6090F83D30DBB24D
:10538000602B0ED002F02802282A14D0202380F8A7
:105390003D30002380F83E30FCF75EF903B05DF845
:1053A00004FB202380F83D30002380F83E30036466
:1053B000FCF756F9F2E70268136843F00103136043
:1053C0000268136843F48063136000230363282397
:1053D00080F83D30E0E700BF0800002089B5F814F0
:1053E00010B5044690F83D30DBB290F83E20D2B2C2
:1053F000102A36D0402A34D003F02802282A38D088
:105400002268526812F4006F07D1602B05D0202368
:1054100084F83D30002384F83E3000232363236862
:105420005A6812F4006F48D05A6822F400625A6039
:10543000626B92F83530DBB2012B20D0444B136500
:10544000606BFEF772F8002849D02268136823F0D9
:1054500001031360202384F83D30606B036D98478F
:105460003DE0222BC8D121680A6822F400620A605C
:10547000C2E700232363282384F83D30CFE7A36BE2
:10548000334A1A65A06BFEF750F840B323685A6997
:1054900012F0400F05D01A69636A1A70636A01330B
:1054A00063622268136823F001031360202384F8E9
:1054B0003D30A06B036D984711E094F83D20D2B2C7
:1054C000602A1FD05A6912F0400F05D01A69636A2A
:1054D0001A70636A013363622046FCF7BDF8236CDF
:1054E00013F00F0F04D02268536823F4E063536075
:1054F00094F83D30DBB2226C12F0040F01D0282B5F
:1055000018D010BD202284F83D20002222645A6960
:1055100012F0400F05D01A69636A1A70636A01338A
:1055200063622268136823F0010313602046FCF7CE
:1055300097F8D4E7074BE36200232363202284F823
:105540003D2084F83E302046FFF76CFCD9E700BFD1
:10555000FD5201080000FFFF30B583B0044690F80B
:105560003D50EDB20268536823F4E06353600023BA
:10557000019303685A6901921A6842F001021A60A5
:10558000019B0268136823F48063136003685A6800
:1055900012F4006F38D0222D21D02A2D1FD0426B5B
:1055A0001268526892B24285428D92B21AB1026C70
:1055B00042F0040202645A6822F400625A60606B8E
:1055C000FEF7B4F801281FD0636B444A1A65606B7C
:1055D000FDF7ABFFC0B1606B036D984714E0A26BA1
:1055E0001268526892B26285628D92B21AB1226CD0
:1055F00042F0040222645A6822F400625A60A06BEE
:10560000FEF794F8012842D1638D9BB233B323682F
:105610005A6912F0040F0AD01A69636A1A70636A31
:1056200001336362638D9BB2013B9BB26385236848
:105630005A6912F0400F0AD01A69636A1A70636AD5
:1056400001336362638D9BB2013B9BB26385638DC3
:105650009BB21BB1236C43F004032364236C13BB84
:105660002A2D25D094F83D30DBB2282B29D0236B8E
:10567000222B01D0222D19D100232363202284F86C
:105680003D2084F83E302046FFF777FB0EE0A36B09
:10569000124A1A65A06BFDF748FF0028B4D0A06B32
:1056A000036D9847B0E72046FFF79AFE03B030BD80
:1056B00000232363282384F83D302046FFF75DFB59
:1056C000D0E7074BE36200232363202284F83D20C8
:1056D00084F83E302046FFF7A5FBE7E7FD520108BE
:1056E0000000FFFFF8B5044602685568C66A90F8E6
:1056F0003E30DBB290F83D10C8B2102B13D0402BD7
:1057000011D0236C002B7AD05369002113F0020FC3
:1057100078D015F4007F75D0236C03B191692046D1
:10572000FFF753FBF8BDD2F818C0516911F001071B
:1057300005D1B6F52A0FF5D0B6F12A4FF2D017B140
:1057400015F4007F29D111F0080F02D015F4007F65
:105750002AD111F0020F02D015F4007F28D11CF0DD
:10576000040F31D0526812F4006FDBD111F0800FBA
:1057700005D015F4806F02D011F0040F1CD011F089
:10578000040FCFD015F4007FCCD0212818D0402BA7
:10579000C8D12046FFF7E1FBC4E72046FEF76FFCC7
:1057A0002046FEF7A3FABDE72046FEF7F3FAB9E775
:1057B0002046FEF704FBB5E72046FFF72DFCB1E7D6
:1057C0002046FFF77BFBADE7536813F4006FA9D1C8
:1057D00011F0400F05D015F4806F02D011F0040FC6
:1057E00009D011F0040F9DD015F4007F9AD0204607
:1057F000FFF77AFC96E72046FFF70AFD92E79169EA
:10580000536983E713F0100F02D015F4007F18D10D
:1058100021281AD0292818D013F0400F05D015F4EC
:10582000806F02D013F0040F28D013F0040F3FF460
:1058300079AF15F4007F3FF475AF2046FEF7D2FB39
:1058400070E72046FFF788FE6CE713F0800F05D065
:1058500015F4806F02D013F0040F0BD013F0040F77
:105860003FF460AF15F4007F3FF45CAF2046FEF7D5
:10587000A9FB57E72046FFF75AFA53E72046FFF700
:105880007DFA4FE7F8B5044603685D695F6890F8F4
:105890003E20D2B215F4807F07D017F4807F3CD031
:1058A0006FF480715961012600E0002615F4007F35
:1058B00008D017F4807F05D046F0020623686FF405
:1058C0000071596115F4806F19D017F4807F16D0DC
:1058D000638D99B294F83D30DBB2206B202A1ED044
:1058E00023686FF48061596146F00406102A01D0E4
:1058F000402A04D12268136843F40073136015F43E
:10590000006F08D017F4807F05D046F008062368A2
:105910006FF400625A6186B9F8BD0026C6E7002917
:10592000DED1212B05D0292B03D0282BD8D121283B
:10593000D6D12046FFF778FAE1E7236C1E432664B0
:105940002046FFF74DFDE7E740B338B5044603684E
:105950004CF6CC421A60036845F255521A6003684F
:1059600042685A60036882689A60FCF791FE0546B7
:105970002368DA6812F0030F0BD0FCF789FE401B96
:105980003128F5D92368DB6813F0030FF0D003202A
:1059900003E04AF6AA221A60002038BD01207047B1
:1059A00003684AF6AA221A60002070472DE9F047E2
:1059B00082B0D0F80080C1EBC10300EB83035A6DC5
:1059C0001B6D9A4255D807460C46C1469B1AC1EB3F
:1059D000C10200EB8202526C9A4200D31A4602F1D5
:1059E000030A4FEA9A0A15E006F1030A4FEA9A0AF7
:1059F000C4EBC40507EB8505A96C3B7C0093B3B2EF
:105A0000E2B2404602F0A8F8AB6C3344AB646B6D75
:105A10001E446E6509EB441303F510639B699BB24A
:105A2000534512D3C4EBC40207EB8202516D136DD0
:105A300099420AD24BB15B1AC4EBC40207EB820253
:105A4000566C9E42D0D31E46CEE7C4EBC40007EB93
:105A500080073A6D7B6D9A420FD804F00F04012342
:105A6000A340D8F8344824EA0304C8F83448002096
:105A700000E0012002B0BDE8F0870020FAE7F0B5B1
:105A80008BB0002800F08C800546046890F8BD3388
:105A90002BB3032385F8BD33E36B13F4807F01D16F
:105AA00000232B61286801F0F7FD2C4654F8107B89
:105AB0006E460FCC0FC60FCC0FC694E8030086E8E5
:105AC00003002B1D0ECB384601F028FD044658B1CB
:105AD000022385F8BD33012420460BB0F0BD80F8C9
